:060000000A128A110C280F
:10000800FE00030EF1000A08F2000A128A11CD2F31
:100018000A128A110F28F801F901FA018313A03096
:100028008400B1300A128A11F8270A128A11830152
:100038000A128A156A2F8312031323088039A8002D
:100048002808F3002308A8002807A9002908F500B4
:10005800A21F2F2830283128751475080319352850
:1000680036284628750A031D3A283B2843280030BD
:10007800A3000030A2000030A1000030A000A217A9
:10008800A3014E280030A3000030A2000030A100D8
:100098000030A00027088039A8002808F400740858
:1000A80073060319582859285A2873172708A800CF
:1000B8002807A9002908F400A61F632864286528D2
:1000C80074147408031969286A287A28740A031DA5
:1000D8006E286F2877280030A7000030A60000306F
:1000E800A5000030A400A617A70182280030A700A9
:1000F8000030A6000030A5000030A4007508740286
:10010800031887288828CC28731F8B288C289028C8
:100118008030A8002808F3067508A8002808F6000B
:100128007408A8002808F5007608A8002808F40034
:100138002008A8002808F6002408A8002808A0001D
:100148007608A8002808A4002108A8002808F600B6
:100158002508A8002808A1007608A8002808A500F6
:100168002208A8002808F6002608A8002808A200E7
:100178007608A8002808A6002308A8002808F60082
:100188002708A8002808A3007608A8002808A700C0
:10019800F6017408A800A9012908AB00750828020F
:1001A800AA00031CAB032B08803AFF0080307F02B3
:1001B800031DE0281A302A02031CE328E428252915
:1001C800831203132308220421042004031DED28AD
:1001D800EF280130F0280030A8002808F600003089
:1001E800A3000030A2000030A1000030A000740875
:1001F800A8002808F5002B29761C032904290F29B3
:10020800760883120313A8000310280C0138A900EC
:100218002908F60011290310F60C83120313201C79
:10022800162917291829F6170130A800230DA30C41
:10023800A20CA10CA00CA80B1A290130A8002808B0
:10024800F50774087502031C2A292B290029731B3A
:100258002E292F297E297508031D332934293F2982
:10026800003083120313A3000030A2000030A10065
:100278000030A000AE2A831203132408A007250823
:1002880003110318013E03194A29A107260803117F
:100298000318013E03195129A2072708031103185F
:1002A800013E03195829A307231C5B295C29342A1A
:1002B800761C5F29602969297608A8000310280C94
:1002C8000138A9002908F6006B290310F60C201C38
:1002D8006E296F297029F6170130A800230DA30C89
:1002E800A20CA10CA00CA80B72290130A8002808A8
:1002F800F507342A831203132308803AFF002708DE
:10030800803A7F02031D922926082202031D9229A2
:1003180025082102031D9229240820020318952983
:100328009629EE29FF30A800FF30A900FF30AA0067
:10033800FF30AB002408AC002508AD002608AE004D
:100348002708AF002008AC022108031C210FAD29A3
:10035800AE29AD022208031C220FB329B429AE022C
:100368002308031C230FB929BA29AF022C08A807B0
:100378002D0803182D0FC129C229A9072E08031813
:100388002E0FC729C829AA072F0803182F0AAB0759
:100398002B08A3002A08A2002908A1002808A00009
:1003A8008030A8002808F306F609F60A7608031D27
:1003B800DE29DF29FC290130A007003003180130AD
:1003C800A107003003180130A207003003180130DC
:1003D800A307FC292408A0022508031C250FA10255
:1003E8002608031C260FA2022708031C270FA302B6
:1003F8002308220421042004031D032A042A302A86
:100408007608031D082A092A302A0030A300003084
:10041800A2000030A1000030A000AE2A0130A800E0
:100428000310A00DA10DA20DA30DA80B142AF61FF1
:100438001E2A1F2A202A2014761C232A242A272A27
:100448000314F60D292A0310F60D750803192D2A31
:100458002E2A302A0130F502A21F332A342A122A02
:10046800F401F61F382A392A472A76087F390319F2
:100478003E2A3F2A422AF401F40A472A201C452A28
:10048800462A472A3F2A740803194B2A4C2A802AED
:100498000130A007003003180130A107003003180D
:1004A8000130A207003003180130A307231C5D2A7E
:1004B8005E2A802A2008A8002108A9002208AA008C
:1004C8002308AB000130AC002B0DAB0CAA0CA90C17
:1004D800A80CAC0B682A2B08A3002A08A20029083C
:1004E800A1002808A000750A03197B2A7C2A802A03
:1004F8000130A8002808F507750A0319842A852AF7
:100508008A2A7508031D892A8A2A982A0030A30096
:100518000030A2000030A1000030A0007508031DC3
:10052800962A972A982AF301751C9B2A9C2A9E2AA8
:10053800A217A22A7F30A8002808A2057508A800DB
:100548000310280CA9002908A300F31FAC2AAD2A20
:10055800AE2AA31708008312031358088039D9005C
:100568005908E2005808D9005907DA005A08E90082
:10057800D71FBF2AC02AC12A691469080319C52AC6
:10058800C62AD62A690A031DCA2ACB2AD32A0030CA
:10059800D8000030D7000030D6000030D500D7177B
:1005A800D801DE2A0030D8000030D7000030D6004D
:1005B8000030D50054088039D9005908E20654089B
:1005C800D9005907DA005A08EA00D31FEC2AED2AA5
:1005D800EE2A6A146A080319F22AF32A032B6A0A14
:1005E800031DF72AF82A002B0030D4000030D3006E
:1005F8000030D2000030D100D317D4010B2B0030CB
:10060800D4000030D3000030D2000030D1005408AC
:10061800530452045104031D122B132B2C2B0030AE
:10062800D8000030D7000030D6000030D500803028
:10063800D7047F30D8046208D9005908D80458086C
:10064800D4005708D3005608D2005508D1008B2C87
:100658006908031D302B312B3A2B0030D4000030B1
:10066800D3000030D2000030D1008B2C6908D900AB
:10067800DA015A08DC006A085902DB00031CDC03B3
:100688005B087F3EE3005C080318013E003EE4007F
:100698005808E1005708E0005608DF005508DE005A
:1006A8000030D8000030D7000030D6000030D50028
:1006B8000030E8000030E7000030E6000030E500D8
:1006C800EA01B02B6A0803196A2B6B2B8B2B0130BC
:1006D800D9000310DE0DDF0DE00DE10DD90B6D2BF8
:1006E8000130D9000310D50DD60DD70DD80DD90B73
:1006F800762BE81F802B812B822B55140130D900D3
:100708000310E50DE60DE70DE80DD90B842B540811
:100718006102031D992B53086002031D992B52088F
:100728005F02031D992B51085E02031C9C2B9D2B15
:10073800AC2B68175108DE025208031C520FDF0267
:100748005308031C530FE0025408031C540FE10222
:100758000130D9005908EA071A306A02031CB52B80
:10076800B62B662B610860045F045E040319BD2B79
:10077800BE2BDD2B6514DD2B0130D9000310D50D00
:10078800D60DD70DD80DD90BC22BE81FCC2BCD2BEE
:10079800CE2B55140130D9000310E50DE60DE70DF9
:1007A800E80DD90BD02BFF30E3070318E40AFF301C
:1007B800E407D71FE02BE12BC02BEA01E81FE52B4C
:1007C800E62B022CFF306505D900FF306605DA00FC
:1007D800FF306705DB007F306805DC005C085B04E0
:1007E8005A0459040319F92BFA2BFD2BEA01EA0ADA
:1007F800022C551C002C012C022CFA2B6A08031918
:10080800062C072C382C0130D5070030031801308E
:10081800D607003003180130D7070030031801301D
:10082800D807581C182C192C382C5508D9005608EC
:10083800DA005708DB005808DC000130DD005C0DE9
:10084800DC0CDB0CDA0CD90CDD0B232C5C08D80093
:100858005B08D7005A08D6005908D5000130E307CD
:100868000318E40A0030E4076408803AFF00803087
:100878007F02031D412CFF306302031C442C452CCE
:10088800532CFF3083120313E3000030E4000030E0
:10089800D8000030D7000030D6000030D5008312D1
:1008A80003136408803AFF0080307F02031D5E2C2A
:1008B800013063020318612C622C6F2C831203131E
:1008C800E301E4010030D8000030D7000030D60042
:1008D8000030D500E201831203136308D9005908D8
:1008E800E900691C782C792C7B2CD7177F2C7F305A
:1008F800D9005908D7056908D9000310590CDA003E
:100908005A08D8006208D9005908D804232B0800CF
:1009180083160313A601A60AA701A70A340883129F
:100928000313B30083160313330883120313B200AF
:1009380083160313320883120313B10083160313BB
:10094800310883120313B0000A128A15EE260A1220
:100958008A11831203133008EB006B088316031304
:10096800A800340883120313D00083160313330836
:1009780083120313CF008316031332088312031361
:10098800CE0083160313310883120313CD00831698
:100998000313340883120313B300831603133308B5
:1009A80083120313B200831603133208831203134E
:1009B800B10083160313310883120313B0000A121F
:1009C8008A15EE260A128A11831203133008EB00E7
:1009D800EC01ED01EE016E08BE006D08BD006C086B
:1009E800BC006B08BB0001300A128A1133260A12B8
:1009F8008A11831203133E08CC003D08CB003C0843
:100A0800CA003B08C9000A128A15A1260A128A11CF
:100A1800831203134C08D8004B08D7004A08D600A5
:100A28004908D5003D30D400CC30D300CC30D200BA
:100A3800CD30D1000A128A11AF220A128A1183120C
:100A48000313540883160313BC00831203135308BB
:100A580083160313BB008312031352088316031370
:100A6800BA0083120313510883160313B9003C0814
:100A780083120313B300831603133B088312031373
:100A8800B200831603133A0883120313B1008316C6
:100A98000313390883120313B0000A128A15EE26CD
:100AA8000A128A11831203133008EB006B088316AD
:100AB8000313A900380883120313B3008316031322
:100AC800370883120313B200831603133608831200
:100AD8000313B10083160313350883120313B00000
:100AE8000A128A15EE260A128A1183120313300895
:100AF800EB006B0883160313AA003808831203134C
:100B0800D00083160313370883120313CF0083160C
:100B18000313360883120313CE0083160313350814
:100B280083120313CD0083160313380883120313AB
:100B3800B30083160313370883120313B200831616
:100B48000313360883120313B10083160313350801
:100B580083120313B0000A128A15EE260A128A11AC
:100B6800831203133008EB00EC01ED01EE016E086F
:100B7800BE006D08BD006C08BC006B08BB000130EE
:100B88000A128A1133260A128A11831203133E08A5
:100B9800CC003D08CB003C08CA003B08C9000A123B
:100BA8008A15A1260A128A11831203134C08D80049
:100BB8004B08D7004A08D6004908D5003D30D40074
:100BC800CC30D300CC30D200CD30D1000A128A11FB
:100BD800AF220A128A1183120313540883160313CF
:100BE800BC0083120313530883160313BB0083123C
:100BF8000313520883160313BA0083120313510810
:100C080083160313B9003C0883120313B300831639
:100C180003133B0883120313B200831603133A0825
:100C280083120313B10083160313390883120313C5
:100C3800B0000A128A15EE260A128A1183120313CB
:100C48003008EB006B0883160313AB00FF308312E8
:100C58000313EB006B0883160313AC000800831220
:100C68000313C300430803193A2E3B2E4F2EBE1F11
:100C78003E2E3F2E4F2E3B09C5003C09C6003D09BC
:100C8800C7003E09C800C50A0319C60A0319C70ADE
:100C98000319C80A572E3E08C8003D08C7003C087B
:100CA800C6003B08C5003E083D043C043B04031D48
:100CB8005E2E5F2E682E0030BE000030BD00003072
:100CC800BC000030BB00EE2E9630BF003F08C400C9
:100CD8007A2E0130BF003F08C40701300310C80C4A
:100CE800C70CC60CC50CFF3E031D722EFE3048050E
:100CF800031D7F2E802E6D2E9C2E0130BF003F08D5
:100D0800C4070130C507003003180130C60700309A
:100D180003180130C707003003180130C807013035
:100D28000310C80CC70CC60CC50CFF3E031D942E3F
:100D3800FF304805031DA12EA22E812EAE2E0130B4
:100D4800C4020130BF000310C50DC60DC70DC80D84
:100D5800BF0BA72EC71BB12EB22EB82E02304402ED
:100D68000318B72EB82EA32E4418BB2EBC2EC42EA3
:100D7800FF30C505FF30C6057F30C705FF30C80501
:100D88000310C40C4408BF00C001C101C2011830DF
:100D98000310BF0DC00DC10DC20DFF3E031DCC2EAB
:100DA8003F08C5044008C6044108C7044208C804EF
:100DB80043080319E02EE12EE62EBE1FE42EE52E91
:100DC800E62EC8174808BE004708BD004608BC0004
:100DD8004508BB00080083120313A901A31FF52EC1
:100DE800F62E032FA009A109A209A309A00A031935
:100DF800A10A0319A20A0319A30AA901A90AA71F8C
:100E0800062F072F162FA409A509A609A709A40AC2
:100E18000319A50A0319A60A0319A70A0130F30042
:100E28007308A9060030AD000030AC000030AB00FC
:100E38000030AA0023082204210420040319252FC6
:100E4800262F732FA801A80A362F0130F3000310AC
:100E5800A00DA10DA20DA30DF30B2B2F0130F30054
:100E68007308A807A31F392F3A2F292F0130F30041
:100E78000310AA0DAB0DAC0DAD0DF30B3C2F2308E1
:100E88002702031D512F22082602031D512F210876
:100E98002502031D512F20082402031C542F552F0F
:100EA800642F2008A4022108031C210FA502220890
:100EB800031C220FA6022308031C230FA7022A14CF
:100EC80001300310A30CA20CA10CA00CFF3E031DC3
:100ED800652F0130A802031D722F732F3A2F29089E
:100EE8000319772F782F832FAA09AB09AC09AD090D
:100EF800AA0A0319AB0A0319AC0A0319AD0A2D088B
:100F0800A3002C08A2002B08A1002A08A0000800B2
:100F180080308316031387002030980090308312A6
:100F2800031398002E08F4002F08F5003008F60087
:100F38003108F70006300310F40DF50DF60DF70D26
:100F4800FF3E031D9F2F7708A3007608A2007508AF
:100F5800A1007408A0000130A7003130A6002D3090
:100F6800A5000030A4000A128A11EF260A128A117D
:100F7800831203132008FF3E831603139900C03021
:100F8800F40074088B042230F40074088C04A50162
:100F98000800831203138C1ED22FD32FDD2F1A08BB
:100FA800F0007008FA008316031325148312031344
:100FB8008C120B1DE02FE12FF12F01308316031344
:100FC800A3070318A40A0030A407FB30F000700838
:100FD8008B05B23083120313810072088A00710EE8
:100FE8008300FE0E7E0E090064008001840A040658
:080FF800031900340406F92F6F
:101C8C00A030F30073088B04053083160313810016
:101C9C000800F300831203130C1E552E562E502EE3
:101CAC00730899000800F50083160313AD01AD0A03
:101CBC007508F4007408AE007308F4007408AF00E3
:101CCC00FF30F4007408B0000800F500F80107308C
:101CDC007802031C722E732E742E852E78087507CD
:101CEC00F40074088400831300080A128A154F2626
:101CFC000A128A150130F4007408F8076D2E0800DA
:101D0C00F500F80104307802031C8D2E8E2E8F2ED8
:101D1C00A02E78087507F40074088400831300085B
:101D2C000A128A154F260A128A150130F40074081B
:101D3C00F807882E0800803083120313CC06500855
:101D4C00A3004F08A2004E08A1004D08A0004C08AB
:101D5C00A7004B08A6004A08A5004908A4000A12CF
:101D6C008A111F200A128A15831203132308CC0030
:101D7C002208CB002108CA002008C90008008316DD
:101D8C00031320030319CB2ECC2ECD2EED2E2103C5
:101D9C00031DD12ED22EED2E4130B400A430B30051
:101DAC000030B2000030B1004230B800C730B7008C
:101DBC00CC30B600CD30B5000A128A118C240A1230
:101DCC008A15A6300A128A156B260A128A15080083
:101DDC00031083120313320D330DB4003408BA0010
:101DEC003A08031DFA2EFB2E042F0030B3000030EE
:101DFC00B2000030B1000030B000692F3008B400E0
:101E0C003108B5003208B6003308B7001F30031094
:101E1C00B70CB60CB50CB40CFF3E031D0D2F3408DB
:101E2C00B8003808B900B217FF30B005FF30B10563
:101E3C00FF30B2050030B3059630BA02BA1F272F17
:101E4C00282F422F3A08803A973E03182E2F2F2F17
:101E5C00302FFB2E01300310B30CB20CB10CB00CB4
:101E6C00FF3E031D312F0130B4003408BA07031DA7
:101E7C00402F412F302F592F20303A02031C472F6F
:101E8C00482F542FFB2E0130B4000310B00DB10DB0
:101E9C00B20DB30DB40B4B2F0130BA023A08031D2F
:101EAC00582F592F492F390803195D2F5E2F692F91
:101EBC00B009B109B209B309B00A0319B10A03197F
:101ECC00B20A0319B30A08000A128A1546260A1226
:101EDC008A15003083120313B1000130B000C230F8
:101EEC00AF000030AE000A128A118C270A128A1534
:101EFC00831603138801831203138801F301F30A79
:101F0C0008300A128A1559260A128A15AD300A129F
:101F1C008A1586260A128A15F30110300A128A15C0
:101F2C0059260A128A15AD300A128A1586260A120B
:101F3C008A15413083160313B400A430B30000306B
:101F4C00B2000030B1004230B800C730B700CC301E
:101F5C00B600CD30B5000A128A118C240A128A15EB
:101F6C00A6300A128A156B260A128A1501308312C2
:101F7C000313EF006F0883160313A5050319C72F6E
:101F8C00C82FEF2FFE3083120313EF006F08831658
:101F9C000313A5057A0883120313EF007908A03EFA
:101FAC0084006F08831380000130EF006F08F9077D
:101FBC007A0A0319E22FE32FE92F04307902031C6C
:101FCC00E82FE92FEF2FF9010A128A15C5260A12FC
:101FDC008A150130831603132402F53003192302EA
:101FEC00031CF92FFA2FBC2FA301A401BC2F0A123A
:041FFC008A110C2812
:02400E00F23F7F
:00000001FF
