:060000000A128A110C280F
:10000800FE00030EF1000A08F2000A168A11892E72
:100018000A128A110F288313A830FD001630FE003B
:100028005130FF00A03084000A128A1593200A126A
:100038008A116E30FD001630FE005930FF00623024
:1000480084000A128A1593200A128A114F308400FC
:1000580062300A168A1149260A128A11F801F90132
:10006800FA0183010A168A11B72F8312031328088D
:100078008039AD002D08B2002808AD002D07AE006C
:100088002E08B800A71F49284A284B2838143808D2
:1000980003194F2850285F28380A031D542855286B
:1000A8005D280030A8000030A7000030A60000300E
:1000B800A500A71767280030A8000030A700003067
:1000C800A6000030A5002C088039AD002D08B20626
:1000D8002C08AD002D07AE002E08B700AB1F752801
:1000E800762877283714370803197B287C288B282B
:1000F800370A031D8028812889280030AC00003089
:10010800AB000030AA000030A900AB1793280030DC
:10011800AC000030AB000030AA000030A90037085E
:100128000319972898289D283808031D9C289D287E
:10013800A6280030A8000030A7000030A600003034
:10014800A500992B2508AD002D08F3002B080A16E9
:100158008A11B2260A128A11740883120313BE0088
:100168007308BD003D08AD00AE01AF01B001300815
:10017800B6002F08B5002E08B4002D08B3003E08BD
:10018800AD00AE01AF01B0013008BC002F08BB00C4
:100198002E08BA002D08B9002608AD002D08F30076
:1001A8002A080A168A11B2260A128A1174088312BA
:1001B8000313BE007308BD003D08AD00AE01AF01DA
:1001C800B0012D08B3072E0803110318013E0319C7
:1001D800EE28B4072F0803110318013E0319F52868
:1001E800B507300803110318013E0319FC28B607A8
:1001F8003E08AD00AE01AF01B0012D08B9072E08C9
:1002080003110318013E03190A29BA072F0803111D
:100218000318013E03191129BB07300803110318FD
:10022800013E03191829BC072708AD002D08F30063
:1002380029080A168A11B2260A128A11740883122A
:100248000313BE007308BD003D08AD00AE01AF0149
:10025800B0012D08B3072E0803110318013E031936
:100268003629B4072F0803110318013E03193D2945
:10027800B507300803110318013E03194429B607CE
:100288003E08AD00AE01AF01B0012D08B9072E0838
:1002980003110318013E03195229BA072F08031145
:1002A8000318013E03195929BB0730080311031825
:1002B800013E03196029BC070830AD000310B30DD7
:1002C800B40DB50DB60DAD0B62292608AD002D088D
:1002D800F30029080A168A11B2260A128A1174082C
:1002E80083120313BE007308BD003D08AD003E082D
:1002F800AE00AF01B0012D08B3072E080311031893
:10030800013E03198829B4072F0803110318013E79
:1003180003198F29B507300803110318013E031983
:100328009629B6072508AD002D08F3002A080A16F5
:100338008A11B2260A128A11740883120313BE00A6
:100348007308BD003D08AD003E08AE00AF01B00126
:100358002D08B3072E0803110318013E0319B52908
:10036800B4072F0803110318013E0319BC29B50768
:10037800300803110318013E0319C329B6070830D2
:10038800AD000310B30DB40DB50DB60DAD0BC529F9
:100398002508AD002D08F30029080A168A11B2268F
:1003A8000A128A11740883120313BE007308BD0071
:1003B8003D08AD003E08AE00AF01B0012D08B307FF
:1003C8002E0803110318013E0319EB29B4072F085F
:1003D80003110318013E0319F229B5073008031168
:1003E8000318013E0319F929B6072608AD002D08A0
:1003F800F3002B080A168A11B2260A128A11740809
:1004080083120313BE007308BD003D08AD003E080B
:10041800AE00AF01B0012D08B9072E08031103186B
:10042800013E0319182ABA072F0803110318013EC1
:1004380003191F2ABB07300803110318013E0319CB
:10044800262ABC072708AD002D08F3002A080A163B
:100458008A11B2260A128A11740883120313BE0085
:100468007308BD003D08AD003E08AE00AF01B00105
:100478002D08B9072E0803110318013E0319452A50
:10048800BA072F0803110318013E03194C2ABB07AA
:10049800300803110318013E0319532ABC07270823
:1004A800AD002D08F3002B080A168A11B2260A128D
:1004B8008A11740883120313BE007308BD003D0837
:1004C800AD003E08AE00AF01B00108300310AD0D1D
:1004D800AE0DAF0DB00DFF3E031D6A2A2D08B907FA
:1004E8002E0803110318013E03197B2ABA072F08A7
:1004F80003110318013E0319822ABB0730080311B0
:100508000318013E0319892ABC073308AD003408D3
:10051800AE003508AF003608B00018300310B00C34
:10052800AF0CAE0CAD0CFF3E031D922A2D08B90787
:100538002E0803110318013E0319A32ABA072F082E
:1005480003110318013E0319AA2ABB073008031137
:100558000318013E0319B12ABC070830AD00031087
:10056800B30DB40DB50DB60DAD0BB32A380837076A
:10057800AD00AE01AE0D2D08823EBD002E08031859
:10058800013EFF3EBE00E52A0130AD000310B90D63
:10059800BA0DBB0DBC0DAD0BCA2AB61FD42AD52A7D
:1005A800D62A39140130AD000310B30DB40DB50DC2
:1005B800B60DAD0BD82AFF30BD070318BE0AFF30B1
:1005C800BE07BB1FE82AE92AC82AB701B61FED2AC9
:1005D800EE2A0A2BFF303305AD00FF303405AE009C
:1005E800FF303505AF007F303605B00030082F04E6
:1005F8002E042D040319012B022B052BB701B70A72
:100608000A2B391C082B092B0A2B022B3708031934
:100618000E2B0F2B402B0130B90700300318013087
:10062800BA07003003180130BB0700300318013047
:10063800BC073C1C202B212B402B3908AD003A0865
:10064800AE003B08AF003C08B0000130B100300DEF
:10065800B00CAF0CAE0CAD0CB10B2B2B3008BC00A2
:100668002F08BB002E08BA002D08B9000130BD07BD
:100678000318BE0A0030BE073E08803AFF008030EB
:100688007F02031D492BFF303D02031C4C2B4D2BD1
:10069800582B7F3083120313BC008030BB0000301E
:1006A800BA000030B9008D2B831203133E08803A3C
:1006B800FF0080307F02031D632B01303D020318C9
:1006C800662B672B732B003083120313BC0000309A
:1006D800BB000030BA000030B900B2018D2B831284
:1006E80003133D08AD002D08B800FF30B905FF30F1
:1006F800BA057F30BB050030BC05381C842B852B20
:10070800862BBB173808AD0003102D0CAE002E0841
:10071800BC003208AD002D08BC043C08A8003B080A
:10072800A7003A08A6003908A50008008312031399
:1007380023088039A8002808F3002308A800280700
:10074800A9002908F500A21FAA2BAB2BAC2B751406
:1007580075080319B02BB12BC12B750A031DB52BD6
:10076800B62BBE2B0030A3000030A2000030A10041
:100778000030A000A217A301C92B0030A30000304D
:10078800A2000030A1000030A00027088039A8008E
:100798002808F400740873060319D32BD42BD52B1F
:1007A80073172708A8002807A9002908F400A61F1E
:1007B800DE2BDF2BE02B741474080319E42BE52BD4
:1007C800F52B740A031DE92BEA2BF22B0030A70046
:1007D8000030A6000030A5000030A400A617A7012D
:1007E800FD2B0030A7000030A6000030A500003027
:1007F800A400750874020318022C032C472C731FDD
:10080800062C072C0B2C8030A8002808F306750846
:10081800A8002808F6007408A8002808F50076083B
:10082800A8002808F4002008A8002808F6002408D2
:10083800A8002808A0007608A8002808A400210815
:10084800A8002808F6002508A8002808A1007608AE
:10085800A8002808A5002208A8002808F6002608ED
:10086800A8002808A2007608A8002808A6002308DF
:10087800A8002808F6002708A8002808A30076087A
:10088800A8002808A700F6017408A800A9012908EB
:10089800AB0075082802AA00031CAB032B08803A9A
:1008A800FF0080307F02031D5B2C1A302A02031CD4
:1008B8005E2C5F2CA02C831203132308220421042E
:1008C8002004031D682C6A2C01306B2C0030A80012
:1008D8002808F6000030A3000030A2000030A10074
:1008E8000030A0007408A8002808F500A62C761C83
:1008F8007E2C7F2C8A2C760883120313A800031001
:10090800280C0138A9002908F6008C2C0310F60CD5
:1009180083120313201C912C922C932CF617013070
:10092800A800230DA30CA20CA10CA00CA80B952CBD
:100938000130A8002808F50774087502031CA52CC7
:10094800A62C7B2C731BA92CAA2CF92C7508031D2B
:10095800AE2CAF2CBA2C003083120313A300003046
:10096800A2000030A1000030A000292E831203133A
:100978002408A007250803110318013E0319C52CF4
:10098800A107260803110318013E0319CC2CA2075E
:10099800270803110318013E0319D32CA307231CAE
:1009A800D62CD72CAF2D761CDA2CDB2CE42C760831
:1009B800A8000310280C0138A9002908F600E62C25
:1009C8000310F60C201CE92CEA2CEB2CF61701304E
:1009D800A800230DA30CA20CA10CA00CA80BED2CB5
:1009E8000130A8002808F507AF2D83120313230848
:1009F800803AFF002708803A7F02031D0D2D260844
:100A08002202031D0D2D25082102031D0D2D24088A
:100A180020020318102D112D692DFF30A800FF307A
:100A2800A900FF30AA00FF30AB002408AC0025085D
:100A3800AD002608AE002708AF002008AC02210848
:100A4800031C210F282D292DAD022208031C220F7B
:100A58002E2D2F2DAE022308031C230F342D352DE8
:100A6800AF022C08A8072D0803182D0F3C2D3D2D8B
:100A7800A9072E0803182E0F422D432DAA072F0869
:100A880003182F0AAB072B08A3002A08A20029087D
:100A9800A1002808A0008030A8002808F306F6095D
:100AA800F60A7608031D592D5A2D772D0130A00717
:100AB800003003180130A107003003180130A207E5
:100AC800003003180130A307772D2408A002250859
:100AD800031C250FA1022608031C260FA2022708C3
:100AE800031C270FA3022308220421042004031D4A
:100AF8007E2D7F2DAB2D7608031D832D842DAB2DE8
:100B08000030A3000030A2000030A1000030A00097
:100B1800292E0130A8000310A00DA10DA20DA30DD0
:100B2800A80B8F2DF61F992D9A2D9B2D2014761C1E
:100B38009E2D9F2DA22D0314F60DA42D0310F60D46
:100B480075080319A82DA92DAB2D0130F502A21F98
:100B5800AE2DAF2D8D2DF401F61FB32DB42DC22D62
:100B680076087F390319B92DBA2DBD2DF401F40A81
:100B7800C22D201CC02DC12DC22DBA2D74080319F9
:100B8800C62DC72DFB2D0130A007003003180130FA
:100B9800A107003003180130A20700300318013004
:100BA800A307231CD82DD92DFB2D2008A800210828
:100BB800A9002208AA002308AB000130AC002B0DC5
:100BC800AB0CAA0CA90CA80CAC0BE32D2B08A300AA
:100BD8002A08A2002908A1002808A000750A0319FC
:100BE800F62DF72DFB2D0130A8002808F507750A0A
:100BF8000319FF2D002E052E7508031D042E052E42
:100C0800132E0030A3000030A2000030A1000030F5
:100C1800A0007508031D112E122E132EF301751C4A
:100C2800162E172E192EA2171D2E7F30A800280861
:100C3800A2057508A8000310280CA9002908A3001C
:100C4800F31F272E282E292EA3170800831203131B
:100C5800B80006303806031D322E332E372E0130E9
:100C6800F7007708F80704303806031D3C2E3D2EA0
:100C78003F2E0130F80202303806031D442E452E5F
:100C88006A2E03307806031D4A2E4B2E6A2E3D30FD
:100C9800A300CC30A200CC30A100CD30A000690860
:100CA800A7006808A6006708A5006608A4000A123D
:100CB8008A119A230A128A11831203132308E9005E
:100CC8002208E8002108E7002008E6000830380676
:100CD800031D6F2E702E952E03307806031D752E7A
:100CE800762E952E3D30B300CC30B200CC30B1001A
:100CF800CD30B0006908B7006808B6006708B500CD
:100D08006608B4000A168A1165260A128A11831227
:100D180003133308E9003208E8003108E700300817
:100D2800E60004307802031C9A2E9B2E9D2EF801B3
:100D3800F80A7808031DA12EA22EA62E0330F7006C
:100D48007708F8004230A3000C30A2000030A10060
:100D58000030A0006908A7006808A6006708A50079
:100D68006608A4000A128A1590230A128A11031829
:100D7800BE2EBF2EC92E423083120313E9000C3059
:100D8800E8000030E7000030E6008312031369082A
:100D9800A3006808A2006708A1006608A000413007
:100DA800A7004030A6000030A5000030A4000A12B9
:100DB8008A1590230A128A110318E32EE42EEE2EC8
:100DC800413083120313E9004030E8000030E700A7
:100DD8000030E600080083120313AA002A0803194A
:100DE800F62EF72E0B2FA51FFA2EFB2E0B2F2209FE
:100DF800AC002309AD002409AE002509AF00AC0AF8
:100E08000319AD0A0319AE0A0319AF0A132F2508EF
:100E1800AF002408AE002308AD002208AC00250866
:100E2800240423042204031D1A2F1B2F242F00300F
:100E3800A5000030A4000030A3000030A200AA2FB3
:100E48009630A6002608AB00362F0130A6002608EB
:100E5800AB0701300310AF0CAE0CAD0CAC0CFF3E71
:100E6800031D2E2FFE302F05031D3B2F3C2F292F4E
:100E7800582F0130A6002608AB070130AC07003018
:100E880003180130AD07003003180130AE070030F9
:100E980003180130AF0701300310AF0CAE0CAD0CD6
:100EA800AC0CFF3E031D502FFF302F05031D5D2F97
:100EB8005E2F3D2F6A2F0130AB020130A6000310D0
:100EC800AC0DAD0DAE0DAF0DA60B632FAE1B6D2F88
:100ED8006E2F742F02302B020318732F742F5F2F7D
:100EE8002B18772F782F802FFF30AC05FF30AD05FA
:100EF8007F30AE05FF30AF050310AB0C2B08A60002
:100F0800A701A801A90118300310A60DA70DA80D67
:100F1800A90DFF3E031D882F2608AC042708AD0441
:100F28002808AE042908AF042A0803199C2F9D2F0E
:100F3800A22FA51FA02FA12FA22FAF172F08A50002
:100F48002E08A4002D08A3002C08A20008000030D9
:100F5800831203132005F30000302105F4008030CC
:100F68002205F5007F302305F60076087504740421
:100F78007304031DC02FC12FC92F0030A3000030F8
:100F8800A2000030A1000030A00000302405F300CA
:100F980000302505F40080302605F5007F30270550
:100FA800F6007608750474047304031DDC2FDD2F26
:100FB800E52F0030A7000030A6000030A500003063
:100FC800A40027082306031DF32F26082206031D65
:100FD800F32F25082106031DF32F240820060319E3
:0E0FE800F62FF72FF92F0310FA2F031408002D
:1010000008308A000408840A82070034013404345A
:1010100007342A34023405340834003403340634E7
:101020000934233409340C340634033409340334CA
:1010300006340C34093403340834043402340134E3
:10104000FE34FD34FB34543465346D347034203454
:101050002034203420343A342034323432342E34A4
:10106000333420342034483475346D346934643476
:101070006934743479343A342034383430342E348A
:10108000333420342534003420342034573465344C
:101090006C3463346F346D346534203454346F34BD
:1010A00020342034203420342034203420342034A0
:1010B00043346F3461346334683420343134003461
:1010C0005334653474342034543465346D3470349E
:1010D00065347234613474347534723465343A343E
:1010E0000034533479347334743465346D342034BB
:1010F0005334743461347234743465346434003479
:101104008316031387018901A0308B000630810008
:10111400063083120313810008007E088A007F08CA
:1011240082000A128A158F200A128A158000840A06
:1011340004087D0603190034FF0A0319FE0A9328E4
:10114400831203135808803AFF0080307F02031D86
:10115400AD2865305702031CB028B128FA28831241
:1011640003136508A3006408A2006308A1006208D1
:10117400A0004230A700C830A6000030A50000300F
:10118400A4000A128A1590230A128A15031CCB287C
:10119400CC28D728003083120313E5000030E40084
:1011A4000030E3000030E200F8283D3083120313DE
:1011B400A300CC30A200CC30A100CD30A000650843
:1011C400A7006408A6006308A5006208A4000A1228
:1011D4008A119A230A128A15831203132308E5003D
:1011E4002208E4002108E3002008E200D701D80126
:1011F4000800831203135A08803AFF0080307F02EC
:10120400031D062947305902031C09290A295329B9
:10121400831203135608A3005508A2005408A10022
:101224005308A0004230A700B430A6000030A50047
:101234000030A4000A128A1590230A128A15031C8E
:10124400242925293029C23083120313D600B4304F
:10125400D5000030D4000030D30051293D30831232
:101264000313A300CC30A200CC30A100CD30A000E9
:101274005608A7005508A6005408A5005308A40062
:101284000A128A119A230A128A1583120313230855
:10129400D6002208D5002108D4002008D300D901A3
:1012A400DA01080083120313A000A101A42910305D
:1012B400210203185E295F297529F301F30A210825
:1012C400200784000A128A1500200A128A150A16B9
:1012D4008A1106270A128A150130F700770883124B
:1012E4000313A107A42910302106031D7A297B29A1
:1012F4009429F301C0300A168A1106270A128A15A6
:10130400F301F30A831203132108200784000A124D
:101314008A1500200A128A150A168A1106270A124B
:101324008A156E29F301F30A2108200784000A12A2
:101334008A1500200A128A150A168A1106270A122B
:101344008A156E292108200784000A128A150020B4
:101354000A128A15003A031DB029B1295929080037
:101364008312031309080239890009080439890022
:10137400683083120313A100E330A000A00BC0293E
:10138400A10BC029C5298312031309080238890057
:10139400F30138300A168A1106270A128A151A3000
:1013A40083120313A100F730A000A00BD729A10BCF
:1013B400D729DC29F30138300A168A1106270A12C4
:1013C4008A15063083120313A1002F30A000A00B4E
:1013D400E929A10BE929EE29F30138300A168A110B
:1013E40006270A128A15F3010F300A168A110627F6
:1013F4000A128A15F30101300A168A1106270A1205
:101404008A15F3010E300A168A1106270A128A1564
:10141400F30180300A168A1106270A128A15F3018D
:101424000C300A168A1106270A128A150800F830A9
:10143400F30073088316031386050F30F300730853
:101444008804FA010730F300730883120313860437
:101454007A081B3E84000A128A1500200A128A1593
:10146400F300730886051330F300F30B372A3A2A86
:10147400F9017908173E84000A128A1500200A121D
:101484008A15831203130805031D492A4A2A6E2A62
:10149400E1145C08803AFF0080307F02031D542A67
:1014A40015305B02031C572A582A6E2A7A08F30067
:1014B40002300310F30DFF3E031D5B2A7908730706
:1014C400F400740883120313ED00FD30F300730875
:1014D400E105DB01DC0161140130F3007308F90755
:1014E40004307902031C772A782A3B2A0130F3005E
:1014F4007308FA0703307A02031C812A822A242AF9
:10150400831203136D08013E84000A128A15002019
:101514000A128A150800031083120313370D380DBD
:10152400B9003908BF003F08031D992A9A2AA32A43
:101534000030B8000030B7000030B6000030B5000D
:10154400082B3508B9003608BA003708BB0038083C
:10155400BC001F300310BC0CBB0CBA0CB90CFF3E12
:10156400031DAC2A3908BD003D08BE00B717FF3083
:10157400B505FF30B605FF30B7050030B805963025
:10158400BF02BF1FC62AC72AE12A3F08803A973EF6
:101594000318CD2ACE2ACF2A9A2A01300310B80C78
:1015A400B70CB60CB50CFF3E031DD02A0130B900B0
:1015B4003908BF07031DDF2AE02ACF2AF82A203082
:1015C4003F02031CE62AE72AF32A9A2A0130B900CB
:1015D4000310B50DB60DB70DB80DB90BEA2A0130DD
:1015E400BF023F08031DF72AF82AE82A3E08031918
:1015F400FC2AFD2A082BB509B609B709B809B50AAA
:101604000319B60A0319B70A0319B80A080083169E
:101614000313270883120313A30083160313260856
:1016240083120313A20083160313250883120313E2
:10163400A10083160313240883120313A000650872
:10164400A7006408A6006308A5006208A4000A12A3
:101654008A11AB270A128A150318312B322B5A2B05
:10166400831203136508C3006408C2006308C10041
:101674006208C000CA300A128A1511260A128A1595
:1016840083120313650883160313A700831203133D
:10169400640883160313A6008312031363088316D6
:1016A4000313A50083120313620883160313A40013
:1016B400831203135208A3005108A2005008A1008A
:1016C4004F08A0005608A7005508A6005408A50016
:1016D4005308A4000A128A11AB270A128A150318A8
:1016E400742B752B8F2B831203135608C3005508D4
:1016F400C2005408C1005308C0008A300A128A1577
:1017040011260A128A15831203135608D2005508AB
:10171400D1005408D0005308CF00080000308312D1
:1017240003132005F30000302105F4008030220566
:10173400F5007F302305F6007608750474047304FD
:10174400031DA52BA62BAE2B0030A3000030A20056
:101754000030A1000030A00000302405F300003068
:101764002505F40080302605F5007F302705F600B6
:101774007608750474047304031DC12BC22BCA2B91
:101784000030A7000030A6000030A5000030A400FF
:10179400A31FCD2BCE2BF22B0030F3000030F4002E
:1017A4000030F5008030F6002008F3022108031C05
:1017B400210FDD2BDE2BF4022208031C220FE32B66
:1017C400E42BF5022308031C230FE92BEA2BF60272
:1017D4007608A3007508A2007408A1007308A0008D
:1017E400A71FF52BF62B1A2C0030F3000030F40061
:1017F4000030F5008030F6002408F3022508031CAD
:10180400250F052C062CF4022608031C260F0B2C8E
:101814000C2CF5022708031C270F112C122CF6029E
:101824007608A7007508A6007408A5007308A4002C
:101834008030A3068030A70627082302031D2C2C22
:1018440026082202031D2C2C25082102031D2C2C02
:101854002408200203182F2C302C322C0310332C94
:10186400031408008312031327088039F300730854
:10187400AC002708F3007307F4007408B300A61F34
:10188400442C452C462C3314330803194A2C4B2C76
:101894005B2C330A031D4F2C502C582C0030A7000E
:1018A4000030A6000030A5000030A400A617A70150
:1018B400632C0030A7000030A6000030A5000030E3
:1018C400A40023088039F3007308AC062308F3004E
:1018D4007307F4007408B400A21F712C722C732CCB
:1018E400341434080319772C782C882C340A031DFB
:1018F4007C2C7D2C852C0030A3000030A20000300D
:10190400A1000030A000A217A301902C0030A30076
:101914000030A2000030A1000030A00023082204FF
:1019240021042004031D972C982CB12C0030A7000F
:101934000030A6000030A5000030A4008030A604CA
:101944007F30A7042C08F3007308A7042708A3001A
:101954002608A2002508A1002408A000102E3308A0
:10196400031DB52CB62CBF2C0030A3000030A20000
:101974000030A1000030A000102E3308F300F40161
:101984007408F60034087302F500031CF6037508A6
:101994007F3EAD0076080318013E003EAE002708E6
:1019A400AB002608AA002508A9002408A8000030D6
:1019B400A7000030A6000030A5000030A4000030CD
:1019C400B2000030B1000030B0000030AF00B4010C
:1019D400352D34080319EF2CF02C102D0130F300B1
:1019E4000310A80DA90DAA0DAB0DF30BF22C0130B9
:1019F400F3000310A40DA50DA60DA70DF30BFB2CEE
:101A0400B21F052D062D072D24140130F3000310F9
:101A1400AF0DB00DB10DB20DF30B092D23082B0240
:101A2400031D1E2D22082A02031D1E2D2108290232
:101A3400031D1E2D20082802031C212D222D312DCB
:101A440032172008A8022108031C210FA90222082A
:101A5400031C220FAA022308031C230FAB0201302C
:101A6400F3007308B4071A303402031C3A2D3B2DDB
:101A7400EB2C2B082A04290428040319422D432D96
:101A8400622D2F14622D0130F3000310A40DA50D57
:101A9400A60DA70DF30B472DB21F512D522D532D1B
:101AA40024140130F3000310AF0DB00DB10DB20DCD
:101AB400F30B552DFF30AD070318AE0AFF30AE0708
:101AC400A61F652D662D452DB401B21F6A2D6B2D01
:101AD400872DFF302F05F300FF303005F400FF3071
:101AE4003105F5007F303205F6007608750474047C
:101AF400730403197E2D7F2D822DB401B40A872D22
:101B0400241C852D862D872D7F2D340803198B2DBC
:101B14008C2DBD2D0130A407003003180130A5071A
:101B2400003003180130A607003003180130A7075E
:101B3400271C9D2D9E2DBD2D2408F3002508F4009F
:101B44002608F5002708F6000130F700760DF60C9C
:101B5400F50CF40CF30CF70BA82D7608A700750808
:101B6400A6007408A5007308A4000130AD0703188B
:101B7400AE0A0030AE072E08803AFF0080307F02A4
:101B8400031DC62DFF302D02031CC92DCA2DD82DCF
:101B9400FF3083120313AD000030AE000030A70005
:101BA4000030A6000030A5000030A4008312031307
:101BB4002E08803AFF0080307F02031DE32D0130A0
:101BC4002D020318E62DE72DF42D83120313AD0126
:101BD400AE010030A7000030A6000030A5000030A0
:101BE400A400AC01831203132D08F3007308B3009F
:101BF400331CFD2DFE2D002EA617042E7F30F3007E
:101C04007308A6053308F3000310730CF40074087A
:101C1400A7002C08F3007308A704A82C080083125B
:101C24000313C800F30148080A168A1106270A128A
:101C34008A15831203134308A3004208A200410833
:101C4400A1004008A0000030A7000030A60000302A
:101C5400A5000030A4000A128A1590230A128A15DE
:101C64000318352E362E5F2EF301F30A2D300A1693
:101C74008A1106270A128A15BF3083120313A8009B
:101C84008030A7000030A6000030A5004308AC0057
:101C94004208AB004108AA004008A9000A128A11B0
:101CA40039200A128A15831203132808C30027084F
:101CB400C2002608C1002508C0008312031343088C
:101CC400A7004208A6004108A5004008A40042302D
:101CD400A300C830A2000030A1000030A0000A1206
:101CE4008A1534240A128A15831203132308B800B0
:101CF4002208B7002108B6002008B5000A128A1588
:101D04008D220A128A15831203133508C40044086D
:101D1400CB004B0803198F2E902E992EF301F30A52
:101D24004B08303E0A168A1106270A128A156430B7
:101D3400F5000030F600831203134B08C400C501FC
:101D44004408F3004508F4000A168A11DB260A1237
:101D54008A15730883120313A2007408A3000030C9
:101D6400A31BFF30A400A50001300A128A11EF263C
:101D74000A128A15831203132508B3002408B2003B
:101D84002308B1002208B0004308B7004208B60097
:101D94004108B5004008B4000A168A1165260A12E3
:101DA4008A15831203133308C3003208C2003108B2
:101DB400C1003008C0004308A7004208A60041083B
:101DC400A5004008A4004130A3002030A200003048
:101DD400A1000030A0000A128A1534240A128A15C0
:101DE400831203132308B8002208B7002108B600A1
:101DF4002008B5000A128A158D220A128A15831248
:101E040003133508C4004408CC004C0803190B2FF5
:101E14000C2F152FF301F30A4C08303E0A168A11D1
:101E240006270A128A150A30F5000030F6008312DC
:101E340003134C08C400C5014408F3004508F4002A
:101E44000A168A11DB260A128A15730883120313F1
:101E5400A2007408A3000030A31BFF30A400A50057
:101E640001300A128A11EF260A128A15831203130B
:101E74002508B3002408B2002308B1002208B000EA
:101E84004308B7004208B6004108B5004008B40052
:101E94000A168A1165260A128A1583120313330857
:101EA400C3003208C2003108C1003008C000430832
:101EB400A7004208A6004108A5004008A4003F303E
:101EC400A3008030A2000030A1000030A0000A125C
:101ED4008A1534240A128A15831203132308B800BE
:101EE4002208B7002108B6002008B5000A128A1596
:101EF4008D220A128A15831203133508C40044087C
:101F0400CA00F301F30A4A08303E0A168A1106276A
:101F14000A128A15831203134A08C400C501C601B4
:101F2400C7014708A5004608A4004508A3004408C3
:101F3400A20001300A128A11EF260A128A158312AE
:101F440003132508B3002408B2002308B1002208B3
:101F5400B0004308B7004208B6004108B500400885
:101F6400B4000A168A1165260A128A15831203130D
:101F74003308C3003208C2003108C1003008C00071
:101F84004308A7004208A6004108A5004008A40091
:101F94003D30A300CC30A200CC30A100CD30A00055
:101FA4000A128A1534240A128A1583120313230889
:101FB400B8002208B7002108B6002008B5000A12AC
:101FC4008A158D220A128A15831203133508C40058
:101FD4004408C900F301F30A2E300A168A110627B1
:101FE4000A128A15F301F30A831203134908303ED7
:0C1FF4000A168A1106270A128A15080036
:102C920064008001840A04060319003404064A2EE3
:102CA2003E343F341E345B34003400344834423402
:102CB200003400344834423400340034B0344134F7
:102CC2006C3423340C346334803083120313B30620
:102CD2003708A3003608A2003508A1003408A00076
:102CE2003308A7003208A6003108A5003008A40066
:102CF2000A128A119A230A168A11831203132308CD
:102D0200B3002208B2002108B1002008B000080078
:102D12000B1D8C2E8D2EAB2E83120313E11C922ED3
:102D2200932E992E0130DB070318DC0A0030DC07F2
:102D3200FB30F00070088B05063081000130D907A6
:102D42000318DA0A0030DA070130D7070318D80A65
:102D52000030D80772088A00710E8300FE0E7E0EC4
:102D6200090083120313A400A001A1017308F50056
:102D7200F6017508A2007608A300241CC12EC22EFB
:102D8200C82E2208A0070318A10A2308A1070130B0
:102D92000310A20DA30DFF3E031DC92E0310A40CA8
:102DA2002408031DD52ED62EBE2E2108F40020089D
:102DB200F300080083120313A001A101731CE22E89
:102DC200E32EEB2E750883120313A0070318A10A42
:102DD2007608A10701300310F50DF60DFF3E031D25
:102DE200EC2E01300310F40CF30CFF3E031DF32E06
:102DF20073087404031DFE2EFF2EDF2E83120313AD
:102E02002108F4002008F3000800F60083160313DB
:102E120088018901831203138914760888007308D4
:102E22000319142F152F172F09151B2FFB30F40030
:102E3200740889051030F5009430F400F40B1F2F4C
:102E4200F50B1F2F0000FD30F400740883120313EA
:102E520089051030F5009430F400F40B2E2FF50B99
:102E62002E2F000083120313891408008312031308
:102E720060080A128A112A260A168A117808831211
:102E820003135F060319462F472F5E2FF30101300C
:102E92000A168A1106270A168A117808A03E8400AB
:102EA200831300080A128A1554210A168A11780817
:102EB20083120313CD004D08DF0003307806031D93
:102EC200632F642F722F6908C3006808C200670865
:102ED200C1006608C000C6300A128A1511260A16F9
:102EE2008A11080083160313061587018312031340
:102EF20006197C2F7D2F8C2F5D080319812F822FBD
:102F02008C2FDD015E080319872F882F8A2FDE019F
:102F12008C2FDE01DE0A061D8F2F902FAB2F5D084E
:102F2200031D942F952FAB2F3430F400F130F300B2
:102F3200F30B992FF40B992F9E2F83120313061D67
:102F4200A32FA42FAB2F5D08031DA82FA92FAB2FF2
:102F5200DD01DD0A5E080319AF2FB02FB22F8714EF
:102F6200B62FFD30F3007308870508000A128A1590
:102F720082200A168A110A128A15B2210A168A11A9
:102F82006C300A128A1554210A168A110A128A15FD
:102F920019220A168A1183120313CE004E08E0008A
:102FA2000A128A15A2200A168A110A128A15FB2011
:102FB2000A168A110A168A1173270A168A11023012
:102FC2007806031DE52FE62FEB2F0A128A15092337
:102FD2000A168A1183120313611CF02FF12FC72FD7
:102FE2000A168A1137270A168A11FE308312031332
:0E2FF200CE004E08E105C72F0A128A110C28E6
:02400E00F23F7F
:00000001FF
