:060000000A128A110C280F
:10000800FE00030EF1000A08F2000A168A11282AD7
:100018000A128A110F288317CC30FD001A30FE000F
:100028002830FF00BE3084000A168A154A220A12B8
:100038008A118313EB30FD000730FE00F930FF0012
:10004800E43084000A168A154A220A128A11831794
:1000580090308400BE300A168A1520220A128A11AE
:100068008313D2308400E4300A168A1520220A123B
:100078008A11F801F901FA0183010A168A11A528E3
:100088008312031333088039B8003808BD003308D9
:10009800B8003807B9003908C300B21F54285528DA
:1000A80056284314430803195A285B286A28430A28
:1000B800031D5F28602868280030B3000030B200B4
:1000C8000030B1000030B000B21772280030B30021
:1000D8000030B2000030B1000030B000370880397D
:1000E800B8003808BD063708B8003807B90039081D
:1000F800C200B61F802881288228421442080319AA
:10010800862887289628420A031D8B288C2894283D
:100118000030B7000030B6000030B5000030B40041
:10012800B6179E280030B7000030B6000030B50082
:100138000030B40042080319A228A328A8284308BD
:10014800031DA728A828B1280030B3000030B2004A
:100158000030B1000030B000A42B3008B8003808D7
:10016800F30036080A168A15D3220A128A1174086F
:1001780083120313C9007308C8004808B800B901FE
:10018800BA01BB013B08C1003A08C0003908BF00EA
:100198003808BE004908B800B901BA01BB013B08DC
:1001A800C7003A08C6003908C5003808C400310835
:1001B800B8003808F30035080A168A15D3220A123F
:1001C8008A11740883120313C9007308C800480809
:1001D800B800B901BA01BB013808BE0739080311D4
:1001E8000318013E0319F928BF073A080311031839
:1001F800013E03190029C0073B0803110318013EFB
:1002080003190729C1074908B800B901BA01BB0198
:100218003808C407390803110318013E03191529C2
:10022800C5073A0803110318013E03191C29C6071C
:100238003B0803110318013E03192329C707320895
:10024800B8003808F30034080A168A15D3220A12AF
:100258008A11740883120313C9007308C800480878
:10026800B800B901BA01BB013808BE073908031143
:100278000318013E03194129BF073A08031103185F
:10028800013E03194829C0073B0803110318013E22
:1002980003194F29C1074908B800B901BA01BB01C0
:1002A8003808C407390803110318013E03195D29EA
:1002B800C5073A0803110318013E03196429C60744
:1002C8003B0803110318013E03196B29C7070830BF
:1002D800B8000310BE0DBF0DC00DC10DB80B6D29C0
:1002E8003108B8003808F30034080A168A15D322F2
:1002F8000A128A11740883120313C9007308C8000C
:100308004808B8004908B900BA01BB013808BE0757
:10031800390803110318013E03199329BF073A0846
:1003280003110318013E03199A29C0073B0803115A
:100338000318013E0319A129C1073008B80038087D
:10034800F30035080A168A15D3220A128A1174088E
:1003580083120313C9007308C8004808B800490885
:10036800B900BA01BB013808BE07390803110318E0
:10037800013E0319C029BF073A0803110318013EBB
:100388000319C729C0073B0803110318013E0319C5
:10039800CE29C1070830B8000310BE0DBF0DC00D2F
:1003A800C10DB80BD0293008B8003808F30034085C
:1003B8000A168A15D3220A128A11740883120313A3
:1003C800C9007308C8004808B8004908B900BA014C
:1003D800BB013808BE07390803110318013E031989
:1003E800F629BF073A0803110318013E0319FD292E
:1003F800C0073B0803110318013E0319042AC1076B
:100408003108B8003808F30036080A168A15D322CE
:100418000A128A11740883120313C9007308C800EA
:100428004808B8004908B900BA01BB013808C40730
:10043800390803110318013E0319232AC5073A088E
:1004480003110318013E03192A2AC6073B080311A2
:100458000318013E0319312AC7073208B8003808C3
:10046800F30035080A168A15D3220A128A1174086D
:1004780083120313C9007308C8004808B800490864
:10048800B900BA01BB013808C407390803110318B9
:10049800013E0319502AC5073A0803110318013E03
:1004A8000319572AC6073B0803110318013E03190D
:1004B8005E2AC7073208B8003808F30036080A165B
:1004C8008A15D3220A128A11740883120313C900E9
:1004D8007308C8004808B8004908B900BA01BB0148
:1004E80008300310B80DB90DBA0DBB0DFF3E031D42
:1004F800752A3808C407390803110318013E03197F
:10050800862AC5073A0803110318013E03198D2AE4
:10051800C6073B0803110318013E0319942AC707AD
:100528003E08B8003F08B9004008BA004108BB00BF
:1005380018300310BB0CBA0CB90CB80CFF3E031DE5
:100548009D2A3808C407390803110318013E031906
:10055800AE2AC5073A0803110318013E0319B52A44
:10056800C6073B0803110318013E0319BC2AC70735
:100578000830B8000310BE0DBF0DC00DC10DB80B7B
:10058800BE2A43084207B800B901B90D3808823EAF
:10059800C80039080318013EFF3EC900F02A01309F
:1005A800B8000310C40DC50DC60DC70DB80BD52A6C
:1005B800C11FDF2AE02AE12A44140130B8000310E1
:1005C800BE0DBF0DC00DC10DB80BE32AFF30C80723
:1005D8000318C90AFF30C907C61FF32AF42AD32A09
:1005E800C201C11FF82AF92A152BFF303E05B800B1
:1005F800FF303F05B900FF304005BA007F304105A4
:10060800BB003B083A043904380403190C2B0D2BA2
:10061800102BC201C20A152B441C132B142B152BAB
:100628000D2B42080319192B1A2B4B2B0130C40729
:10063800003003180130C507003003180130C60721
:10064800003003180130C707471C2B2B2C2B4B2BD2
:100658004408B8004508B9004608BA004708BB0076
:100668000130BC003B0DBB0CBA0CB90CB80CBC0B70
:10067800362B3B08C7003A08C6003908C5003808B9
:10068800C4000130C8070318C90A0030C90749085F
:10069800803AFF0080307F02031D542BFF30480250
:1006A800031C572B582B632B7F3083120313C7006F
:1006B8008030C6000030C5000030C400982B83127B
:1006C80003134908803AFF0080307F02031D6E2B18
:1006D800013048020318712B722B7E2B00308312D5
:1006E8000313C7000030C6000030C5000030C40046
:1006F800BD01982B831203134808B8003808C300BB
:10070800FF30C405FF30C5057F30C6050030C7057A
:10071800431C8F2B902B912BC6174308B80003104E
:10072800380CB9003908C7003D08B8003808C704B4
:100738004708B3004608B2004508B1004408B000B5
:100748000800FF3083160313C500450883160317F6
:10075800AB00AC01AC0AAD01AD0A83160313400827
:10076800A3003F08A2003E08A1003D08A0000030F9
:10077800A7000030A6000030A5000030A4000A162B
:100788008A11DF250A128A110318CB2BCC2BCC2C0B
:1007980083160313400883120313B7008316031349
:1007A8003F0883120313B600831603133E0883120F
:1007B8000313B500831603133D0883120313B40013
:1007C800BF30B3008030B2000030B1000030B0005C
:1007D8000A128A1144200A128A1183120313330859
:1007E800CD003208CC003108CB003008CA000A1608
:1007F8008A1584270A128A11831203134A08803E35
:1008080083160313C500450883160317AE003D3051
:1008180083160313AB00CC30AA00CC30A900CD302E
:10082800A800400883120313CD00831603133F0862
:1008380083120313CC00831603133E088312031399
:10084800CB00831603133D0883120313CA000A164C
:100858008A1584270A128A11831203134A08A200F0
:100868004B08A3000030A31BFF30A400A5000130F3
:100878000A168A115B230A128A11831203132508A8
:10088800D8002408D7002308D6002208D500BF3096
:10089800B3008030B2000030B1000030B0008316E1
:1008A8000313400883120313B700831603133F088A
:1008B80083120313B600831603133E08831203132F
:1008C800B500831603133D0883120313B4000A12FC
:1008D8008A1144200A128A11831203133308DC0098
:1008E8003208DB003108DA003008D9000A128A150C
:1008F80078250A128A1183120313580883160313E2
:10090800AF0083120313570883160313AE00831234
:100918000313560883160313AD00831203135508F7
:1009280083160313AC000A128A1590200A128A1142
:10093800831603132B08CC002A08CB002908CA0009
:100948002808C9004C0883120313CD00831603132B
:100958004B0883120313CC00831603134A0883122F
:100968000313CB0083160313490883120313CA0029
:100978000A168A1584270A128A11831203134A0851
:1009880083160313C500450883160317AF00A02D6F
:1009980083160313400883120313CD008316031331
:1009A8003F0883120313CC00831603133E088312F7
:1009B8000313CB00831603133D0883120313CA00E5
:1009C8000A168A1584270A128A11831203134A0801
:1009D80083160313C500450883160317AE00831654
:1009E80003134008A7003F08A6003E08A5003D08DD
:1009F800A400400883120313CD00831603133F0895
:100A080083120313CC00831603133E0883120313C7
:100A1800CB00831603133D0883120313CA000A167A
:100A28008A1584270A128A11831203134A08831627
:100A38000313C500C601C701C80148088312031380
:100A4800A50083160313470883120313A400831613
:100A58000313460883120313A300831603134508E0
:100A680083120313A20001300A168A115B230A12AB
:100A78008A1183120313250883160313A300831214
:100A88000313240883160313A200831203132308F5
:100A980083160313A100831203132208831603137A
:100AA800A0000A168A15DA240A128A11831603137B
:100AB8002308AF002208AE002108AD002008AC00D2
:100AC8003D30AB00CC30AA00CC30A900CD30A80016
:100AD8000A128A1590200A128A11831603132B080A
:100AE800D0002A08CF002908CE002808CD005008D9
:100AF80083120313CD00831603134F0883120313C5
:100B0800CC00831603134E0883120313CB008316FD
:100B180003134D0883120313CA000A168A15842783
:100B28000A128A11831203134A0883160313C50095
:100B3800450883160317AF0083160313440883126E
:100B48000313CD0083160313430883120313CC0049
:100B580083160313420883120313CB00831603136F
:100B6800410883120313CA000A168A1584270A1239
:100B78008A11831203134A0883160313C500450814
:100B880083160317B000831603134408A70043080D
:100B9800A6004208A5004108A400440883120313D4
:100BA800CD0083160313430883120313CC00831666
:100BB8000313420883120313CB008316031341085F
:100BC80083120313CA000A168A1584270A128A1187
:100BD800831203134A0883160313C500C601C7010D
:100BE800C801480883120313A50083160313470896
:100BF80083120313A40083160313460883120313F6
:100C0800A30083160313450883120313A2000130BF
:100C18000A168A115B230A128A1183120313250804
:100C280083160313A30083120313240883160313E4
:100C3800A20083120313230883160313A10083124F
:100C48000313220883160313A0000A168A15DA2450
:100C58000A128A11831603132308AF002208AE0074
:100C68002108AD002008AC003D30AB00CC30AA0014
:100C7800CC30A900CD30A8000A128A1590200A129B
:100C88008A11831603132B08D0002A08CF002908DD
:100C9800CE002808CD00500883120313CD00831618
:100CA80003134F0883120313CC00831603134E0853
:100CB80083120313CB00831603134D088312031307
:100CC800CA000A168A1584270A128A118312031386
:100CD8004A0883160313C500450883160317B10095
:100CE800FE3083160313C500450883160317B200A8
:100CF80008002330831603171106031D842E852E42
:100D0800AF2E40301206031D8A2E8B2EAF2E83166F
:100D18000313E3150030831603171A020A30031968
:100D28001902031C982E992E8E2E99019A01F730DC
:100D3800CC004C0883160313E305F301F30A403093
:100D48000A168A1595220A128A11B9300A168A15C6
:100D580088250A128A118316031711030319B52E61
:100D6800B62EB72EA52F1203031DBB2EBC2EF52EB3
:100D7800180883160313C000831603171708831671
:100D88000313BF0083160317160883160313BE0048
:100D980083160317150883160313BD00831603175C
:100DA800450883160313C4008316031744088316E3
:100DB8000313C30083160317430883160313C200E3
:100DC80083160317420883160313C1000A128A11F7
:100DD800A5230A128A11AB300A168A15B4260A12FC
:100DE8008A112030831603171206031DFC2EFD2ED0
:100DF800032F1308CC004C0883160313D6000430C5
:100E0800831603171206031D0A2F0B2F972F14089A
:100E1800CC00CD01CE01CF014F0883120313A500EA
:100E2800831603174E0883120313A40083160317AF
:100E38004D0883120313A300831603174C0883126B
:100E48000313A20001300A168A115B230A128A11C1
:100E5800831203132508B7002408B6002308B50039
:100E68002208B4003D30B300CC30B200CC30B10021
:100E7800CD30B0000A128A1144200A128A11831256
:100E880003133308D8003208D7003108D6003008D9
:100E9800D500831603171308D000D101D201D3015E
:100EA800530883120313A5008316031752088312ED
:100EB8000313A40083160317510883120313A30016
:100EC80083160317500883120313A20001300A1671
:100ED8008A115B230A128A11831203132508DC0086
:100EE8002408DB002308DA002208D9000A128A1530
:100EF80078250A128A1183120313580883160313DC
:100F0800E70083120313570883160313E6008312BE
:100F18000313560883160313E500831203135508B9
:100F280083160313E4001030831603171206031DFB
:100F38009E2F9F2FA52F1308CC004C088316031350
:100F4800D80008008316031356080319AC2FAD2FD9
:100F5800B22F8801FF30831203138800831603130E
:100F68005608031DB82FB92FBD2F8801831203130C
:100F7800880183160313E31CC22FC32FF82FFD30FB
:100F880083120313EE006E0883160313E305550A54
:100F9800031DCF2FD02FD12FD201FE305506031DB0
:100FA800D62FD72FDC2F0A128A117D260A128A1112
:100FB80005308316031352020318E32FE42FF82F8A
:100FC800550883120313EE00831603135208903E4C
:100FD8008400831203136E08831780000130EE002B
:100FE8006E0883160313D207080000340034B034A7
:080FF800413401340C34633470
:10100E008316031386158312031386190F281028CF
:10101E003328831603135908031916281728332863
:10102E00D901580803191C281D281F28D80121286A
:10103E00D801D80A580883120313A4002408F30019
:10104E0010300A168A1595220A128A15B9300A1618
:10105E008A1588250A128A1583120313861D3828CD
:10106E0039285A28831603135908031D3F28402890
:10107E005A281A3083120313A500F730A400A40BCC
:10108E004628A50B46284B2883120313861D50288D
:10109E0051285A28831603135908031D5728582818
:1010AE005A28D901D90A831603135708031D60283D
:1010BE00612876285808031965286628762819307D
:1010CE0083120313A4002408A00000300A168A110C
:1010DE0085200A128A1583160313D701D70A5708DB
:1010EE0003197A287B288F285808031D7F2880280B
:1010FE008F28193083120313A4002408A000013096
:10110E000A168A1185200A128A1583160313D7012F
:10111E000800831603132F08803983120313E90086
:10112E00690883160313B4002F0883120313E90012
:10113E006907EA006A0883160313BB00AE1FA828CE
:10114E00A928AA283B143B080319AE28AF28BF28AC
:10115E003B0A031DB328B428BC280030AF00003072
:10116E00AE000030AD000030AC00AE17AF01C728A6
:10117E000030AF000030AE000030AD000030AC00EB
:10118E002B08803983120313E900690883160313B1
:10119E00B4062B0883120313E9006907EA006A08F4
:1011AE0083160313BC00AA1FDD28DE28DF283C149B
:1011BE003C080319E328E428F4283C0A031DE82818
:1011CE00E928F1280030AB000030AA000030A90059
:1011DE000030A800AA17AB01FC280030AB0000308D
:1011EE00AA000030A9000030A8002B082A04290408
:1011FE002804031D0329042921290030AF000030E3
:10120E00AE000030AD000030AC008030AE047F3058
:10121E00AF04340883120313E9006908831603131D
:10122E00AF042F08AB002E08AA002D08A9002C0829
:10123E00A800F22A3B08031D252926292F29003054
:10124E00AB000030AA000030A9000030A800F22A3E
:10125E003B0883120313E900EA016A08EC008316C7
:10126E0003133C08831203136902EB00031CEC0307
:10127E006B087F3E83160313B500831203136C08AD
:10128E000318013E003E83160313B6002F08B30069
:10129E002E08B2002D08B1002C08B0000030AF00AF
:1012AE000030AE000030AD000030AC000030BA00AF
:1012BE000030B9000030B8000030B700BC01C929B9
:1012CE003C0803196B296C299E29013083120313E4
:1012DE00E900031083160313B00DB10DB20DB30D5B
:1012EE0083120313E90B70290130E90003108316F2
:1012FE000313AC0DAD0DAE0DAF0D83120313E90B41
:10130E007D2983160313BA1F8D298E298F292C143C
:10131E00013083120313E900031083160313B70D74
:10132E00B80DB90DBA0D83120313E90B9329831669
:10133E0003132B083302031DAE292A083202031DA4
:10134E00AE2929083102031DAE2928083002031CDC
:10135E00B129B229C1293A172808B0022908031C5D
:10136E00290FB1022A08031C2A0FB2022B08031CF4
:10137E002B0FB302013083120313E90069088316A1
:10138E000313BC071A303C02031CCE29CF29672950
:10139E0033083204310430040319D629D729062A1A
:1013AE003714062A013083120313E9000310831643
:1013BE000313AC0DAD0DAE0DAF0D83120313E90B80
:1013CE00DD2983160313BA1FED29EE29EF292C14FC
:1013DE00013083120313E900031083160313B70DB4
:1013EE00B80DB90DBA0D83120313E90BF329FF30B3
:1013FE0083160313B5070318B60AFF30B607AE1FE0
:10140E00092A0A2AD929BC01BA1F0E2A0F2A3D2AF7
:10141E00FF30370583120313E900FF3083160313E1
:10142E00380583120313EA00FF30831603133905C0
:10143E0083120313EB007F30831603133A058312D6
:10144E000313EC006C086B046A0469040319302A58
:10145E00312A362A83160313BC01BC0A3D2A831691
:10146E0003132C1C3B2A3C2A3D2A312A3C08031923
:10147E00412A422A8F2A0130AC070030031801306E
:10148E00AD07003003180130AE07003003180130ED
:10149E00AF072F1C532A542A8F2A2C0883120313AA
:1014AE00E900831603132D0883120313EA00831633
:1014BE0003132E0883120313EB00831603132F0856
:1014CE0083120313EC000130ED006C0DEC0CEB0CF1
:1014DE00EA0CE90CED0B6C2A6C0883160313AF00B3
:1014EE00831203136B0883160313AE0083120313C8
:1014FE006A0883160313AD0083120313690883165B
:10150E000313AC000130B5070318B60A0030B60756
:10151E003608803AFF0080307F02031D982AFF3084
:10152E003502031C9B2A9C2AAA2AFF30831603131A
:10153E00B5000030B6000030AF000030AE00003015
:10154E00AD000030AC00831603133608803AFF005E
:10155E0080307F02031DB52A013035020318B82AE8
:10156E00B92AC62A83160313B501B6010030AF009F
:10157E000030AE000030AD000030AC00B401831678
:10158E000313350883120313E90069088316031346
:10159E00BB003B1CD32AD42AD62AAE17DE2A7F30B4
:1015AE0083120313E900690883160313AE053B0883
:1015BE0083120313E9000310690CEA006A0883160C
:1015CE000313AF00340883120313E900690883166E
:1015DE000313AF041829080083160313C500F30183
:1015EE0045080A168A1527230A128A15831603132D
:1015FE004008A3003F08A2003E08A1003D08A0003D
:10160E000030A7000030A6000030A5000030A40076
:10161E000A168A11DF250A128A150318172B182BA2
:10162E005F2BF301F30A2D300A168A1527230A12AF
:10163E008A15BF3083120313B3008030B20000301E
:10164E00B1000030B0008316031340088312031359
:10165E00B700831603133F0883120313B6008316D5
:10166E0003133E0883120313B500831603133D08BC
:10167E0083120313B4000A128A1144200A128A1527
:10168E0083120313330883160313C000831203134C
:10169E00320883160313BF00831203133108831617
:1016AE000313BE0083120313300883160313BD0009
:1016BE00831603134008AF003F08AE003E08AD008E
:1016CE003D08AC004230AB00C830AA000030A90083
:1016DE000030A8000A128A1590200A128A15831665
:1016EE0003132B0883120313CD00831603132A084A
:1016FE0083120313CC0083160313290883120313DA
:10170E00CB0083160313280883120313CA000A168C
:10171E008A1584270A128A15831203134A08831620
:10172E000313C1004108C800480803199F2BA02BC2
:10173E00A92BF301F30A4808303E0A168A1527230F
:10174E000A128A156430F5000030F6008316031372
:10175E004808C100C2014108F3004208F4000A160D
:10176E008A15FC220A128A15730883120313A2002B
:10177E007408A3000030A31BFF30A400A5000130A5
:10178E000A168A115B230A128A158312031325087F
:10179E0083160313A3008312031324088316031363
:1017AE00A20083120313230883160313A1008312CE
:1017BE000313220883160313A0004008A7003F0856
:1017CE00A6003E08A5003D08A4000A168A15DA24D4
:1017DE000A128A15831603132308C0002208BF00BD
:1017EE002108BE002008BD004008AF003F08AE0033
:1017FE003E08AD003D08AC004130AB002030AA00E1
:10180E000030A9000030A8000A128A1590200A1292
:10181E008A15831603132B0883120313CD00831628
:10182E0003132A0883120313CC008316031329080B
:10183E0083120313CB00831603132808831203139A
:10184E00CA000A168A1584270A128A1583120313F0
:10185E004A0883160313C1004108C9004908031939
:10186E00392C3A2C432CF301F30A4908303E0A1660
:10187E008A1527230A128A150A30F5000030F60061
:10188E00831603134908C100C2014108F300420840
:10189E00F4000A168A15FC220A128A15730883129E
:1018AE000313A2007408A3000030A31BFF30A40092
:1018BE00A50001300A168A115B230A128A158312BB
:1018CE000313250883160313A3008312031324089E
:1018DE0083160313A2008312031323088316031324
:1018EE00A10083120313220883160313A0004008DD
:1018FE00A7003F08A6003E08A5003D08A4000A1652
:10190E008A15DA240A128A15831603132308C000D7
:10191E002208BF002108BE002008BD004008AF000D
:10192E003F08AE003E08AD003D08AC003F30AB00B6
:10193E008030AA000030A9000030A8000A128A15D3
:10194E0090200A128A15831603132B088312031391
:10195E00CD00831603132A0883120313CC008316BB
:10196E000313290883120313CB00831603132808CD
:10197E0083120313CA000A168A1584270A128A15BF
:10198E00831203134A0883160313C1004108C700CC
:10199E00F301F30A4708303E0A168A1527230A1266
:1019AE008A15831603134708C100C201C301C4017F
:1019BE00440883120313A5008316031343088312EE
:1019CE000313A40083160313420883120313A30008
:1019DE0083160313410883120313A20001300A1663
:1019EE008A115B230A128A158312031325088316A4
:1019FE000313A30083120313240883160313A200F8
:101A0E0083120313230883160313A10083120313F7
:101A1E00220883160313A0004008A7003F08A60063
:101A2E003E08A5003D08A4000A168A15DA240A12FB
:101A3E008A15831603132308C0002208BF0021084D
:101A4E00BE002008BD004008AF003F08AE003E08B3
:101A5E00AD003D08AC003D30AB00CC30AA00CC3020
:101A6E00A900CD30A8000A128A1590200A128A15F4
:101A7E00831603132B0883120313CD00831603134F
:101A8E002A0883120313CC0083160313290883122A
:101A9E000313CB0083160313280883120313CA0003
:101AAE000A168A1584270A128A15831203134A0806
:101ABE0083160313C1004108C600F301F30A2E304A
:101ACE000A168A1527230A128A15F301F30A8316BA
:101ADE0003134608303E0A168A1527230A128A1562
:101AEE0008008312031358088039DD005D08E500F5
:101AFE005808DD005D07DE005E08E700D71F882D61
:101B0E00892D8A2D6714670803198E2D8F2D9F2D11
:101B1E00670A031D932D942D9C2D0030D8000030A4
:101B2E00D7000030D6000030D500D717D801A72D2A
:101B3E000030D8000030D7000030D6000030D5007D
:101B4E005C088039DD005D08E6006608650603194D
:101B5E00B12DB22DB32D65175C08DD005D07DE00DB
:101B6E005E08E600DB1FBC2DBD2DBE2D661466087B
:101B7E000319C22DC32DD32D660A031DC72DC82DE3
:101B8E00D02D0030DC000030DB000030DA000030F9
:101B9E00D900DB17DC01DB2D0030DC000030DB0070
:101BAE000030DA000030D900670866020318E02D15
:101BBE00E12D252E651FE42DE52DE92D8030DD006C
:101BCE005D08E5066708DD005D08E8006608DD00D3
:101BDE005D08E7006808DD005D08E6005508DD00D9
:101BEE005D08E8005908DD005D08D5006808DD00D5
:101BFE005D08D9005608DD005D08E8005A08DD00D2
:101C0E005D08D6006808DD005D08DA005708DD00C3
:101C1E005D08E8005B08DD005D08D7006808DD00A0
:101C2E005D08DB005808DD005D08E8005C08DD009B
:101C3E005D08D8006808DD005D08DC00E801660874
:101C4E00DD00DE015E08E00067085D02DF00031CB8
:101C5E00E0036008803AFF0080307F02031D392EBA
:101C6E001A305F02031C3C2E3D2E7A2E8312031374
:101C7E005808570456045504031D462E482E0130AD
:101C8E00492E0030DD005D08E8000030D80000303D
:101C9E00D7000030D6000030D5006608DD005D08A4
:101CAE00E700822E681C5C2E5D2E662E6808DD0015
:101CBE0003105D0C0138DE005E08E800682E03108C
:101CCE00E80C551C6B2E6C2E6D2EE8170130DD00C6
:101CDE00580DD80CD70CD60CD50CDD0B6F2E013051
:101CEE00DD005D08E7078312031366086702031C15
:101CFE00812E822E592E651B852E862ED12E67089B
:101D0E00031D8A2E8B2E942E0030D8000030D70063
:101D1E000030D6000030D500FF2F5908D5075A08DD
:101D2E0003110318013E03199D2ED6075B080311FC
:101D3E000318013E0319A42ED7075C0803110318DC
:101D4E00013E0319AB2ED807581CAE2EAF2E852F91
:101D5E00681CB22EB32EBC2E6808DD0003105D0C7D
:101D6E000138DE005E08E800BE2E0310E80C551C9C
:101D7E00C12EC22EC32EE8170130DD00580DD80C2F
:101D8E00D70CD60CD50CDD0BC52E0130DD005D0851
:101D9E00E707852F5808803AFF005C08803A7F02DB
:101DAE00031DE32E5B085702031DE32E5A0856024D
:101DBE00031DE32E590855020318E62EE72E3F2F7A
:101DCE00FF30DD00FF30DE00FF30DF00FF30E000CF
:101DDE005908E1005A08E2005B08E3005C08E400E1
:101DEE005508E1025608031C560FFE2EFF2EE20286
:101DFE005708031C570F042F052FE3025808031C26
:101E0E00580F0A2F0B2FE4026108DD076208031832
:101E1E00620F122F132FDE0763080318630F182F9C
:101E2E00192FDF0764080318640AE0076008D8005A
:101E3E005F08D7005E08D6005D08D5008030DD0053
:101E4E005D08E506E809E80A6808031D2F2F302F04
:101E5E004D2F0130D507003003180130D607003062
:101E6E0003180130D707003003180130D8074D2F63
:101E7E005908D5025A08031C5A0FD6025B08031CD8
:101E8E005B0FD7025C08031C5C0FD802580857047E
:101E9E0056045504031D542F552F812F6808031D1A
:101EAE00592F5A2F812F0030D8000030D700003024
:101EBE00D6000030D500FF2F0130DD000310D50D08
:101ECE00D60DD70DD80DDD0B652FE81F6F2F702F98
:101EDE00712F5514681C742F752F782F0314E80D6D
:101EEE007A2F0310E80D670803197E2F7F2F812F9D
:101EFE000130E702D71F842F852F632FE601E81FDD
:101F0E00892F8A2F982F68087F3903198F2F902FCA
:101F1E00932FE601E60A982F551C962F972F982F90
:101F2E00902F660803199C2F9D2FD12F0130D507B6
:101F3E00003003180130D607003003180130D707E0
:101F4E00003003180130D807581CAE2FAF2FD12FF9
:101F5E005508DD005608DE005708DF005808E0007F
:101F6E000130E100600DE00CDF0CDE0CDD0CE10B4E
:101F7E00B92F6008D8005F08D7005E08D6005D084C
:101F8E00D500670A0319CC2FCD2FD12F0130DD00DC
:101F9E005D08E707670A0319D52FD62FDB2F6708D1
:101FAE00031DDA2FDB2FE92F0030D8000030D700C9
:101FBE000030D6000030D5006708031DE72FE82F4C
:101FCE00E92FE501671CEC2FED2FEF2FD717F32F1D
:101FDE007F30DD005D08D7056708DD0003105D0C5E
:101FEE00DE005E08D800E51FFD2FFE2FFF2FD8174D
:101FFE00080010308A000408840A82070034013475
:10200E00043407342A3402340534083400340334DB
:10201E000634093423349034C03460343034903470
:10202E0030346034C03490343034083404340234E4
:10203E000134FE34FD34FB34543465346D34703465
:10204E0020342034203420343A34203420342034C8
:10205E002034203420342034483475346D346934BF
:10206E0064346934743479343A342034203420346E
:10207E002034203420342534003420342034573496
:10208E0065346C3463346F346D34653420345434B9
:10209E006F34203420342034203420342034203443
:1020AE00203443346F346134633468342034313433
:1020BE0000345334653474342034543465346D3400
:1020CE0070346534723461347434753472346534FA
:1020DE003A340034533479347334743465346D3493
:1020EE00203453347434613472347434653464344B
:0220FE000034AC
:10210A0083120313A2000F30A100210883160313C0
:10211A00880583120313A3019E2822080A168A152A
:10212A0090240A168A11013083120313A100210890
:10213A00A30720082302031CA328A4289228080026
:10214A000A168A1559220A168A110A168A15EC25C0
:10215A000A168A110A168A1536220A168A110030B8
:10216A0083120313B1000030B0002530AF00803075
:10217A00AE000A168A1504240A168A116C300A1649
:10218A008A152A250A168A110A168A1121210A167F
:10219A008A1183160313D1005108DD000A168A1129
:1021AA00A3210A168A110A168A1547240A168A11C1
:1021BA000A168A1518270A168A110A128A1507207A
:1021CA000A168A110A168A1117240A168A11831600
:1021DA0003135F080A168A1581220A168A118316C2
:1021EA0003135E080A168A156D220A168A110A1244
:1021FA008A11A6270A168A1102307906031D0629B2
:10220A0007290C290A168A15C7230A168A11831662
:10221A000313621C11291229C9280A168A158B234D
:10222A000A168A11FE3083160313D1005108E205FB
:10223A00C9280A128A110C28F830F3007308831689
:10224A00031386050F30F30073088804E101073091
:10225A00F3007308831203138604831603136108B9
:10226A001B3E84000A168A1100200A168A11F300FE
:10227A0073088312031386050930F300F30B43290D
:10228A00462983160313E0016008173E84000A16E4
:10229A008A1100200A168A11831203130805031DE6
:1022AA0057295829842983160313E214831603171E
:1022BA002A08803AFF0080307F02031D66290B300E
:1022CA002902031C69296A298429831603136108D0
:1022DA00F30002300310F30DFF3E031D6F2960085F
:1022EA007307F4007408EA00FD30F3007308E2058E
:1022FA0083160317A901AA01831603136214013076
:10230A00F300730883160313E00704306002031C0A
:10231A008F29902949290130F3007308E107033016
:10232A006102031C99299A292C296A08013E840012
:10233A000A168A1100200A168A1108008316031742
:10234A002008803AFF0081307F02031DAE29F53054
:10235A001F02031CB129B229272A8316031745082D
:10236A0083160313A3008316031744088316031363
:10237A00A20083160317430883160313A1008316CA
:10238A000317420883160313A0004230A700C8307F
:10239A00A6000030A5000030A4000A168A11DF2525
:1023AA000A168A11031CDA29DB29E629003083166A
:1023BA000317C5000030C4000030C3000030C2005B
:1023CA00252A3D3083120313D800CC30D700CC30F5
:1023DA00D600CD30D50083160317450883120313A0
:1023EA00DC0083160317440883120313DB008316E9
:1023FA000317430883120313DA00831603174208EC
:10240A0083120313D9000A128A1578250A168A112B
:10241A0083120313580883160317C5008312031384
:10242A00570883160317C40083120313560883162A
:10243A000317C30083120313550883160317C20038
:10244A009F01A0010800831203138C1E2D2A2E2A35
:10245A003D2A83160313E318332A342A3D2A8312AA
:10246A0003131A08F000700883160313D500E31447
:10247A0083120C1E412A422A5C2A00308316031753
:10248A001E02063003191D02031C4C2A4D2A5C2A1F
:10249A00831203131A08F000700883160313D4007A
:1024AA005408530603195A2A5B2A5C2AE8010B1DB1
:1024BA005F2A602AB72A83160313E31C652A662A51
:1024CA006E2A0130831603179D0703189E0A0030EF
:1024DA009E070313631D722A732A7B2A013083160F
:1024EA0003179B0703189C0A00309C070313E31D7C
:1024FA007F2A802A882A013083160317990703182E
:10250A009A0A00309A070313E21C8C2A8D2A952A0C
:10251A00013083160317A9070318AA0A0030AA076D
:10252A0003135C0A031D9A2A9B2A9D2ADC01A12A0D
:10253A000130F0007008DC07FB30F00070088B05F2
:10254A00B230831203138100013083160317A107E7
:10255A000318A20A0030A20701309F070318A00A35
:10256A000030A00772088A00710E8300FE0E7E0EEC
:10257A00090083120313A901A31FC42AC52AD22A58
:10258A00A009A109A209A309A00A0319A10A03190A
:10259A00A20A0319A30AA901A90AA71FD52AD62A9A
:1025AA00E52AA409A509A609A709A40A0319A50ADF
:1025BA000319A60A0319A70A0130F3007308A9062A
:1025CA000030AD000030AC000030AB000030AA0093
:1025DA0023082204210420040319F42AF52A422B91
:1025EA00A801A80A052B0130F3000310A00DA10DC4
:1025FA00A20DA30DF30BFA2A0130F3007308A80702
:10260A00A31F082B092BF82A0130F3000310AA0D87
:10261A00AB0DAC0DAD0DF30B0B2B23082702031DDD
:10262A00202B22082602031D202B21082502031D28
:10263A00202B20082402031C232B242B332B2008B5
:10264A00A4022108031C210FA5022208031C220F41
:10265A00A6022308031C230FA7022A140130031021
:10266A00A30CA20CA10CA00CFF3E031D342B0130BD
:10267A00A802031D412B422B092B29080319462BBB
:10268A00472B522BAA09AB09AC09AD09AA0A0319AF
:10269A00AB0A0319AC0A0319AD0A2D08A3002C08CA
:1026AA00A2002B08A1002A08A00008008312031325
:1026BA00AA002A080319622B632B772BA51F662B06
:1026CA00672B772B2209AC002309AD002409AE0041
:1026DA002509AF00AC0A0319AD0A0319AE0A03199A
:1026EA00AF0A7F2B2508AF002408AE002308AD00EF
:1026FA002208AC002508240423042204031D862B87
:10270A00872B902B0030A5000030A4000030A300D6
:10271A000030A200162C9630A6002608AB00A22B89
:10272A000130A6002608AB0701300310AF0CAE0C2F
:10273A00AD0CAC0CFF3E031D9A2BFE302F05031D7A
:10274A00A72BA82B952BC42B0130A6002608AB0774
:10275A000130AC07003003180130AD070030031810
:10276A000130AE07003003180130AF070130031003
:10277A00AF0CAE0CAD0CAC0CFF3E031DBC2BFF30F6
:10278A002F05031DC92BCA2BA92BD62B0130AB024F
:10279A000130A6000310AC0DAD0DAE0DAF0DA60BAA
:1027AA00CF2BAE1BD92BDA2BE02B02302B020318CE
:1027BA00DF2BE02BCB2B2B18E32BE42BEC2BFF305E
:1027CA00AC05FF30AD057F30AE05FF30AF05031015
:1027DA00AB0C2B08A600A701A801A9011830031009
:1027EA00A60DA70DA80DA90DFF3E031DF42B260863
:1027FA00AC042708AD042808AE042908AF042A0847
:10280A000319082C092C0E2CA51F0C2C0D2C0E2C90
:10281A00AF172F08A5002E08A4002D08A3002C0826
:10282A00A200080083160317180883160313A300CF
:10283A0083160317170883160313A20083160317B8
:10284A00160883160313A1008316031715088316A7
:10285A000313A000BF3083120313D8000030D7003F
:10286A000030D6000030D5008316031367088312A0
:10287A000313DC0083160313660883120313DB00B9
:10288A0083160313650883120313DA0083160313EE
:10289A00640883120313D9000A128A1578250A16C6
:1028AA008A1183120313580883160313A70083128D
:1028BA000313570883160313A6008312031356083B
:1028CA0083160313A50083120313550883160313F3
:1028DA00A4000A168A11DF250A168A110318762C13
:1028EA00772C812CC83083120313ED006D088316F0
:1028FA000313DF00DE01EF2C3F3083120313D800ED
:10290A000030D7000030D6000030D50083160313FC
:10291A00670883120313DC00831603136608831205
:10292A000313DB0083160313650883120313DA000B
:10293A0083160313640883120313D9000A128A1533
:10294A0078250A168A11831203135808831603136B
:10295A00A30083120313570883160313A2008312DA
:10296A000313560883160313A10083120313550891
:10297A0083160313A000831603171808831603137C
:10298A00A70083160317170883160313A6008316D6
:10299A000317160883160313A500831603171508D1
:1029AA0083160313A4000A168A11DF250A168A1150
:1029BA000318E02CE12CEB2CC83083120313ED0032
:1029CA006D0883160313DE00DF01EF2C8316031351
:1029DA00DF01DE010800FF3083160313C10041083E
:1029EA0083160317B300B401B40A04308316031321
:1029FA00C100410883160317B50083160313400864
:102A0A0083120313CD00831603133F0883120313A3
:102A1A00CC00831603133E0883120313CB008316DC
:102A2A0003133D0883120313CA000A168A15842762
:102A3A000A168A11831203134A0883160313C10064
:102A4A00410883160317B600831603134008A7002C
:102A5A003F08A6003E08A5003D08A40040088312CE
:102A6A000313CD00831603133F0883120313CC000C
:102A7A00831603133E0883120313CB008316031332
:102A8A003D0883120313CA000A168A1584270A16F8
:102A9A008A11831203134A0883160313C100C20161
:102AAA00C301C401440883120313A5008316031348
:102ABA00430883120313A4008316031342088312E4
:102ACA000313A30083160313410883120313A200FE
:102ADA0001300A168A115B230A168A11831203131C
:102AEA00250883160313A3008312031324088316ED
:102AFA000313A20083120313230883160313A100EE
:102B0A0083120313220883160313A0000A168A15D8
:102B1A00DA240A168A11831603132308AF0022083F
:102B2A00AE002108AD002008AC003D30AB00CC302F
:102B3A00AA00CC30A900CD30A8000A128A1590202C
:102B4A000A168A11831603132B08C8002A08C7001D
:102B5A002908C6002808C500480883120313CD00B7
:102B6A0083160313470883120313CC008316031337
:102B7A00460883120313CB008316031345088312F6
:102B8A000313CA000A168A1584270A168A118312A1
:102B9A0003134A0883160313C10041088316031757
:102BAA00B700FE3083160313C100410883160317CA
:102BBA00B80008000030831603132005831203139C
:102BCA00E900003083160313210583120313EA0078
:102BDA00803083160313220583120313EB007F3020
:102BEA0083160313230583120313EC006C086B048A
:102BFA006A046904031D022E032E0D2E003083166B
:102C0A000313A3000030A2000030A1000030A0008E
:102C1A00003083160313240583120313E9000030DE
:102C2A0083160313250583120313EA0080308316E3
:102C3A000313260583120313EB007F308316031355
:102C4A00270583120313EC006C086B046A046904F9
:102C5A00031D302E312E3B2E003083160313A7009E
:102C6A000030A6000030A5000030A400831603132C
:102C7A00A31F402E412E892E003083120313E90030
:102C8A000030EA000030EB008030EC0083160313BA
:102C9A00200883120313E902831603132108031C75
:102CAA00210F582E5B2E83120313EA028316031395
:102CBA002208031C220F622E652E83120313EB02D5
:102CCA00831603132308031C230F6C2E6F2E831203
:102CDA000313EC0283160313831203136C0883167F
:102CEA000313A300831203136B0883160313A200B2
:102CFA00831203136A0883160313A10083120313B2
:102D0A00690883160313A000A71F8C2E8D2ED52EBB
:102D1A00003083120313E9000030EA000030EB00B0
:102D2A008030EC0083160313240883120313E9028C
:102D3A00831603132508031C250FA42EA72E83121E
:102D4A000313EA02831603132608031C260FAE2E6A
:102D5A00B12E83120313EB02831603132708031CF5
:102D6A00270FB82EBB2E83120313EC02831603130C
:102D7A00831203136C0883160313A7008312031329
:102D8A006B0883160313A600831203136A088316BB
:102D9A000313A50083120313690883160313A400FF
:102DAA008030A3068030A70627082302031DE72EDA
:102DBA0026082202031DE72E25082102031DE72EFD
:102DCA00240820020318EA2EEB2EED2E0310EE2E15
:102DDA000314080083120313EF0006306F06031D65
:102DEA00F72EF82EFC2E0130EE006E08F90704309B
:102DFA006F06031D012F022F042F0130F902023042
:102E0A006F06031D092F0A2F602F03307906031D51
:102E1A000F2F102F602F3D30D800CC30D700CC3088
:102E2A00D600CD30D5008316031367088312031327
:102E3A00DC0083160313660883120313DB00831670
:102E4A000313650883120313DA0083160313640855
:102E5A0083120313D9000A128A1578250A168A11D1
:102E6A0083120313580883160313E700831203130C
:102E7A00570883160313E6008312031356088316B2
:102E8A000313E50083120313550883160313E400A2
:102E9A006708C0006608BF006508BE006408BD0078
:102EAA000A168A11F0240A168A11B3300A168A15EC
:102EBA0050260A168A110830831203136F06031D5F
:102ECA00672F682FA22F03307906031D6D2F6E2FEF
:102EDA00A22F3D3083160313A300CC30A200CC30BE
:102EEA00A100CD30A0006708A7006608A600650803
:102EFA00A5006408A4000A168A15DA240A168A119B
:102F0A00831603132308E7002208E6002108E500D8
:102F1A002008E4006708C0006608BF006508BE0014
:102F2A006408BD000A168A11F0240A168A11B33001
:102F3A000A168A1550260A168A1104307902031CC9
:102F4A00A72FA82FAA2FF901F90A7908031DAE2F76
:102F5A00AF2FB52F033083120313EE006E08F9006A
:102F6A00423083160313A3000C30A2000030A100E4
:102F7A000030A0006708A7006608A6006508A5003B
:102F8A006408A4000A168A11DF250A168A11031892
:102F9A00CF2FD02FDA2F423083160313E7000C30DD
:102FAA00E6000030E5000030E400831603136708EA
:102FBA00A3006608A2006508A1006408A0004130C9
:102FCA00A7004030A6000030A5000030A4000A1671
:102FDA008A11DF250A168A110318F42FF52FFF2FFD
:102FEA00413083160313E7004030E6000030E50065
:062FFA000030E4000800B5
:1034400064008001840A0406031900340406212A5A
:103450003E343F341E345B3400340034483442344C
:103460000034003400343F346C34233483160313A7
:1034700005150130831203139F0080308316031358
:103480009F000D30F300F30B432A08007E088A00EA
:103490007F0882000A168A1546220A168A158000BD
:1034A000840A04087D0603190034FF0A0319FE0A82
:1034B0004A2A8316031389018801831203138801A2
:1034C000A030F30073088B040230831603138100CD
:1034D00006308312031381000800F4007408831679
:1034E00003135C020318752A762A7A2A83120313BF
:1034F0000715802AFB30F300730883120313870536
:103500000800F4007408831603135C020318892A68
:103510008A2A8E2A831203138716942ADF30F30037
:1035200073088312031387050800F500FF30F400C9
:10353000740883160317B900BA01BA0A7508F400B3
:103540007408BB007308F4007408BC00FE30F4007B
:103550007408BD000800F700C730F5007508831235
:1035600003139F0577080739F50002300310F50DA6
:10357000FF3E031DB62A0310750DF60076089F0462
:103580000630F500F50BC22A0000831203131F1545
:103590001F19CB2ACC2AC82A1E08F400831603134D
:1035A0001E08F300080083120313A400A001A10168
:1035B0007308F500F6017508A2007608A300241C24
:1035C000E22AE32AE92A2208A0070318A10A23080D
:1035D000A10701300310A20DA30DFF3E031DEA2A2F
:1035E0000310A40C2408031DF62AF72ADF2A210859
:1035F000F4002008F300080083120313A001A101C6
:10360000731C032B042B0C2B750883120313A007C8
:103610000318A10A7608A10701300310F50DF60D75
:10362000FF3E031D0D2B01300310F40CF30CFF3E85
:10363000031D142B73087404031D1F2B202B002B58
:10364000831203132108F4002008F3000800F60099
:1036500083160313880189018312031389147608E2
:10366000880073080319352B362B382B09153C2B92
:10367000FB30F400740889050830F500C930F40007
:10368000F40B402BF50B402B452BFD30F400740858
:103690008312031389050830F500C930F400F40BD8
:1036A0004F2BF50B4F2B542B831203138914080057
:1036B000F4007408F300730883160313D300831611
:1036C00003179D019E0101308312031389000C1E14
:1036D0006A2B6B2B672B83160313E3147408831276
:1036E000031399000030831603171E0207300319D5
:1036F0001D02031C7C2B7D2B722BFD30F300730805
:1037000083160313E305831603179D019E0183129D
:10371000031389010800831603135D080A168A1132
:10372000EF260A168A157908831603135B06031918
:103730009A2B9B2BB22BF30101300A168A152723F3
:103740000A168A157908BE3E8400831700080A16F7
:103750008A152A250A168A15790883160313CA00C2
:103760004A08DB0003307906031DB72BB82BC62BA4
:103770006708C0006608BF006508BE006408BD0099
:10378000C6300A128A15F3220A168A150800831613
:103790000317450883160313C00083160317440854
:1037A00083160313BF0083160317430883160313FE
:1037B000BE0083160317420883160313BD00CA30E8
:1037C0000A128A15F3220A168A1583160317180897
:1037D00083160313C00083160317170883160313F9
:1037E000BF0083160317160883160313BE00831643
:1037F0000317150883160313BD008A300A128A15B1
:10380000F3220A168A150800831203132E08F40007
:103810002F08F5003008F6003108F70004300310D7
:10382000F40DF50DF60DF70DFF3E031D0F2C770877
:10383000A3007608A2007508A1007408A00000305B
:10384000A7007A30A6001230A5000030A4000A16A6
:103850008A11BE220A168A15831203132008FF3E1E
:103860008316031399008030870020309800903031
:10387000831203139800C030F40074088B042230C4
:10388000F4007408831603138C04E30108003E302F
:1038900083120313B300FA30B2005E30B10035304A
:1038A000B00002300A168A15AB220A168A15730870
:1038B00083120313A2007408A3000030A31BFF307F
:1038C000A400A50001300A168A115B230A168A1586
:1038D000831203132508B7002408B6002308B50097
:1038E0002208B4000A128A1144200A168A1583128B
:1038F0000313330883160317980083120313320847
:1039000083160317970083120313310883160317D6
:1039100096008312031330088316031795000800DE
:10392000F5007508031D952C962CB52CF60176082C
:10393000123E84000A168A1100200A168A15831284
:10394000031388001A30F400F830F300F30BA62CB0
:10395000F40BA62C00000130F3007308F6070530C5
:103960007602031CB42CB52C972C7503031DB92CBF
:10397000BA2CD92CF70177080D3E84000A168A115B
:1039800000200A168A158312031388001A30F400E7
:10399000F830F300F30BCA2CF40BCA2C00000130F2
:1039A000F3007308F70705307702031CD82CD92CD5
:1039B000BB2C0800803083160313A306270883124C
:1039C0000313D80083160313260883120313D700AA
:1039D00083160313250883120313D60083160313DB
:1039E000240883120313D5008316031323088312BC
:1039F0000313DC0083160313220883120313DB0076
:103A000083160313210883120313DA0083160313AA
:103A1000200883120313D9000A128A1578250A1682
:103A20008A1583120313580883160313A300831205
:103A30000313570883160313A200831203135608B7
:103A400083160313A100831203135508831603136F
:103A5000A000080083120313A000A1017A2D1030EA
:103A600021020318342D352D4B2DF301F30A2108C3
:103A7000200784000A168A1100200A168A150A16E1
:103A80008A1527230A168A150130F7007708831252
:103A90000313A1077A2D10302106031D502D512D3F
:103AA0006A2DF301C0300A168A1527230A168A15D3
:103AB000F301F30A831203132108200784000A1676
:103AC0008A1100200A168A150A168A1527230A1653
:103AD0008A15442DF301F30A2108200784000A16F1
:103AE0008A1100200A168A150A168A1527230A1633
:103AF0008A15442D2108200784000A168A11002007
:103B00000A168A15003A031D862D872D2F2D0800D1
:103B1000F700FA01831603179B019C01E62D83161B
:103B2000031363157A0883120313A200A30122086A
:103B3000F3002308F4002C30F5000130F6000A16DB
:103B40008A15FC220A168A157408831603171C02AC
:103B5000031DAC2D73081B02031CAF2DB02D922D3D
:103B60009B019C01FB3083120313A20022088316E1
:103B70000313E305E801E80AF80105307802031CA5
:103B8000C22DC32DC42DD82D780877078312A2002B
:103B900022088400831700080A168A1558230A167B
:103BA0008A15013083120313A2002208F807BD2DE5
:103BB0008316031368080319DE2DDF2DE02DEB2D8E
:103BC000013083120313A2002208FA077A080319AE
:103BD000EA2DEB2D8F2D08008312031309080239FB
:103BE0008900090804398900343083120313A100C5
:103BF000F130A000A00BFA2DA10BFA2D83120313B4
:103C0000090802388900F30138300A168A1527237B
:103C10000A168A150D3083120313A100FB30A00091
:103C2000A00B102EA10B102EF30138300A168A15A6
:103C300027230A168A15033083120313A100973035
:103C4000A000A00B212EA10B212EF30138300A1663
:103C50008A1527230A168A15F3010F300A168A15CA
:103C600027230A168A15F30101300A168A1527231D
:103C70000A168A15F3010E300A168A1527230A162A
:103C80008A15F30180300A168A1527230A168A1529
:103C9000F3010C300A168A1527230A168A15080024
:103CA000F700FA01831603179B019C01AE2E8316C1
:103CB000031363157A0883120313A200A3012208D9
:103CC000F3002308F4002C30F5000130F6000A164A
:103CD0008A15FC220A168A157408831603171C021B
:103CE000031D742E73081B02031C772E782E5A2E88
:103CF0009B019C01FB3083120313A2002208831650
:103D00000313E305E801E80AF80106307802031C12
:103D10008A2E8B2E8C2EA02E780877078312A20075
:103D200022088400831700080A168A1558230A16E9
:103D30008A15013083120313A2002208F807852E8A
:103D40008316031368080319A62EA72EA82EB32ED8
:103D5000013083120313A2002208FA077A0803191C
:103D6000B22EB32E572E0800F700FA018316031760
:103D70009B019C01122F8316031363157A0883128B
:103D80000313A200A3012208F3002308F4002C303F
:103D9000F5000130F6000A168A15FC220A168A156B
:103DA0007408831603171C02031DD82E73081B0208
:103DB000031CDB2EDC2EBE2E9B019C01FB308312EC
:103DC0000313A200220883160313E305E801E80A9F
:103DD000F80108307802031CEE2EEF2EF02E042F8F
:103DE000780877078312A20022088400831700084E
:103DF0000A168A1558230A168A15013083120313EE
:103E0000A2002208F807E92E831603136808031995
:103E10000A2F0B2F0C2F172F013083120313A20030
:103E20002208FA077A080319162F172FBB2E08004D
:103E3000831603130615831203130619202F212F4F
:103E40004C2F831603135A080319272F282F4C2FA2
:103E5000DA01621D2C2F2D2F3D2FFB30831203130F
:103E6000A400240883160313E205F30120300A1688
:103E70008A1595220A168A15462F6215F301F30A50
:103E800020300A168A1595220A168A15B9300A16A4
:103E90008A1588250A168A1583120313061D512FC9
:103EA000522F732F831603135A08031D582F592FAF
:103EB000732F1A3083120313A500F730A400A40B4C
:103EC0005F2FA50B5F2F642F83120313061D692F2D
:103ED0006A2F732F831603135A08031D702F712F37
:103EE000732FDA01DA0A83160313621D782F792FF4
:103EF0007D2F831203138714832FFD308312031346
:103F0000A4002408870508000310831203134C0D36
:103F10004D0DCE004E08D4005408031D902F912F54
:103F20009A2F0030CD000030CC000030CB000030A4
:103F3000CA00FF2F4A08CE004B08CF004C08D00023
:103F40004D08D1001F300310D10CD00CCF0CCE0C7B
:103F5000FF3E031DA32F4E08D2005208D300CC17FA
:103F6000FF30CA05FF30CB05FF30CC050030CD0552
:103F70009630D402D41FBD2FBE2FD82F5408803ABC
:103F8000973E0318C42FC52FC62F912F0130031061
:103F9000CD0CCC0CCB0CCA0CFF3E031DC72F01303F
:103FA000CE004E08D407031DD62FD72FC62FEF2FD4
:103FB00020305402031CDD2FDE2FEA2F912F013019
:103FC000CE000310CA0DCB0DCC0DCD0DCE0BE12FC5
:103FD0000130D4025408031DEE2FEF2FDF2F5308BA
:103FE0000319F32FF42FFF2FCA09CB09CC09CD09F0
:103FF000CA0A0319CB0A0319CC0A0319CD0A08000F
:02400E00F23F7F
:00000001FF
