:060000000A128A110C280F
:10000800FE00030EF1000A08F2000A168A11DF2D1D
:100018000A128A110F288313A830FD001530FE003C
:100028007A30FF00A03084000A128A1584200A1250
:100038008A117030FD001530FE008230FF006430F8
:1000480084000A128A1584200A128A114E3084000C
:1000580064300A168A1172250A128A11F801F90108
:10006800FA0183010A128A11AB2F8312031328089D
:100078008039AD002D08B2002808AD002D07AE006C
:100088002E08B800A71F49284A284B2838143808D2
:1000980003194F2850285F28380A031D542855286B
:1000A8005D280030A8000030A7000030A60000300E
:1000B800A500A71767280030A8000030A700003067
:1000C800A6000030A5002C088039AD002D08B20626
:1000D8002C08AD002D07AE002E08B700AB1F752801
:1000E800762877283714370803197B287C288B282B
:1000F800370A031D8028812889280030AC00003089
:10010800AB000030AA000030A900AB1793280030DC
:10011800AC000030AB000030AA000030A90037085E
:100128000319972898289D283808031D9C289D287E
:10013800A6280030A8000030A7000030A600003034
:10014800A500992B2508AD002D08F3002B080A16E9
:100158008A1108260A128A11740883120313BE0032
:100168007308BD003D08AD00AE01AF01B001300815
:10017800B6002F08B5002E08B4002D08B3003E08BD
:10018800AD00AE01AF01B0013008BC002F08BB00C4
:100198002E08BA002D08B9002608AD002D08F30076
:1001A8002A080A168A1108260A128A117408831264
:1001B8000313BE007308BD003D08AD00AE01AF01DA
:1001C800B0012D08B3072E0803110318013E0319C7
:1001D800EE28B4072F0803110318013E0319F52868
:1001E800B507300803110318013E0319FC28B607A8
:1001F8003E08AD00AE01AF01B0012D08B9072E08C9
:1002080003110318013E03190A29BA072F0803111D
:100218000318013E03191129BB07300803110318FD
:10022800013E03191829BC072708AD002D08F30063
:1002380029080A168A1108260A128A1174088312D4
:100248000313BE007308BD003D08AD00AE01AF0149
:10025800B0012D08B3072E0803110318013E031936
:100268003629B4072F0803110318013E03193D2945
:10027800B507300803110318013E03194429B607CE
:100288003E08AD00AE01AF01B0012D08B9072E0838
:1002980003110318013E03195229BA072F08031145
:1002A8000318013E03195929BB0730080311031825
:1002B800013E03196029BC070830AD000310B30DD7
:1002C800B40DB50DB60DAD0B62292608AD002D088D
:1002D800F30029080A168A1108260A128A117408D6
:1002E80083120313BE007308BD003D08AD003E082D
:1002F800AE00AF01B0012D08B3072E080311031893
:10030800013E03198829B4072F0803110318013E79
:1003180003198F29B507300803110318013E031983
:100328009629B6072508AD002D08F3002A080A16F5
:100338008A1108260A128A11740883120313BE0050
:100348007308BD003D08AD003E08AE00AF01B00126
:100358002D08B3072E0803110318013E0319B52908
:10036800B4072F0803110318013E0319BC29B50768
:10037800300803110318013E0319C329B6070830D2
:10038800AD000310B30DB40DB50DB60DAD0BC529F9
:100398002508AD002D08F30029080A168A11082639
:1003A8000A128A11740883120313BE007308BD0071
:1003B8003D08AD003E08AE00AF01B0012D08B307FF
:1003C8002E0803110318013E0319EB29B4072F085F
:1003D80003110318013E0319F229B5073008031168
:1003E8000318013E0319F929B6072608AD002D08A0
:1003F800F3002B080A168A1108260A128A117408B3
:1004080083120313BE007308BD003D08AD003E080B
:10041800AE00AF01B0012D08B9072E08031103186B
:10042800013E0319182ABA072F0803110318013EC1
:1004380003191F2ABB07300803110318013E0319CB
:10044800262ABC072708AD002D08F3002A080A163B
:100458008A1108260A128A11740883120313BE002F
:100468007308BD003D08AD003E08AE00AF01B00105
:100478002D08B9072E0803110318013E0319452A50
:10048800BA072F0803110318013E03194C2ABB07AA
:10049800300803110318013E0319532ABC07270823
:1004A800AD002D08F3002B080A168A1108260A1237
:1004B8008A11740883120313BE007308BD003D0837
:1004C800AD003E08AE00AF01B00108300310AD0D1D
:1004D800AE0DAF0DB00DFF3E031D6A2A2D08B907FA
:1004E8002E0803110318013E03197B2ABA072F08A7
:1004F80003110318013E0319822ABB0730080311B0
:100508000318013E0319892ABC073308AD003408D3
:10051800AE003508AF003608B00018300310B00C34
:10052800AF0CAE0CAD0CFF3E031D922A2D08B90787
:100538002E0803110318013E0319A32ABA072F082E
:1005480003110318013E0319AA2ABB073008031137
:100558000318013E0319B12ABC070830AD00031087
:10056800B30DB40DB50DB60DAD0BB32A380837076A
:10057800AD00AE01AE0D2D08823EBD002E08031859
:10058800013EFF3EBE00E52A0130AD000310B90D63
:10059800BA0DBB0DBC0DAD0BCA2AB61FD42AD52A7D
:1005A800D62A39140130AD000310B30DB40DB50DC2
:1005B800B60DAD0BD82AFF30BD070318BE0AFF30B1
:1005C800BE07BB1FE82AE92AC82AB701B61FED2AC9
:1005D800EE2A0A2BFF303305AD00FF303405AE009C
:1005E800FF303505AF007F303605B00030082F04E6
:1005F8002E042D040319012B022B052BB701B70A72
:100608000A2B391C082B092B0A2B022B3708031934
:100618000E2B0F2B402B0130B90700300318013087
:10062800BA07003003180130BB0700300318013047
:10063800BC073C1C202B212B402B3908AD003A0865
:10064800AE003B08AF003C08B0000130B100300DEF
:10065800B00CAF0CAE0CAD0CB10B2B2B3008BC00A2
:100668002F08BB002E08BA002D08B9000130BD07BD
:100678000318BE0A0030BE073E08803AFF008030EB
:100688007F02031D492BFF303D02031C4C2B4D2BD1
:10069800582B7F3083120313BC008030BB0000301E
:1006A800BA000030B9008D2B831203133E08803A3C
:1006B800FF0080307F02031D632B01303D020318C9
:1006C800662B672B732B003083120313BC0000309A
:1006D800BB000030BA000030B900B2018D2B831284
:1006E80003133D08AD002D08B800FF30B905FF30F1
:1006F800BA057F30BB050030BC05381C842B852B20
:10070800862BBB173808AD0003102D0CAE002E0841
:10071800BC003208AD002D08BC043C08A8003B080A
:10072800A7003A08A6003908A50008008312031399
:1007380023088039A8002808F3002308A800280700
:10074800A9002908F500A21FAA2BAB2BAC2B751406
:1007580075080319B02BB12BC12B750A031DB52BD6
:10076800B62BBE2B0030A3000030A2000030A10041
:100778000030A000A217A301C92B0030A30000304D
:10078800A2000030A1000030A00027088039A8008E
:100798002808F400740873060319D32BD42BD52B1F
:1007A80073172708A8002807A9002908F400A61F1E
:1007B800DE2BDF2BE02B741474080319E42BE52BD4
:1007C800F52B740A031DE92BEA2BF22B0030A70046
:1007D8000030A6000030A5000030A400A617A7012D
:1007E800FD2B0030A7000030A6000030A500003027
:1007F800A400750874020318022C032C472C731FDD
:10080800062C072C0B2C8030A8002808F306750846
:10081800A8002808F6007408A8002808F50076083B
:10082800A8002808F4002008A8002808F6002408D2
:10083800A8002808A0007608A8002808A400210815
:10084800A8002808F6002508A8002808A1007608AE
:10085800A8002808A5002208A8002808F6002608ED
:10086800A8002808A2007608A8002808A6002308DF
:10087800A8002808F6002708A8002808A30076087A
:10088800A8002808A700F6017408A800A9012908EB
:10089800AB0075082802AA00031CAB032B08803A9A
:1008A800FF0080307F02031D5B2C1A302A02031CD4
:1008B8005E2C5F2CA02C831203132308220421042E
:1008C8002004031D682C6A2C01306B2C0030A80012
:1008D8002808F6000030A3000030A2000030A10074
:1008E8000030A0007408A8002808F500A62C761C83
:1008F8007E2C7F2C8A2C760883120313A800031001
:10090800280C0138A9002908F6008C2C0310F60CD5
:1009180083120313201C912C922C932CF617013070
:10092800A800230DA30CA20CA10CA00CA80B952CBD
:100938000130A8002808F50774087502031CA52CC7
:10094800A62C7B2C731BA92CAA2CF92C7508031D2B
:10095800AE2CAF2CBA2C003083120313A300003046
:10096800A2000030A1000030A000292E831203133A
:100978002408A007250803110318013E0319C52CF4
:10098800A107260803110318013E0319CC2CA2075E
:10099800270803110318013E0319D32CA307231CAE
:1009A800D62CD72CAF2D761CDA2CDB2CE42C760831
:1009B800A8000310280C0138A9002908F600E62C25
:1009C8000310F60C201CE92CEA2CEB2CF61701304E
:1009D800A800230DA30CA20CA10CA00CA80BED2CB5
:1009E8000130A8002808F507AF2D83120313230848
:1009F800803AFF002708803A7F02031D0D2D260844
:100A08002202031D0D2D25082102031D0D2D24088A
:100A180020020318102D112D692DFF30A800FF307A
:100A2800A900FF30AA00FF30AB002408AC0025085D
:100A3800AD002608AE002708AF002008AC02210848
:100A4800031C210F282D292DAD022208031C220F7B
:100A58002E2D2F2DAE022308031C230F342D352DE8
:100A6800AF022C08A8072D0803182D0F3C2D3D2D8B
:100A7800A9072E0803182E0F422D432DAA072F0869
:100A880003182F0AAB072B08A3002A08A20029087D
:100A9800A1002808A0008030A8002808F306F6095D
:100AA800F60A7608031D592D5A2D772D0130A00717
:100AB800003003180130A107003003180130A207E5
:100AC800003003180130A307772D2408A002250859
:100AD800031C250FA1022608031C260FA2022708C3
:100AE800031C270FA3022308220421042004031D4A
:100AF8007E2D7F2DAB2D7608031D832D842DAB2DE8
:100B08000030A3000030A2000030A1000030A00097
:100B1800292E0130A8000310A00DA10DA20DA30DD0
:100B2800A80B8F2DF61F992D9A2D9B2D2014761C1E
:100B38009E2D9F2DA22D0314F60DA42D0310F60D46
:100B480075080319A82DA92DAB2D0130F502A21F98
:100B5800AE2DAF2D8D2DF401F61FB32DB42DC22D62
:100B680076087F390319B92DBA2DBD2DF401F40A81
:100B7800C22D201CC02DC12DC22DBA2D74080319F9
:100B8800C62DC72DFB2D0130A007003003180130FA
:100B9800A107003003180130A20700300318013004
:100BA800A307231CD82DD92DFB2D2008A800210828
:100BB800A9002208AA002308AB000130AC002B0DC5
:100BC800AB0CAA0CA90CA80CAC0BE32D2B08A300AA
:100BD8002A08A2002908A1002808A000750A0319FC
:100BE800F62DF72DFB2D0130A8002808F507750A0A
:100BF8000319FF2D002E052E7508031D042E052E42
:100C0800132E0030A3000030A2000030A1000030F5
:100C1800A0007508031D112E122E132EF301751C4A
:100C2800162E172E192EA2171D2E7F30A800280861
:100C3800A2057508A8000310280CA9002908A3001C
:100C4800F31F272E282E292EA3170800831203131B
:100C5800B80006303806031D322E332E372E0130E9
:100C6800F7007708F80704303806031D3C2E3D2EA0
:100C78003F2E0130F80202303806031D442E452E5F
:100C88006A2E03307806031D4A2E4B2E6A2E3D30FD
:100C9800A300CC30A200CC30A100CD30A0006B085E
:100CA800A7006A08A6006908A5006808A4000A1237
:100CB8008A119A230A128A11831203132308EB005C
:100CC8002208EA002108E9002008E8000830380670
:100CD800031D6F2E702E952E03307806031D752E7A
:100CE800762E952E3D30B300CC30B200CC30B1001A
:100CF800CD30B0006B08B7006A08B6006908B500C7
:100D08006808B4000A168A11BB250A128A118312D0
:100D180003133308EB003208EA003108E900300811
:100D2800E80004307802031C9A2E9B2E9D2EF801B1
:100D3800F80A7808031DA12EA22EA62E0330F7006C
:100D48007708F8004230A3000C30A2000030A10060
:100D58000030A0006B08A7006A08A6006908A50073
:100D68006808A4000A128A1590230A128A11031827
:100D7800BE2EBF2EC92E423083120313EB000C3057
:100D8800EA000030E9000030E800831203136B0822
:100D9800A3006A08A2006908A1006808A000413001
:100DA800A7004030A6000030A5000030A4000A12B9
:100DB8008A1590230A128A110318E32EE42EEE2EC8
:100DC800413083120313EB004030EA000030E900A1
:100DD8000030E800080083120313AA002A08031948
:100DE800F62EF72E0B2FA51FFA2EFB2E0B2F2209FE
:100DF800AC002309AD002409AE002509AF00AC0AF8
:100E08000319AD0A0319AE0A0319AF0A132F2508EF
:100E1800AF002408AE002308AD002208AC00250866
:100E2800240423042204031D1A2F1B2F242F00300F
:100E3800A5000030A4000030A3000030A200AA2FB3
:100E48009630A6002608AB00362F0130A6002608EB
:100E5800AB0701300310AF0CAE0CAD0CAC0CFF3E71
:100E6800031D2E2FFE302F05031D3B2F3C2F292F4E
:100E7800582F0130A6002608AB070130AC07003018
:100E880003180130AD07003003180130AE070030F9
:100E980003180130AF0701300310AF0CAE0CAD0CD6
:100EA800AC0CFF3E031D502FFF302F05031D5D2F97
:100EB8005E2F3D2F6A2F0130AB020130A6000310D0
:100EC800AC0DAD0DAE0DAF0DA60B632FAE1B6D2F88
:100ED8006E2F742F02302B020318732F742F5F2F7D
:100EE8002B18772F782F802FFF30AC05FF30AD05FA
:100EF8007F30AE05FF30AF050310AB0C2B08A60002
:100F0800A701A801A90118300310A60DA70DA80D67
:100F1800A90DFF3E031D882F2608AC042708AD0441
:100F28002808AE042908AF042A0803199C2F9D2F0E
:100F3800A22FA51FA02FA12FA22FAF172F08A50002
:100F48002E08A4002D08A3002C08A20008000A16E9
:100F58008A118E250A128A110A128A154A210A1242
:100F68008A116C300A128A15EC200A128A110A12A8
:100F78008A1519220A128A1183160313A800280851
:100F880083120313E2000A168A11A7270A128A118C
:100F98000A128A1593200A128A110A168A11C9267A
:100FA8000A128A110A128A15B1210A128A1102300C
:100FB8007806031DE02FE12FE62F0A128A15092370
:100FC8000A128A1183120313631CEB2FEC2FBB2F19
:100FD8000A168A118D260A128A11FE308316031307
:100FE800A800280883120313E305BB2F0A128A11ED
:020FF8000C28C3
:1010000008308A000408840A82070034013404345A
:1010100007342A34023405340834003403340634E7
:10102000093423349034C034603430349034303454
:101030006034C03490343034083404340234013421
:10104000FE34FD34FB34543465346D347034203454
:101050002034203420343A342034323432342E34A4
:10106000333420342034483475346D346934643476
:101070006934743479343A342034383430342E348A
:10108000333420342534003420342034573465344C
:101090006C3463346F346D346534203454346F34BD
:1010A00020342034203420342034203420342034A0
:1010B00043346F3461346334683420343134003461
:1010C0005334653474342034543465346D3470349E
:1010D00065347234613474347534723465343A343E
:1010E0000034533479347334743465346D342034BB
:1010F0005334743461347234743465346434003479
:101100007E088A007F0882000A128A1580200A124F
:101110008A158000840A04087D0603190034FF0A3A
:101120000319FE0A8428831203135908803AFF002A
:1011300080307F02031D9E2847305802031CA128DF
:10114000A228EB28831203135508A3005408A20019
:101150005308A1005208A0004230A700B430A600F6
:101160000030A5000030A4000A128A1590230A124C
:101170008A15031CBC28BD28C828C230831203135B
:10118000D500B430D4000030D3000030D200E928BC
:101190003D3083120313A300CC30A200CC30A10059
:1011A000CD30A0005508A7005408A6005308A5009C
:1011B0005208A4000A128A119A230A128A1583126D
:1011C00003132308D5002208D4002108D3002008E7
:1011D000D200D801D901080083120313A000A10195
:1011E0003C29103021020318F628F7280D29F301B5
:1011F000F30A2108200784000A128A1500200A1227
:101200008A150A168A115C260A128A150130F7001F
:10121000770883120313A1073C2910302106031D10
:10122000122913292C29F301C0300A168A115C26D1
:101230000A128A15F301F30A831203132108200707
:1012400084000A128A1500200A128A150A168A11C9
:101250005C260A128A150629F301F30A21082007E1
:1012600084000A128A1500200A128A150A168A11A9
:101270005C260A128A1506292108200784000A1212
:101280008A1500200A128A15003A031D48294929A7
:10129000F12808008312031309080239890009089C
:1012A00004398900683083120313A100E330A000E1
:1012B000A00B5829A10B58295D2983120313090893
:1012C00002388900F30138300A168A115C260A12A6
:1012D0008A151A3083120313A100F730A000A00B67
:1012E0006F29A10B6F297429F30138300A168A116E
:1012F0005C260A128A15063083120313A1002F30D0
:10130000A000A00B8129A10B81298629F301383087
:101310000A168A115C260A128A15F3010F300A1682
:101320008A115C260A128A15F30101300A168A1105
:101330005C260A128A15F3010E300A168A115C2601
:101340000A128A15F30180300A168A115C260A12E5
:101350008A15F3010C300A168A115C260A128A15C6
:101360000800831603138615831203138619B929FF
:10137000BA29C9295E080319BE29BF29C929DE0176
:101380005D080319C429C529C729DD01C929DD0163
:10139000DD0A861DCC29CD29E9295E08031DD12946
:1013A000D229E929343083120313A500F130A400B7
:1013B000A40BD829A50BD82983120313861DE12974
:1013C000E229E9295E08031DE629E729E929DE016A
:1013D000DE0A5C08031DED29EE29012A5D080319C8
:1013E000F229F329012A1930A4002408A0000030B2
:1013F0000A168A119B250A128A1583120313DC012F
:10140000DC0A5C080319052A062A182A5D08031D50
:101410000A2A0B2A182A1930A4002408A000013037
:101420000A168A119B250A128A1583120313DC01FE
:101430000800F830F30073088316031386050F3095
:10144000F30073088804FA010730F300730883126D
:10145000031386047A081B3E84000A128A150020B2
:101460000A128A15F300730886051330F300F30B94
:10147000372A3A2AF9017908173E84000A128A1598
:1014800000200A128A15831203130805031D492A36
:101490004A2A6E2AE3145B08803AFF0080307F02FC
:1014A000031D542A15305A02031C572A582A6E2A43
:1014B0007A08F30002300310F30DFF3E031D5B2A90
:1014C00079087307F400740883120313EF00FD30EA
:1014D000F3007308E305DA01DB0163140130F30064
:1014E0007308F90704307902031C772A782A3B2A0B
:1014F0000130F3007308FA0703307A02031C812AD3
:10150000822A242A831203136F08013E84000A12E0
:101510008A1500200A128A1508000310831203138B
:10152000370D380DB9003908BF003F08031D992A4F
:101530009A2AA32A0030B8000030B7000030B60065
:101540000030B500082B3508B9003608BA00370856
:10155000BB003808BC001F300310BC0CBB0CBA0C1D
:10156000B90CFF3E031DAC2A3908BD003D08BE0082
:10157000B717FF30B505FF30B605FF30B7050030AF
:10158000B8059630BF02BF1FC62AC72AE12A3F0806
:10159000803A973E0318CD2ACE2ACF2A9A2A0130C4
:1015A0000310B80CB70CB60CB50CFF3E031DD02AC7
:1015B0000130B9003908BF07031DDF2AE02ACF2A0E
:1015C000F82A20303F02031CE62AE72AF32A9A2A47
:1015D0000130B9000310B50DB60DB70DB80DB90B3C
:1015E000EA2A0130BF023F08031DF72AF82AE82A39
:1015F0003E080319FC2AFD2A082BB509B609B709CC
:10160000B809B50A0319B60A0319B70A0319B80AC3
:10161000080083160313270883120313A3008316FD
:101620000313260883120313A2008316031325084D
:1016300083120313A10083160313240883120313D8
:10164000A0006708A7006608A6006508A500640852
:10165000A4000A168A1157270A128A150318312B7B
:10166000322B5A2B831203136708C3006608C2008B
:101670006508C1006408C000CA300A128A15112624
:101680000A128A1583120313670883160313A7002F
:1016900083120313660883160313A6008312031331
:1016A000650883160313A5008312031364088316C9
:1016B0000313A400831203135108A3005008A200CF
:1016C0004F08A1004E08A0005508A7005408A60026
:1016D0005308A5005208A4000A168A1157270A12B7
:1016E0008A150318742B752B8F2B8312031355083F
:1016F000C3005408C2005308C1005208C0008A3019
:101700000A128A1511260A128A1583120313550824
:10171000D1005408D0005308CF005208CE00080072
:101720000030831203132005F30000302105F4007C
:1017300080302205F5007F302305F6007608750419
:1017400074047304031DA52BA62BAE2B0030A3003D
:101750000030A2000030A1000030A00000302405BD
:10176000F30000302505F40080302605F5007F30B9
:101770002705F6007608750474047304031DC12B55
:10178000C22BCA2B0030A7000030A6000030A500F5
:101790000030A400A31FCD2BCE2BF22B0030F30082
:1017A0000030F4000030F5008030F6002008F3022D
:1017B0002108031C210FDD2BDE2BF4022208031C61
:1017C000220FE32BE42BF5022308031C230FE92B44
:1017D000EA2BF6027608A3007508A2007408A1009F
:1017E0007308A000A71FF52BF62B1A2C0030F3006E
:1017F0000030F4000030F5008030F6002408F302D9
:101800002508031C250F052C062CF4022608031CB2
:10181000260F0B2C0C2CF5022708031C270F112C6C
:10182000122CF6027608A7007508A6007408A50019
:101830007308A4008030A3068030A706270823027F
:10184000031D2C2C26082202031D2C2C2508210206
:10185000031D2C2C2408200203182F2C302C322C92
:101860000310332C03140800831203132708803954
:10187000F3007308AC002708F3007307F400740842
:10188000B300A61F442C452C462C331433080319EF
:101890004A2C4B2C5B2C330A031D4F2C502C582CFC
:1018A0000030A7000030A6000030A5000030A400E2
:1018B000A617A701632C0030A7000030A600003057
:1018C000A5000030A40023088039F3007308AC069B
:1018D0002308F3007307F4007408B400A21F712CEE
:1018E000722C732C341434080319772C782C882C20
:1018F000340A031D7C2C7D2C852C0030A300003085
:10190000A2000030A1000030A000A217A301902C7B
:101910000030A3000030A2000030A1000030A00081
:101920002308220421042004031D972C982CB12C99
:101930000030A7000030A6000030A5000030A40051
:101940008030A6047F30A7042C08F3007308A70496
:101950002708A3002608A2002508A1002408A0004B
:10196000102E3308031DB52CB62CBF2C0030A3005D
:101970000030A2000030A1000030A000102E33087B
:10198000F300F4017408F60034087302F500031C38
:10199000F60375087F3EAD0076080318013E003E51
:1019A000AE002708AB002608AA002508A9002408D5
:1019B000A8000030A7000030A6000030A5000030CD
:1019C000A4000030B2000030B1000030B0000030A0
:1019D000AF00B401352D34080319EF2CF02C102D75
:1019E0000130F3000310A80DA90DAA0DAB0DF30BE8
:1019F000F22C0130F3000310A40DA50DA60DA70DC8
:101A0000F30BFB2CB21F052D062D072D24140130DE
:101A1000F3000310AF0DB00DB10DB20DF30B092D96
:101A200023082B02031D1E2D22082A02031D1E2D32
:101A300021082902031D1E2D20082802031C212D28
:101A4000222D312D32172008A8022108031C210F56
:101A5000A9022208031C220FAA022308031C230F39
:101A6000AB020130F3007308B4071A303402031CD0
:101A70003A2D3B2DEB2C2B082A04290428040319AA
:101A8000422D432D622D2F14622D0130F3000310DF
:101A9000A40DA50DA60DA70DF30B472DB21F512DBB
:101AA000522D532D24140130F3000310AF0DB00D4F
:101AB000B10DB20DF30B552DFF30AD070318AE0A73
:101AC000FF30AE07A61F652D662D452DB401B21F50
:101AD0006A2D6B2D872DFF302F05F300FF30300569
:101AE000F400FF303105F5007F303205F60076084E
:101AF00075047404730403197E2D7F2D822DB401A7
:101B0000B40A872D241C852D862D872D7F2D340822
:101B100003198B2D8C2DBD2D0130A4070030031827
:101B20000130A507003003180130A6070030031864
:101B30000130A707271C9D2D9E2DBD2D2408F300E5
:101B40002508F4002608F5002708F6000130F70004
:101B5000760DF60CF50CF40CF30CF70BA82D7608AB
:101B6000A7007508A6007408A5007308A40001303A
:101B7000AD070318AE0A0030AE072E08803AFF000A
:101B800080307F02031DC62DFF302D02031CC92D9E
:101B9000CA2DD82DFF3083120313AD000030AE00E4
:101BA0000030A7000030A6000030A5000030A400DF
:101BB000831203132E08803AFF0080307F02031D3A
:101BC000E32D01302D020318E62DE72DF42D8312AD
:101BD0000313AD01AE010030A7000030A6000030B5
:101BE000A5000030A400AC01831203132D08F300FC
:101BF0007308B300331CFD2DFE2D002EA617042EF6
:101C00007F30F3007308A6053308F3000310730C4C
:101C1000F4007408A7002C08F3007308A704A82C8C
:101C2000080083120313C800F30148080A168A113A
:101C30005C260A128A15831203134308A300420884
:101C4000A2004108A1004008A0000030A700003019
:101C5000A6000030A5000030A4000A128A159023C7
:101C60000A128A150318352E362E5F2EF301F30A59
:101C70002D300A168A115C260A128A15BF3083128B
:101C80000313A8008030A7000030A6000030A50094
:101C90004308AC004208AB004108AA004008A90074
:101CA0000A128A1139200A128A158312031328088E
:101CB000C3002708C2002608C1002508C0008312FF
:101CC00003134308A7004208A6004108A5004008E6
:101CD000A4004230A300C830A2000030A1000030B0
:101CE000A0000A128A1534240A128A1583120313DB
:101CF0002308B8002208B7002108B6002008B50064
:101D00000A128A158D220A128A15831203133508C6
:101D1000C4004408CB004B0803198F2E902E992E37
:101D2000F301F30A4B08303E0A168A115C260A12A8
:101D30008A156430F5000030F600831203134B0857
:101D4000C400C5014408F3004508F4000A168A11CE
:101D500031260A128A15730883120313A20074082D
:101D6000A3000030A31BFF30A400A50001300A121D
:101D70008A11EF260A128A15831203132508B3006D
:101D80002408B2002308B1002208B0004308B700BD
:101D90004208B6004108B5004008B4000A168A118E
:101DA000BB250A128A15831203133308C3003208B5
:101DB000C2003108C1003008C0004308A700420833
:101DC000A6004108A5004008A4004130A30020302F
:101DD000A2000030A1000030A0000A128A153424AD
:101DE0000A128A15831203132308B8002208B700C9
:101DF0002108B6002008B5000A128A158D220A12A1
:101E00008A15831203133508C4004408CC004C081B
:101E100003190B2F0C2F152FF301F30A4C08303E3A
:101E20000A168A115C260A128A150A30F50000305B
:101E3000F600831203134C08C400C5014408F300E4
:101E40004508F4000A168A1131260A128A15730809
:101E500083120313A2007408A3000030A31BFF30F9
:101E6000A400A50001300A128A11EF260A128A1571
:101E7000831203132508B3002408B2002308B1001D
:101E80002208B0004308B7004208B6004108B50078
:101E90004008B4000A168A11BB250A128A1583125B
:101EA00003133308C3003208C2003108C1003008F0
:101EB000C0004308A7004208A6004108A50040084A
:101EC000A4003F30A3008030A2000030A100003009
:101ED000A0000A128A1534240A128A1583120313E9
:101EE0002308B8002208B7002108B6002008B50072
:101EF0000A128A158D220A128A15831203133508D5
:101F0000C4004408CA00F301F30A4A08303E0A1626
:101F10008A115C260A128A15831203134A08C40028
:101F2000C501C601C7014708A5004608A400450829
:101F3000A3004408A20001300A128A11EF260A12F7
:101F40008A15831203132508B3002408B20023085E
:101F5000B1002208B0004308B7004208B6004108AB
:101F6000B5004008B4000A168A11BB250A128A156A
:101F7000831203133308C3003208C2003108C100C2
:101F80003008C0004308A7004208A6004108A50089
:101F90004008A4003D30A300CC30A200CC30A1000A
:101FA000CD30A0000A128A1534240A128A15831231
:101FB00003132308B8002208B7002108B600200840
:101FC000B5000A128A158D220A128A15831203138C
:101FD0003508C4004408C900F301F30A2E300A167C
:101FE0008A115C260A128A15F301F30A831203137D
:101FF0004908303E0A168A115C260A128A15080022
:102AE40064008001840A0406031900340406732D6B
:102AF4003E343F341E345B340034003448344234B2
:102B0400003400344834423400340034B0344134A6
:102B14006C3423340C346334831603138701890122
:102B2400A0308B000630810006308312031381002D
:102B3400080083120313A2000F30A100210883169A
:102B44000313880583120313A301B42D22080A1664
:102B54008A110D270A168A11013083120313A1006A
:102B64002108A30720082302031CB92DBA2DA82D80
:102B74000800803083120313B3063708A300360815
:102B8400A2003508A1003408A0003308A7003208C9
:102B9400A6003108A5003008A4000A128A119A235D
:102BA4000A168A11831203132308B3002208B20001
:102BB4002108B1002008B00008000B1DE22DE32D10
:102BC400012E83120313E31CE82DE92DEF2D0130B0
:102BD400DA070318DB0A0030DB07FB30F00070086B
:102BE4008B05063081000130D8070318D90A00305C
:102BF400D9070130D6070318D70A0030D70772085F
:102C04008A00710E8300FE0E7E0E090083120313E8
:102C1400A400A001A1017308F500F6017508A20043
:102C24007608A300241C172E182E1E2E2208A00797
:102C34000318A10A2308A10701300310A20DA30D54
:102C4400FF3E031D1F2E0310A40C2408031D2B2E6E
:102C54002C2E142E2108F4002008F30008008312FF
:102C64000313A001A101731C382E392E412E7508BF
:102C740083120313A0070318A10A7608A1070130E1
:102C84000310F50DF60DFF3E031D422E0130031017
:102C9400F40CF30CFF3E031D492E73087404031D4A
:102CA400542E552E352E831203132108F4002008C8
:102CB400F3000800F60083160313880189018312C8
:102CC4000313891476088800730803196A2E6B2E7F
:102CD4006D2E0915712EFB30F4007408890510302F
:102CE400F5009430F400F40B752EF50B752E0000EE
:102CF400FD30F40074088312031389051030F500C5
:102D04009430F400F40B842EF50B842E000083120F
:102D14000313891408008312031362080A128A1128
:102D24002A260A168A1178088312031361060319E6
:102D34009C2E9D2EB42EF30101300A168A115C26B6
:102D44000A168A117808A03E8400831300080A1228
:102D54008A15EC200A168A11780883120313CD0011
:102D64004D08E10003307806031DB92EBA2EC82E93
:102D74006B08C3006A08C2006908C1006808C00083
:102D8400C6300A128A1511260A168A1108008316FB
:102D9400031306158701831203130619D22ED32EAB
:102DA400E22E5F080319D72ED82EE22EDF01600829
:102DB4000319DD2EDE2EE02EE001E22EE001E00A12
:102DC400061DE52EE62E012F5F08031DEA2EEB2ECD
:102DD400012F3430F400F130F300F30BEF2EF40B39
:102DE400EF2EF42E83120313061DF92EFA2E012F53
:102DF4005F08031DFE2EFF2E012FDF01DF0A60088E
:102E04000319052F062F082F87140C2FFD30F3000C
:102E1400730887050800F5007508031D122F132F8A
:102E2400322FF6017608123E84000A128A15002019
:102E34000A168A118312031388003430F400F13027
:102E4400F300F30B232FF40B232F282F0130F3006F
:102E54007308F60705307602031C312F322F142F26
:102E64007503031D362F372F562FF70177080D3EB4
:102E740084000A128A1500200A168A118312031389
:102E840088003430F400F130F300F30B472FF40BD7
:102E9400472F4C2F0130F3007308F70705307702F2
:102EA400031C552F562F382F0800003083120313AC
:102EB4002005F30000302105F40080302205F500E0
:102EC4007F302305F6007608750474047304031D2B
:102ED4006C2F6D2F752F0030A3000030A20000303E
:102EE400A1000030A00000302405F30000302505C7
:102EF400F40080302605F5007F302705F6007608BB
:102F0400750474047304031D882F892F912F0030D6
:102F1400A7000030A6000030A5000030A400270858
:102F24002306031D9F2F26082206031D9F2F250815
:102F34002106031D9F2F240820060319A22FA32F67
:102F4400A52F0310A62F0314080083120313570898
:102F5400803AFF0080307F02031DB22F6530560295
:102F6400031CB52FB62FFF2F831203136708A3008A
:102F74006608A2006508A1006408A0004230A7000A
:102F8400C830A6000030A5000030A4000A128A153B
:102F940090230A168A11031CD02FD12FDC2F003066
:102FA40083120313E7000030E6000030E500003030
:102FB400E400FD2F3D3083120313A300CC30A200A4
:102FC400CC30A100CD30A0006708A7006608A60099
:102FD4006508A5006408A4000A128A119A230A1637
:102FE4008A11831203132308E7002208E60021084C
:0C2FF400E5002008E400D601D701080029
:02400E00F23F7F
:00000001FF
