:060000000A128A110C280F
:10000800FE00030EF1000A08F2000A168A115A2BA4
:100018000A128A110F288317C430FD001B30FE0016
:100028000430FF00B83084000A168A1524230A1207
:100038008A118313ED30FD000830FE000230FF0006
:10004800E43084000A168A1524230A128A118317B9
:1000580090308400B8300A168A15FC220A128A11D8
:100068008313CC308400E4300A168A15FC220A1265
:100078008A11F801F901FA0183010A168A11DC29AB
:100088008312031333088039B8003808BD003308D9
:10009800B8003807B9003908C300B21F54285528DA
:1000A80056284314430803195A285B286A28430A28
:1000B800031D5F28602868280030B3000030B200B4
:1000C8000030B1000030B000B21772280030B30021
:1000D8000030B2000030B1000030B000370880397D
:1000E800B8003808BD063708B8003807B90039081D
:1000F800BE00B61F8028812882283E143E080319B6
:100108008628872896283E0A031D8B288C28942841
:100118000030B7000030B6000030B5000030B40041
:10012800B6179E280030B7000030B6000030B50082
:100138000030B4003E080319A228A328A8284308C1
:10014800031DA728A828B1280030B3000030B2004A
:100158000030B1000030B000A42B3008B8003808D7
:10016800F30036080A168A15CD230A128A11740874
:1001780083120313C9007308C8004808B800B901FE
:10018800BA01BB013B08C2003A08C1003908C000E7
:100198003808BF004908B800B901BA01BB013B08DB
:1001A800C7003A08C6003908C5003808C400310835
:1001B800B8003808F30035080A168A15CD230A1244
:1001C8008A11740883120313C9007308C800480809
:1001D800B800B901BA01BB013808BF0739080311D3
:1001E8000318013E0319F928C0073A080311031838
:1001F800013E03190029C1073B0803110318013EFA
:1002080003190729C2074908B800B901BA01BB0197
:100218003808C407390803110318013E03191529C2
:10022800C5073A0803110318013E03191C29C6071C
:100238003B0803110318013E03192329C707320895
:10024800B8003808F30034080A168A15CD230A12B4
:100258008A11740883120313C9007308C800480878
:10026800B800B901BA01BB013808BF073908031142
:100278000318013E03194129C0073A08031103185E
:10028800013E03194829C1073B0803110318013E21
:1002980003194F29C2074908B800B901BA01BB01BF
:1002A8003808C407390803110318013E03195D29EA
:1002B800C5073A0803110318013E03196429C60744
:1002C8003B0803110318013E03196B29C7070830BF
:1002D800B8000310BF0DC00DC10DC20DB80B6D29BC
:1002E8003108B8003808F30034080A168A15CD23F7
:1002F8000A128A11740883120313C9007308C8000C
:100308004808B8004908B900BA01BB013808BF0756
:10031800390803110318013E03199329C0073A0845
:1003280003110318013E03199A29C1073B08031159
:100338000318013E0319A129C2073008B80038087C
:10034800F30035080A168A15CD230A128A11740893
:1003580083120313C9007308C8004808B800490885
:10036800B900BA01BB013808BF07390803110318DF
:10037800013E0319C029C0073A0803110318013EBA
:100388000319C729C1073B0803110318013E0319C4
:10039800CE29C2070830B8000310BF0DC00DC10D2B
:1003A800C20DB80BD0293008B8003808F30034085B
:1003B8000A168A15CD230A128A11740883120313A8
:1003C800C9007308C8004808B8004908B900BA014C
:1003D800BB013808BF07390803110318013E031988
:1003E800F629C0073A0803110318013E0319FD292D
:1003F800C1073B0803110318013E0319042AC20769
:100408003108B8003808F30036080A168A15CD23D3
:100418000A128A11740883120313C9007308C800EA
:100428004808B8004908B900BA01BB013808C40730
:10043800390803110318013E0319232AC5073A088E
:1004480003110318013E03192A2AC6073B080311A2
:100458000318013E0319312AC7073208B8003808C3
:10046800F30035080A168A15CD230A128A11740872
:1004780083120313C9007308C8004808B800490864
:10048800B900BA01BB013808C407390803110318B9
:10049800013E0319502AC5073A0803110318013E03
:1004A8000319572AC6073B0803110318013E03190D
:1004B8005E2AC7073208B8003808F30036080A165B
:1004C8008A15CD230A128A11740883120313C900EE
:1004D8007308C8004808B8004908B900BA01BB0148
:1004E80008300310B80DB90DBA0DBB0DFF3E031D42
:1004F800752A3808C407390803110318013E03197F
:10050800862AC5073A0803110318013E03198D2AE4
:10051800C6073B0803110318013E0319942AC707AD
:100528003F08B8004008B9004108BA004208BB00BB
:1005380018300310BB0CBA0CB90CB80CFF3E031DE5
:100548009D2A3808C407390803110318013E031906
:10055800AE2AC5073A0803110318013E0319B52A44
:10056800C6073B0803110318013E0319BC2AC70735
:100578000830B8000310BF0DC00DC10DC20DB80B77
:10058800BE2A43083E07B800B901B90D3808823EB3
:10059800C80039080318013EFF3EC900F02A01309F
:1005A800B8000310C40DC50DC60DC70DB80BD52A6C
:1005B800C21FDF2AE02AE12A44140130B8000310E0
:1005C800BF0DC00DC10DC20DB80BE32AFF30C8071F
:1005D8000318C90AFF30C907C61FF32AF42AD32A09
:1005E800BE01C21FF82AF92A152BFF303F05B800B3
:1005F800FF304005B900FF304105BA007F304205A1
:10060800BB003B083A043904380403190C2B0D2BA2
:10061800102BBE01BE0A152B441C132B142B152BB3
:100628000D2B3E080319192B1A2B4B2B0130C4072D
:10063800003003180130C507003003180130C60721
:10064800003003180130C707471C2B2B2C2B4B2BD2
:100658004408B8004508B9004608BA004708BB0076
:100668000130BC003B0DBB0CBA0CB90CB80CBC0B70
:10067800362B3B08C7003A08C6003908C5003808B9
:10068800C4000130C8070318C90A0030C90749085F
:10069800803AFF0080307F02031D542BFF30480250
:1006A800031C572B582B632B7F3083120313C7006F
:1006B8008030C6000030C5000030C400982B83127B
:1006C80003134908803AFF0080307F02031D6E2B18
:1006D800013048020318712B722B7E2B00308312D5
:1006E8000313C7000030C6000030C5000030C40046
:1006F800BD01982B831203134808B8003808C300BB
:10070800FF30C405FF30C5057F30C6050030C7057A
:10071800431C8F2B902B912BC6174308B80003104E
:10072800380CB9003908C7003D08B8003808C704B4
:100738004708B3004608B2004508B1004408B000B5
:100748000800FF3083160313C500450883160317F6
:10075800A500A601A60AA701A70A83160313400845
:10076800A3003F08A2003E08A1003D08A0000030F9
:10077800A7000030A6000030A5000030A4000A162B
:100788008A11F0260A128A110318CB2BCC2BDA2CEB
:1007980083160313400883120313B7008316031349
:1007A8003F0883120313B600831603133E0883120F
:1007B8000313B500831603133D0883120313B40013
:1007C800BF30B3008030B2000030B1000030B0005C
:1007D8000A128A1144200A128A1183120313330859
:1007E800CD003208CC003108CB003008CA000A1608
:1007F8008A1160210A128A11831203134A08803E63
:1008080083160313C500450883160317A8003D3057
:1008180083160313AB00CC30AA00CC30A900CD302E
:10082800A800400883120313CD00831603133F0862
:1008380083120313CC00831603133E088312031399
:10084800CB00831603133D0883120313CA000A164C
:100858008A1160210A128A11831203134A08A2001E
:100868004B08A3000030A31BFF30A400A5000130F3
:100878000A168A1145250A128A11831203132508BC
:10088800D8002408D7002308D6002208D500BF3096
:10089800B3008030B2000030B1000030B0008316E1
:1008A8000313400883120313B700831603133F088A
:1008B80083120313B600831603133E08831203132F
:1008C800B500831603133D0883120313B4000A12FC
:1008D8008A1144200A128A11831203133308DC0098
:1008E8003208DB003108DA003008D9000A128A150C
:1008F80078250A128A1183120313580883160313E2
:10090800AF0083120313570883160313AE00831234
:100918000313560883160313AD00831203135508F7
:1009280083160313AC000A128A1590200A128A1142
:10093800831603132B0883160317C70083160313A4
:100948002A0883160317C60083160313290883167B
:100958000317C50083160313280883160317C4005A
:10096800470883120313CD00831603174608831222
:100978000313CC0083160317450883120313CB0017
:1009880083160317440883120313CA000A168A1130
:1009980060210A128A11831203134A08831603136B
:1009A800C500450883160317A900BC2D8316031339
:1009B800400883120313CD00831603133F088312E4
:1009C8000313CC00831603133E0883120313CB00D2
:1009D800831603133D0883120313CA000A168A11EB
:1009E80060210A128A11831203134A08831603131B
:1009F800C500450883160317A8008316031340088B
:100A0800A7003F08A6003E08A5003D08A40040082E
:100A180083120313CD00831603133F0883120313B5
:100A2800CC00831603133E0883120313CB008316EE
:100A380003133D0883120313CA000A168A116021A2
:100A48000A128A11831203134A0883160313C50076
:100A5800C601C701C801480883120313A5008316FD
:100A68000313470883120313A400831603134608CD
:100A780083120313A3008316031345088312031379
:100A8800A20001300A168A1145250A128A1183121A
:100A98000313250883160313A300831203132408E2
:100AA80083160313A2008312031323088316031368
:100AB800A10083120313220883160313A0000A1649
:100AC8008A15D3250A128A11831603132308AF0047
:100AD8002208AE002108AD002008AC003D30AB0074
:100AE800CC30AA00CC30A900CD30A8000A128A1553
:100AF80090200A128A11831603132B0883160317F2
:100B0800CB00831603132A0883160317CA0083161B
:100B18000313290883160317C9008316031328082B
:100B280083160317C8004B0883120313CD008316DE
:100B380003174A0883120313CC00831603174908C6
:100B480083120313CB008316031748088312031379
:100B5800CA000A168A1160210A128A118312031325
:100B68004A0883160313C500450883160317A9000E
:100B780083160313440883120313CD00831603134B
:100B8800430883120313CC0083160313420883120D
:100B98000313CB0083160313410883120313CA00FF
:100BA8000A168A1160210A128A11831203134A084D
:100BB80083160313C500450883160317AA00831676
:100BC80003134408A7004308A6004208A5004108EB
:100BD800A400440883120313CD00831603134308AB
:100BE80083120313CC0083160313420883120313E2
:100BF800CB0083160313410883120313CA000A1695
:100C08008A1160210A128A11831203134A08831673
:100C18000313C500C601C701C8014808831203139E
:100C2800A50083160313470883120313A400831631
:100C38000313460883120313A300831603134508FE
:100C480083120313A20001300A168A1145250A12DD
:100C58008A1183120313250883160313A300831232
:100C68000313240883160313A20083120313230813
:100C780083160313A1008312031322088316031398
:100C8800A0000A168A15D3250A128A11831603139F
:100C98002308AF002208AE002108AD002008AC00F0
:100CA8003D30AB00CC30AA00CC30A900CD30A80034
:100CB8000A128A1590200A128A11831603132B0828
:100CC80083160317CB00831603132A08831603170A
:100CD800CA0083160313290883160317C90083164D
:100CE8000313280883160317C8004B08831203133D
:100CF800CD00831603174A0883120313CC0083160A
:100D08000317490883120313CB00831603174808F7
:100D180083120313CA000A168A1160210A128A1163
:100D2800831203134A0883160313C5004508831664
:100D38000317AB00FE3083160313C500450883165E
:100D48000317AC00080083120313EF0006306F0688
:100D5800031DAF2EB02EB42E0130EE006E08F90739
:100D680004306F06031DB92EBA2EBC2E0130F902CD
:100D780002306F06031DC12EC22E182F03307906CC
:100D8800031DC72EC82E182F3D30D800CC30D700F1
:100D9800CC30D600CD30D5008316031367088312F4
:100DA8000313DC0083160313660883120313DB00A6
:100DB80083160313650883120313DA0083160313DB
:100DC800640883120313D9000A128A1578250A12B7
:100DD8008A1183120313580883160313E70083123A
:100DE8000313570883160313E600831203135608E8
:100DF80083160313E50083120313550883160313A0
:100E0800E4006708C0006608BF006508BE00640803
:100E1800BD000A168A1101260A128A11AD300A1677
:100E28008A1538270A128A110830831203136F06AD
:100E3800031D1F2F202F5A2F03307906031D252F3E
:100E4800262F5A2F3D3083160313A300CC30A2005F
:100E5800CC30A100CD30A0006708A7006608A60026
:100E68006508A5006408A4000A168A15D3250A1285
:100E78008A11831603132308E7002208E6002108D5
:100E8800E5002008E4006708C0006608BF006508A0
:100E9800BE006408BD000A168A1101260A128A11CA
:100EA800AD300A168A1538270A128A1104307902D9
:100EB800031C5F2F602F622FF901F90A7908031DBF
:100EC800662F672F6D2F033083120313EE006E0811
:100ED800F900423083160313A3000C30A20000303F
:100EE800A1000030A0006708A7006608A6006508F2
:100EF800A5006408A4000A168A11F0260A128A11AD
:100F08000318872F882F922F423083160313E70088
:100F18000C30E6000030E5000030E40083160313CF
:100F28006708A3006608A2006508A1006408A0007D
:100F38004130A7004030A6000030A5000030A400D2
:100F48000A168A11F0260A128A110318AC2FAD2F3F
:100F5800B72F413083160313E7004030E600003016
:100F6800E5000030E4000800803083160313870092
:100F78002030980090308312031398002E08F40054
:100F88002F08F5003008F6003108F7000430031088
:100F9800F40DF50DF60DF70DFF3E031DCB2F770869
:100FA800A3007608A2007508A1007408A00000300C
:100FB800A7007A30A6001230A5000030A4000A1657
:100FC8008A11ED230A128A11831203132008FF3EA7
:100FD800831603139900C030F40074088B04223080
:0A0FE800F40074088C04E301080013
:1010040000340034B034413401346C3423340C34AF
:101014006334831603171A08803AFF0081307F0275
:10102400031D1628F5301902031C19281A288F28C5
:10103400831603173F0883160313A30083160317AD
:101044003E0883160313A200831603173D08831674
:101054000313A100831603173C0883160313A0008F
:101064004230A700C830A6000030A5000030A4001C
:101074000A168A11F0260A128A15031C42284328EC
:101084004E28003083160317BF000030BE00003026
:10109400BD000030BC008D283D3083120313D800FE
:1010A400CC30D700CC30D600CD30D5008316031712
:1010B4003F0883120313DC00831603173E088312D0
:1010C4000313DB00831603173D0883120313DA00AE
:1010D400831603173C0883120313D9000A128A15D6
:1010E40078250A128A1583120313580883160317E6
:1010F400BF0083120313570883160317BE0083121D
:101104000313560883160317BD00831203135508EF
:1011140083160317BC0099019A0108008316031370
:101124002F08803983120313E90069088316031317
:10113400B4002F0883120313E9006907EA006A0860
:1011440083160313BB00AE1FA828A928AA283B14A2
:101154003B080319AE28AF28BF283B0A031DB32858
:10116400B428BC280030AF000030AE000030AD0021
:101174000030AC00AE17AF01C7280030AF0000301C
:10118400AE000030AD000030AC002B088039831273
:101194000313E900690883160313B4062B088312AA
:1011A4000313E9006907EA006A0883160313BC0005
:1011B400AA1FDD28DE28DF283C143C080319E32895
:1011C400E428F4283C0A031DE828E928F128003023
:1011D400AB000030AA000030A9000030A800AA1714
:1011E400AB01FC280030AB000030AA000030A9009D
:1011F4000030A8002B082A0429042804031D03290D
:10120400042921290030AF000030AE000030AD00C9
:101214000030AC008030AE047F30AF043408831259
:101224000313E900690883160313AF042F08AB0006
:101234002E08AA002D08A9002C08A800F22A3B08B1
:10124400031D252926292F290030AB000030AA00D0
:101254000030A9000030A800F22A3B0883120313CF
:10126400E900EA016A08EC00831603133C088312C0
:1012740003136902EB00031CEC036B087F3E831627
:101284000313B500831203136C080318013E003ED8
:1012940083160313B6002F08B3002E08B2002D08DE
:1012A400B1002C08B0000030AF000030AE000030B8
:1012B400AD000030AC000030BA000030B90000309E
:1012C400B8000030B700BC01C9293C0803196B29D8
:1012D4006C299E29013083120313E900031083163D
:1012E4000313B00DB10DB20DB30D83120313E90B4B
:1012F40070290130E900031083160313AC0DAD0D02
:10130400AE0DAF0D83120313E90B7D29831603136E
:10131400BA1F8D298E298F292C14013083120313AF
:10132400E900031083160313B70DB80DB90DBA0DF8
:1013340083120313E90B9329831603132B08330237
:10134400031DAE292A083202031DAE2929083102E1
:10135400031DAE2928083002031CB129B229C12972
:101364003A172808B0022908031C290FB1022A08D9
:10137400031C2A0FB2022B08031C2B0FB3020130EB
:1013840083120313E900690883160313BC071A3098
:101394003C02031CCE29CF296729330832043104C7
:1013A40030040319D629D729062A3714062A01300E
:1013B40083120313E900031083160313AC0DAD0D60
:1013C400AE0DAF0D83120313E90BDD29831603134E
:1013D400BA1FED29EE29EF292C14013083120313CF
:1013E400E900031083160313B70DB80DB90DBA0D38
:1013F40083120313E90BF329FF3083160313B50794
:101404000318B60AFF30B607AE1F092A0A2AD929DB
:10141400BC01BA1F0E2A0F2A3D2AFF30370583125A
:101424000313E900FF3083160313380583120313F3
:10143400EA00FF3083160313390583120313EB000C
:101444007F30831603133A0583120313EC006C08F0
:101454006B046A0469040319302A312A362A831674
:101464000313BC01BC0A3D2A831603132C1C3B2A1C
:101474003C2A3D2A312A3C080319412A422A8F2A50
:101484000130AC07003003180130AD0700300318F9
:101494000130AE07003003180130AF072F1C532A68
:1014A400542A8F2A2C0883120313E900831603138A
:1014B4002D0883120313EA00831603132E088312E4
:1014C4000313EB00831603132F0883120313EC009A
:1014D4000130ED006C0DEC0CEB0CEA0CE90CED0B9F
:1014E4006C2A6C0883160313AF00831203136B0872
:1014F40083160313AE00831203136A0883160313BF
:10150400AD0083120313690883160313AC00013082
:10151400B5070318B60A0030B6073608803AFF004C
:1015240080307F02031D982AFF303502031C9B2A5A
:101534009C2AAA2AFF3083160313B5000030B60094
:101544000030AF000030AE000030AD000030AC0021
:10155400831603133608803AFF0080307F02031D90
:10156400B52A013035020318B82AB92AC62A8316C7
:101574000313B501B6010030AF000030AE000030F7
:10158400AD000030AC00B401831603133508831298
:101594000313E900690883160313BB003B1CD32A19
:1015A400D42AD62AAE17DE2A7F3083120313E90029
:1015B400690883160313AE053B0883120313E9007D
:1015C4000310690CEA006A0883160313AF00340899
:1015D40083120313E900690883160313AF0418295F
:1015E400080083160313C500F30145080A168A157B
:1015F40050240A128A15831603134008A3003F08D7
:10160400A2003E08A1003D08A0000030A700003061
:10161400A6000030A5000030A4000A168A11F026A6
:101624000A128A150318172B182B5F2BF301F30AE0
:101634002D300A168A1550240A128A15BF308312D7
:101644000313B3008030B2000030B1000030B000AA
:1016540083160313400883120313B700831603137E
:101664003F0883120313B600831603133E08831244
:101674000313B500831603133D0883120313B40048
:101684000A128A1144200A128A158312031333089A
:1016940083160313C0008312031332088316031343
:1016A400BF0083120313310883160313BE00831291
:1016B4000313300883160313BD0083160313400875
:1016C400AF003F08AE003E08AD003D08AC0042301C
:1016D400AB00C830AA000030A9000030A8000A12EC
:1016E4008A1590200A128A15831603132B08831275
:1016F4000313CD00831603132A0883120313CC00AB
:1017040083160313290883120313CB0083160313D0
:10171400280883120313CA000A168A1160210A12C8
:101724008A15831203134A0883160313C100410860
:10173400C800480803199F2BA02BA92BF301F30A17
:101744004808303E0A168A1550240A128A15643055
:10175400F5000030F600831603134808C100C201E7
:101764004108F3004208F4000A168A15F6230A1207
:101774008A15730883120313A2007408A3000030AF
:10178400A31BFF30A400A50001300A168A114525C9
:101794000A128A1583120313250883160313A30060
:1017A40083120313240883160313A2008312031362
:1017B400230883160313A10083120313220883163C
:1017C4000313A0004008A7003F08A6003E08A50098
:1017D4003D08A4000A168A15D3250A128A15831611
:1017E40003132308C0002208BF002108BE002008FC
:1017F400BD004008AF003F08AE003E08AD003D0804
:10180400AC004130AB002030AA000030A900003009
:10181400A8000A128A1590200A128A158316031347
:101824002B0883120313CD00831603132A08831293
:101834000313CC0083160313290883120313CB006C
:1018440083160313280883120313CA000A168A1185
:1018540060210A128A15831203134A08831603139C
:10186400C1004108C90049080319392C3A2C432CFA
:10187400F301F30A4908303E0A168A1550240A1265
:101884008A150A30F5000030F60083160313490860
:10189400C100C2014108F3004208F4000A168A1587
:1018A400F6230A128A15730883120313A20074081C
:1018B400A3000030A31BFF30A400A50001300A16CA
:1018C4008A1145250A128A158312031325088316E3
:1018D4000313A30083120313240883160313A20023
:1018E40083120313230883160313A1008312031323
:1018F400220883160313A0004008A7003F08A6008F
:101904003E08A5003D08A4000A168A15D3250A122C
:101914008A15831603132308C0002208BF00210878
:10192400BE002008BD004008AF003F08AE003E08DE
:10193400AD003D08AC003F30AB008030AA00003061
:10194400A9000030A8000A128A1590200A128A15EC
:10195400831603132B0883120313CD00831603137A
:101964002A0883120313CC00831603132908831255
:101974000313CB0083160313280883120313CA002E
:101984000A168A1160210A128A15831203134A085F
:1019940083160313C1004108C700F301F30A470883
:1019A400303E0A168A1550240A128A158316031328
:1019B4004708C100C201C301C401440883120313D0
:1019C400A50083160313430883120313A40083168C
:1019D4000313420883120313A3008316031341085D
:1019E40083120313A20001300A168A1145250A1234
:1019F4008A1583120313250883160313A300831285
:101A04000313240883160313A20083120313230869
:101A140083160313A10083120313220883160313EE
:101A2400A0004008A7003F08A6003E08A5003D0806
:101A3400A4000A168A15D3250A128A1583160313DD
:101A44002308C0002208BF002108BE002008BD00F2
:101A54004008AF003F08AE003E08AD003D08AC00B2
:101A64003D30AB00CC30AA00CC30A900CD30A8006A
:101A74000A128A1590200A128A15831603132B085A
:101A840083120313CD00831603132A08831203134E
:101A9400CC0083160313290883120313CB00831687
:101AA4000313280883120313CA000A168A1160213B
:101AB4000A128A15831203134A0883160313C100FA
:101AC4004108C600F301F30A2E300A168A15502481
:101AD4000A128A15F301F30A831603134608303EEB
:101AE4000A168A1550240A128A1508008312031351
:101AF40058088039DD005D08E5005808DD005D0701
:101B0400DE005E08E700D71F882D892D8A2D671413
:101B1400670803198E2D8F2D9F2D670A031D932DA2
:101B2400942D9C2D0030D8000030D7000030D60012
:101B34000030D500D717D801A72D0030D8000030C9
:101B4400D7000030D6000030D5005C088039DD00B5
:101B54005D08E600660865060319B12DB22DB32DA4
:101B640065175C08DD005D07DE005E08E600DB1F2C
:101B7400BC2DBD2DBE2D661466080319C22DC32DC0
:101B8400D32D660A031DC72DC82DD02D0030DC00CF
:101B94000030DB000030DA000030D900DB17DC0154
:101BA400DB2D0030DC000030DB000030DA000030D8
:101BB400D900670866020318E02DE12D252E651F64
:101BC400E42DE52DE92D8030DD005D08E50667088C
:101BD400DD005D08E8006608DD005D08E7006808D0
:101BE400DD005D08E6005508DD005D08E8005908E1
:101BF400DD005D08D5006808DD005D08D9005608E1
:101C0400DD005D08E8005A08DD005D08D6006808BC
:101C1400DD005D08DA005708DD005D08E8005B08B8
:101C2400DD005D08D7006808DD005D08DB005808AA
:101C3400DD005D08E8005C08DD005D08D800680888
:101C4400DD005D08DC00E8016608DD00DE015E08F9
:101C5400E00067085D02DF00031CE0036008803ACF
:101C6400FF0080307F02031D392E1A305F02031CEF
:101C74003C2E3D2E7A2E8312031358085704560423
:101C84005504031D462E482E0130492E0030DD0038
:101C94005D08E8000030D8000030D7000030D600DE
:101CA4000030D5006608DD005D08E700822E681C60
:101CB4005C2E5D2E662E6808DD0003105D0C013875
:101CC400DE005E08E800682E0310E80C551C6B2E3D
:101CD4006C2E6D2EE8170130DD00580DD80CD70C92
:101CE400D60CD50CDD0B6F2E0130DD005D08E70747
:101CF4008312031366086702031C812E822E592E59
:101D0400651B852E862ED12E6708031D8A2E8B2EE9
:101D1400942E0030D8000030D7000030D6000030B8
:101D2400D500FF2F5908D5075A0803110318013E9F
:101D340003199D2ED6075B0803110318013E0319EE
:101D4400A42ED7075C0803110318013E0319AB2E18
:101D5400D807581CAE2EAF2E852F681CB22EB32E7A
:101D6400BC2E6808DD0003105D0C0138DE005E083F
:101D7400E800BE2E0310E80C551CC12EC22EC32E43
:101D8400E8170130DD00580DD80CD70CD60CD50C53
:101D9400DD0BC52E0130DD005D08E707852F5808EF
:101DA400803AFF005C08803A7F02031DE32E5B0843
:101DB4005702031DE32E5A085602031DE32E590849
:101DC40055020318E62EE72E3F2FFF30DD00FF30CB
:101DD400DE00FF30DF00FF30E0005908E1005A0860
:101DE400E2005B08E3005C08E4005508E1025608E1
:101DF400031C560FFE2EFF2EE2025708031C570F3A
:101E0400042F052FE3025808031C580F0A2F0B2F29
:101E1400E4026108DD0762080318620F122F132F12
:101E2400DE0763080318630F182F192FDF076408F0
:101E34000318640AE0076008D8005F08D7005E084A
:101E4400D6005D08D5008030DD005D08E506E809B0
:101E5400E80A6808031D2F2F302F4D2F0130D507B6
:101E6400003003180130D607003003180130D707BB
:101E7400003003180130D8074D2F5908D5025A08ED
:101E8400031C5A0FD6025B08031C5B0FD7025C08C5
:101E9400031C5C0FD8025808570456045504031D4C
:101EA400542F552F812F6808031D592F5A2F812F26
:101EB4000030D8000030D7000030D6000030D50004
:101EC400FF2F0130DD000310D50DD60DD70DD80D31
:101ED400DD0B652FE81F6F2F702F712F5514681CB1
:101EE400742F752F782F0314E80D7A2F0310E80D43
:101EF400670803197E2F7F2F812F0130E702D71F38
:101F0400842F852F632FE601E81F892F8A2F982FAE
:101F140068087F3903198F2F902F932FE601E60A63
:101F2400982F551C962F972F982F902F66080319DA
:101F34009C2F9D2FD12F0130D5070030031801307D
:101F4400D607003003180130D707003003180130DA
:101F5400D807581CAE2FAF2FD12F5508DD005608D7
:101F6400DE005708DF005808E0000130E100600D92
:101F7400E00CDF0CDE0CDD0CE10BB92F6008D8009F
:101F84005F08D7005E08D6005D08D500670A03190C
:101F9400CC2FCD2FD12F0130DD005D08E707670A74
:101FA4000319D52FD62FDB2F6708031DDA2FDB2F5C
:101FB400E92F0030D8000030D7000030D6000030C0
:101FC400D5006708031DE72FE82FE92FE501671CFB
:101FD400EC2FED2FEF2FD717F32F7F30DD005D08A7
:101FE400D7056708DD0003105D0CDE005E08D8002D
:101FF400E51FFD2FFE2FFF2FD817080010308A0091
:102004000408840A820700340134043407342A346F
:1020140002340534083400340334063409342334D8
:102024009034C03460343034903430346034C0344C
:10203400903430340834043402340134FE34FD3432
:10204400FB34543465346D347034203420342034FB
:1020540020343A34203420342034203420342034C2
:102064002034483475346D346934643469347434D8
:1020740079343A3420342034203420342034203449
:102084002534003420342034573465346C346334BC
:102094006F346D346534203454346F342034203438
:1020A40020342034203420342034203443346F341A
:1020B4006134633468342034313400345334653447
:1020C40074342034543465346D347034653472346B
:1020D400613474347534723465343A3400345334AE
:1020E40079347334743465346D3420345334743433
:0C20F40061347234743465346434003498
:10210C00F700FA0183160313D001D101E4288316DA
:10211C00031363157A0883120313A200A301220888
:10212C00F3002308F4002C30F5000130F6000A16F9
:10213C008A15F6230A168A117408831603135102A2
:10214C00031DAA2873085002031CAD28AE28902842
:10215C00D001D101FB3083120313A2002208831695
:10216C000313E305E801E80AF80108307802031CC0
:10217C00C028C128C228D628780877078312A20065
:10218C0022088400831700080A168A1581240A166F
:10219C008A11013083120313A2002208F807BB280E
:1021AC008316031368080319DC28DD28DE28E928C8
:1021BC00013083120313A2002208FA077A080319CC
:1021CC00E828E9288D280800831603138615831246
:1021DC0003138619F228F3280429831603135908CC
:1021EC000319F928FA280429D90158080319FF28DA
:1021FC0000290229D8010429D801D80A8312861D86
:10220C00082909292A29831603135908031D0F29A4
:10221C0010292A291A3083120313A500F730A400C1
:10222C00A40B1629A50B16291B2983120313861D33
:10223C00202921292A29831603135908031D27292C
:10224C0028292A29D901D90A831603135708031DF3
:10225C0030293129462958080319352936294629A8
:10226C00193083120313A4002408A00000300A16AE
:10227C008A1585230A168A1183160313D701D70AE8
:10228C00570803194A294B295F295808031D4F2960
:10229C0050295F29193083120313A4002408A000CD
:1022AC0001300A168A1585230A168A118316031320
:1022BC00D70108000310831203134C0D4D0DCE00F3
:1022CC004E08D4005408031D6C296D297629003062
:1022DC00CD000030CC000030CB000030CA00DB2930
:1022EC004A08CE004B08CF004C08D0004D08D10056
:1022FC001F300310D10CD00CCF0CCE0CFF3E031DA5
:10230C007F294E08D2005208D300CC17FF30CA05E3
:10231C00FF30CB05FF30CC050030CD059630D40214
:10232C00D41F99299A29B4295408803A973E031846
:10233C00A029A129A2296D2901300310CD0CCC0CA8
:10234C00CB0CCA0CFF3E031DA3290130CE004E0856
:10235C00D407031DB229B329A229CB29203054025A
:10236C00031CB929BA29C6296D290130CE000310E6
:10237C00CA0DCB0DCC0DCD0DCE0BBD290130D40229
:10238C005408031DCA29CB29BB2953080319CF298B
:10239C00D029DB29CA09CB09CC09CD09CA0A0319F2
:1023AC00CB0A0319CC0A0319CD0A08000A168A15A0
:1023BC0033230A168A110A168A15D4260A168A118C
:1023CC000A168A1510230A168A1100308312031379
:1023DC00B1000030B0002530AF008030AE000A12E2
:1023EC008A11B8270A168A116C300A168A157626B5
:1023FC000A168A110A168A11D8220A168A1183160D
:10240C000313CB004B08DD000A128A150B200A16A9
:10241C008A110A168A15F0240A168A110A168A15C8
:10242C0083250A168A110A168A11EA200A168A11BD
:10243C000A168A118A240A168A11831603135F0856
:10244C000A168A155B230A168A11831603135E0873
:10245C000A168A1547230A168A110A168A15232684
:10246C000A168A1102307906031D3D2A3E2A432A98
:10247C000A168A1521240A168A1183160313621C64
:10248C00482A492A002A0A168A15B4240A168A11DF
:10249C00FE3083160313CB004B08E205002A0A1208
:1024AC008A110C282330831603171106031D5F2A8B
:1024BC00602A8C2A40301206031D652A662A8C2A53
:1024CC0083160313E31500308316031716020A3024
:1024DC0003191502031C732A742A692A95019601A3
:1024EC00F73083120313EE006E0883160313E30513
:1024FC00F301F30A40300A168A156F230A168A1163
:10250C00B3300A168A159C270A168A1183160317EC
:10251C0011030319922A932A952AD72AD72A120330
:10252C00031D992A9A2AC72A831603134F08C00041
:10253C004E08BF004D08BE004C08BD0083160317A3
:10254C003F0883160313C400831603173E08831633
:10255C000313C300831603173D0883160313C2002D
:10256C00831603173C0883160313C1000A128A1141
:10257C00A5230A168A11A5300A168A1186200A1676
:10258C008A112030831603171206031DCE2ACF2A78
:10259C00942A130883120313EE006E088316031398
:1025AC00D6000800F830F300730883160313860571
:1025BC000F30F30073088804E1010730F30073084F
:1025CC008312031386048316031361081B3E8400D5
:1025DC000A168A1100200A168A11F3007308831256
:1025EC00031386050930F300F30BFA2AFD2A831630
:1025FC000313E0016008173E84000A168A110020BC
:10260C000A168A11831203130805031D0E2B0F2BB8
:10261C003B2B83160313E214831603172408803A0A
:10262C00FF0080307F02031D1D2B0B302302031C87
:10263C00202B212B3B2B831603136108F300023054
:10264C000310F30DFF3E031D262B60087307F400E7
:10265C007408EC00FD30F3007308E20583160317D1
:10266C00A301A4018316031362140130F300730851
:10267C0083160313E00704306002031C462B472B20
:10268C00002B0130F3007308E10703306102031CD7
:10269C00502B512BE32A6C08013E84000A168A1138
:1026AC0000200A168A110800831203138C1E5F2B5C
:1026BC00602B6F2B83160313E318652B662B6F2B84
:1026CC00831203131A08F000700883160313D50045
:1026DC00E31483120C1E732B742B8E2B0030831679
:1026EC0003171802063003191702031C7E2B7F2BCD
:1026FC008E2B831203131A08F00070088316031331
:10270C00D4005408530603198C2B8D2B8E2BE80107
:10271C000B1D912B922BE62B83160313E31C972B8B
:10272C00982BA02B01308316031797070318980AD0
:10273C00003098070313631DA42BA52BAB2B013082
:10274C00D0070318D10A0030D107E31DAE2BAF2BF5
:10275C00B72B01308316031795070318960A003020
:10276C0096070313E21CBB2BBC2BC42B0130831626
:10277C000317A3070318A40A0030A40703135C0A69
:10278C00031DC92BCA2BCC2BDC01D02B0130F00044
:10279C007008DC07FB30F00070088B05B230831238
:1027AC00031381000130831603179B0703189C0A3F
:1027BC0000309C070130990703189A0A00309A07D9
:1027CC0072088A00710E8300FE0E7E0E09008312C1
:1027DC000313A901A31FF32BF42B012CA009A109AE
:1027EC00A209A309A00A0319A10A0319A20A031931
:1027FC00A30AA901A90AA71F042C052C142CA409AF
:10280C00A509A609A709A40A0319A50A0319A60A6A
:10281C000319A70A0130F3007308A9060030AD00B4
:10282C000030AC000030AB000030AA0023082204BA
:10283C00210420040319232C242C712CA801A80A90
:10284C00342C0130F3000310A00DA10DA20DA30D2B
:10285C00F30B292C0130F3007308A807A31F372CA6
:10286C00382C272C0130F3000310AA0DAB0DAC0D46
:10287C00AD0DF30B3A2C23082702031D4F2C220815
:10288C002602031D4F2C21082502031D4F2C200866
:10289C002402031C522C532C622C2008A402210865
:1028AC00031C210FA5022208031C220FA6022308D9
:1028BC00031C230FA7022A1401300310A30CA20C33
:1028CC00A10CA00CFF3E031D632C0130A802031DBC
:1028DC00702C712C382C29080319752C762C812C12
:1028EC00AA09AB09AC09AD09AA0A0319AB0A031969
:1028FC00AC0A0319AD0A2D08A3002C08A2002B0862
:10290C00A1002A08A0000800831603134F08A30097
:10291C004E08A2004D08A1004C08A000BF30831245
:10292C000313D8000030D7000030D6000030D5009B
:10293C0083160313670883120313DC008316031337
:10294C00660883120313DB008316031365088312D6
:10295C000313DA0083160313640883120313D900DC
:10296C000A128A1578250A168A118312031358083D
:10297C0083160313A700831203135708831603133C
:10298C00A60083120313560883160313A5008312A3
:10299C000313550883160313A4000A168A11F02694
:1029AC000A168A110318DB2CDC2CE62CC830831297
:1029BC000313ED006D0883160313DF00DE01442DB5
:1029CC003F3083120313D8000030D7000030D600FC
:1029DC000030D50083160313670883120313DC0041
:1029EC0083160313660883120313DB008316031389
:1029FC00650883120313DA00831603136408831229
:102A0C000313D9000A128A1578250A168A11831223
:102A1C000313580883160313A300831203135708D8
:102A2C0083160313A2008312031356088316031391
:102A3C00A10083120313550883160313A0004F083B
:102A4C00A7004E08A6004D08A5004C08A4000A16C5
:102A5C008A11F0260A168A110318352D362D402DB1
:102A6C00C83083120313ED006D0883160313DE00C8
:102A7C00DF01442D83160313DF01DE0108008312EE
:102A8C000313AA002A0803194C2D4D2D612DA51FE7
:102A9C00502D512D612D2209AC002309AD002409C4
:102AAC00AE002509AF00AC0A0319AD0A0319AE0A32
:102ABC000319AF0A692D2508AF002408AE002308BE
:102ACC00AD002208AC002508240423042204031DB5
:102ADC00702D712D7A2D0030A5000030A40000302F
:102AEC00A3000030A200002E9630A6002608AB00F2
:102AFC008C2D0130A6002608AB0701300310AF0C5B
:102B0C00AE0CAD0CAC0CFF3E031D842DFE302F051E
:102B1C00031D912D922D7F2DAE2D0130A600260880
:102B2C00AB070130AC07003003180130AD070030A3
:102B3C0003180130AE07003003180130AF07013025
:102B4C000310AF0CAE0CAD0CAC0CFF3E031DA62D50
:102B5C00FF302F05031DB32DB42D932DC02D013047
:102B6C00AB020130A6000310AC0DAD0DAE0DAF0DD8
:102B7C00A60BB92DAE1BC32DC42DCA2D02302B02B2
:102B8C000318C92DCA2DB52D2B18CD2DCE2DD62D14
:102B9C00FF30AC05FF30AD057F30AE05FF30AF0523
:102BAC000310AB0C2B08A600A701A801A901183033
:102BBC000310A60DA70DA80DA90DFF3E031DDE2DBC
:102BCC002608AC042708AD042808AE042908AF0475
:102BDC002A080319F22DF32DF82DA51FF62DF72D2C
:102BEC00F82DAF172F08A5002E08A4002D08A30060
:102BFC002C08A2000800FF3083160313C100410803
:102C0C0083160317AD00AE01AE0A0430831603130E
:102C1C00C100410883160317AF0083160313400845
:102C2C0083120313CD00831603133F08831203137F
:102C3C00CC00831603133E0883120313CB008316B8
:102C4C0003133D0883120313CA000A168A1160216C
:102C5C000A168A11831203134A0883160313C10040
:102C6C00410883160317B000831603134008A7000E
:102C7C003F08A6003E08A5003D08A40040088312AA
:102C8C000313CD00831603133F0883120313CC00E8
:102C9C00831603133E0883120313CB00831603130E
:102CAC003D0883120313CA000A168A1160210A1602
:102CBC008A11831203134A0883160313C100C2013D
:102CCC00C301C401440883120313A5008316031324
:102CDC00430883120313A4008316031342088312C0
:102CEC000313A30083160313410883120313A200DA
:102CFC0001300A168A1145250A168A11831203130C
:102D0C00250883160313A3008312031324088316C8
:102D1C000313A20083120313230883160313A100C9
:102D2C0083120313220883160313A0000A168A15B4
:102D3C00D3250A168A11831603132308AF00220821
:102D4C00AE002108AD002008AC003D30AB00CC300B
:102D5C00AA00CC30A900CD30A8000A128A15902008
:102D6C000A168A11831603132B08C8002A08C700F9
:102D7C002908C6002808C500480883120313CD0093
:102D8C0083160313470883120313CC008316031313
:102D9C00460883120313CB008316031345088312D2
:102DAC000313CA000A168A1160210A168A118312AB
:102DBC0003134A0883160313C10041088316031733
:102DCC00B100FE3083160313C100410883160317AC
:102DDC00B20008000030831603132005831203137E
:102DEC00E900003083160313210583120313EA0054
:102DFC00803083160313220583120313EB007F30FC
:102E0C0083160313230583120313EC006C086B0465
:102E1C006A046904031D132F142F1E2F0030831610
:102E2C000313A3000030A2000030A1000030A0006A
:102E3C00003083160313240583120313E9000030BA
:102E4C0083160313250583120313EA0080308316BF
:102E5C000313260583120313EB007F308316031331
:102E6C00270583120313EC006C086B046A046904D5
:102E7C00031D412F422F4C2F003083160313A70044
:102E8C000030A6000030A5000030A4008316031308
:102E9C00A31F512F522F9A2F003083120313E900D6
:102EAC000030EA000030EB008030EC008316031396
:102EBC00200883120313E902831603132108031C51
:102ECC00210F692F6C2F83120313EA02831603134D
:102EDC002208031C220F732F762F83120313EB028D
:102EEC00831603132308031C230F7D2F802F8312BB
:102EFC000313EC0283160313831203136C0883165B
:102F0C000313A300831203136B0883160313A2008D
:102F1C00831203136A0883160313A100831203138D
:102F2C00690883160313A000A71F9D2F9E2FE62F61
:102F3C00003083120313E9000030EA000030EB008C
:102F4C008030EC0083160313240883120313E90268
:102F5C00831603132508031C250FB52FB82F8312D6
:102F6C000313EA02831603132608031C260FBF2F34
:102F7C00C22F83120313EB02831603132708031CBF
:102F8C00270FC92FCC2F83120313EC0283160313C4
:102F9C00831203136C0883160313A7008312031305
:102FAC006B0883160313A600831203136A08831697
:102FBC000313A50083120313690883160313A400DB
:102FCC008030A3068030A70627082302031DF82FA4
:102FDC0026082202031DF82F25082102031DF82FB5
:102FEC00240820020318FB2FFC2FFE2F0310FF2FA9
:042FFC0003140800B2
:1035F80064008001840A0406031900340406FD2AC5
:103608003E343F341E345B34003400344834423492
:103618000034003400343F34831603130515013099
:10362800831203139F008030831603139F000D300D
:10363800F300F30B1D2B08007E088A007F08820028
:103648000A168A1520230A168A158000840A040897
:103658007D0603190034FF0A0319FE0A242B83167A
:10366800031389018801831203138801A030F30032
:1036780073088B040230831603138100063083120B
:10368800031381000800F4007408831603135C0216
:1036980003184F2B502B542B8312031307155A2B47
:1036A800FB30F30073088312031387050800F40046
:1036B8007408831603135C020318632B642B682BAE
:1036C8008312031387166E2BDF30F30073088312FF
:1036D800031387050800F500FF30F400740883160B
:1036E8000317B300B401B40A7508F4007408B500F0
:1036F8007308F4007408B600FE30F4007408B700CC
:10370800080083120313A2000F30A10021088316BA
:103718000313880583120313A3019E2B22080A169C
:103728008A1539250A168A15013083120313A10058
:103738002108A30720082302031CA32BA42B922BE8
:103748000800F700C730F5007508831203139F05BA
:1037580077080739F50002300310F50DFF3E031D09
:10376800B02B0310750DF60076089F040630F5009F
:10377800F50BBC2B0000831203131F151F19C52B53
:10378800C62BC22B1E08F400831603131E08F30071
:10379800080083120313A400A001A1017308F50017
:1037A800F6017508A2007608A300241CDC2BDD2B8B
:1037B800E32B2208A0070318A10A2308A107013058
:1037C8000310A20DA30DFF3E031DE42B0310A40C50
:1037D8002408031DF02BF12BD92B2108F400200815
:1037E800F300080083120313A001A101731CFD2B31
:1037F800FE2B062C750883120313A0070318A10AD1
:103808007608A10701300310F50DF60DFF3E031DE4
:10381800072C01300310F40CF30CFF3E031D0E2C93
:1038280073087404031D192C1A2CFA2B8312031322
:103838002108F4002008F3000800831603173F0846
:1038480083160313C000831603173E088316031359
:10385800BF00831603173D0883160313BE008316A3
:1038680003173C0883160313BD00CA300A128A15D1
:10387800F3220A168A15831603134F08C0004E0850
:10388800BF004D08BE004C08BD008A300A128A15D8
:10389800F3220A168A150800F60083160313880116
:1038A80089018312031389147608880073080319A1
:1038B8005E2C5F2C612C0915652CFB30F400740814
:1038C80089050830F500C930F400F40B692CF50BB4
:1038D800692C6E2CFD30F4007408831203138905DB
:1038E8000830F500C930F400F40B782CF50B782C6F
:1038F8007D2C8312031389140800F4007408F30064
:10390800730883160313D3008316031797019801CE
:1039180001308312031389000C1E932C942C902CD5
:1039280083160313E31474088312031399000030F9
:10393800831603171802073003191702031CA52C56
:10394800A62C9B2CFD30F300730883160313E305A4
:10395800831603179701980183120313890108003E
:10396800831603135D080A128A11A7260A168A15F8
:103978007908831603135B060319C32CC42CDB2CAC
:10398800F30101300A168A1550240A168A15790897
:10399800B83E8400831700080A168A1576260A1688
:1039A8008A15790883160313CA004A08DB00033016
:1039B8007906031DE02CE12CEF2C6708C00066088F
:1039C800BF006508BE006408BD00C6300A128A152B
:1039D800F3220A168A1508003E3083120313B30037
:1039E800FA30B2005E30B1003530B00002300A164D
:1039F8008A15A5230A168A15730883120313A200D1
:103A08007408A3000030A31BFF30A400A5000130F8
:103A18000A168A1145250A168A15831203132508E2
:103A2800B7002408B6002308B5002208B4000A121B
:103A38008A1144200A168A15831203133308831641
:103A48000313CF0083120313320883160313CE0027
:103A580083120313310883160313CD008312031353
:103A6800300883160313CC000800F5007508031D01
:103A78003E2D3F2D5E2DF6017608123E84000A1673
:103A88008A1100200A168A158312031388001A3037
:103A9800F400F830F300F30B4F2DF40B4F2D00001A
:103AA8000130F3007308F60705307602031C5D2D1C
:103AB8005E2D402D7503031D622D632D822DF701A8
:103AC80077080D3E84000A168A1100200A168A1506
:103AD8008312031388001A30F400F830F300F30B54
:103AE800732DF40B732D00000130F3007308F707F2
:103AF80005307702031C812D822D642D0800831662
:103B0800031306158312031306198B2D8C2D9E2D76
:103B1800831603135A080319922D932D9E2DDA014B
:103B2800621D972D982D9D2DFB30F3007308E2053B
:103B38009E2D62158312061DA22DA32DC22D83165C
:103B480003135A08031DA92DAA2DC22D1A30F400FB
:103B5800F830F300F30BAE2DF40BAE2D00008312FA
:103B68000313061DB82DB92DC22D831603135A0849
:103B7800031DBF2DC02DC22DDA01DA0A83160313E7
:103B8800621DC72DC82DCC2D831203138714D22D87
:103B9800FD30F30073088312031387050800803093
:103BA80083160313A306270883120313D80083166A
:103BB8000313260883120313D7008316031325085B
:103BC80083120313D60083160313240883120313E6
:103BD800D50083160313230883120313DC0083160E
:103BE8000313220883120313DB008316031321082F
:103BF80083120313DA0083160313200883120313B6
:103C0800D9000A128A1578250A168A158312031311
:103C1800580883160313A300831203135708831647
:103C28000313A20083120313560883160313A1007B
:103C380083120313550883160313A0000800831684
:103C4800031356080319292E2A2E2F2E8801FF3018
:103C5800831203138800831603135608031D352E99
:103C6800362E3A2E88018312031388018316031314
:103C7800E31C3F2E402E752EFD3083120313EF00F8
:103C88006F0883160313E305550A031D4C2E4D2EAA
:103C98004E2ED201FE305506031D532E542E592E9A
:103CA8000A168A1158220A168A1505308316031334
:103CB80052020318602E612E752E550883120313C5
:103CC800EF00831603135208903E840083120313F7
:103CD8006F08831780000130EF006F088316031305
:103CE800D207080083120313A000A101C62E1030CA
:103CF80021020318802E812E972EF301F30A210842
:103D0800200784000A168A1100200A168A150A1646
:103D18008A1550240A168A150130F700770883128D
:103D28000313A107C62E10302106031D9C2E9D2EBD
:103D3800B62EF301C0300A168A1550240A168A15C1
:103D4800F301F30A831203132108200784000A16DB
:103D58008A1100200A168A150A168A1550240A168E
:103D68008A15902EF301F30A2108200784000A1609
:103D78008A1100200A168A150A168A1550240A166E
:103D88008A15902E2108200784000A168A1100201F
:103D98000A168A15003A031DD22ED32E7B2E080050
:103DA80083120313090802398900090804398900B4
:103DB800343083120313A100F130A000A00BE22ECF
:103DC800A10BE22E83120313090802388900F301BC
:103DD80038300A168A1550240A168A150D308312AF
:103DE8000313A100FB30A000A00BF82EA10BF82EA6
:103DF800F30138300A168A1550240A168A1503303A
:103E080083120313A1009730A000A00B092FA10B68
:103E1800092FF30138300A168A1550240A168A1514
:103E2800F3010F300A168A1550240A168A15F30171
:103E380001300A168A1550240A168A15F3010E3025
:103E48000A168A1550240A168A15F30180300A16B4
:103E58008A1550240A168A15F3010C300A168A1599
:103E680050240A168A150800F700FA01831603136E
:103E7800D001D101962F8316031363157A08831294
:103E88000313A200A3012208F3002308F4002C3036
:103E9800F5000130F6000A168A15F6230A168A1567
:103EA8007408831603135102031D5C2F7308500214
:103EB800031C5F2F602F422FD001D101FB308312EA
:103EC8000313A200220883160313E305E801E80A96
:103ED800F80106307802031C722F732F742F882F75
:103EE800780877078312A200220884008317000845
:103EF8000A168A1581240A168A15013083120313BB
:103F0800A2002208F8076D2F831603136808031907
:103F18008E2F8F2F902F9B2F013083120313A20017
:103F28002208FA077A0803199A2F9B2F3F2F0800B7
:103F3800F700FA0183160313D001D101FA2F831673
:103F4800031363157A0883120313A200A30122083E
:103F5800F3002308F4002C30F5000130F6000A16AF
:103F68008A15F6230A168A15740883160313510254
:103F7800031DC02F73085002031CC32FC42FA62F84
:103F8800D001D101FB3083120313A200220883164B
:103F98000313E305E801E80AF80105307802031C79
:103FA800D62FD72FD82FEC2F780877078312A200A7
:103FB80022088400831700080A168A1581240A1625
:103FC8008A15013083120313A2002208F807D12FA3
:103FD8008316031368080319F22FF32FF42FFF2F0A
:103FE800013083120313A2002208FA077A08031982
:083FF800FE2FFF2FA32F08008C
:02400E00F23F7F
:00000001FF
