:060000000A128A110C280F
:10000800FE00030EF1000A08F2000A168A11632E98
:100018000A128A110F288313AC30FD001530FE0038
:100028002530FF00A03084000A128A1584200A12A5
:100038008A117030FD001530FE001D30FF00683059
:1000480084000A128A1584200A128A11AC308400AE
:10005800B6300A168A1115250A128A1157308400FB
:1000680068300A168A1115250A128A11F801F90151
:10007800FA0183010A128A11322E831203133308FC
:100088008039B8003808BD003308B8003807B9000F
:100098003908C300B21F5128522853284314430873
:1000A8000319572858286728430A031D5C285D2828
:1000B80065280030B3000030B2000030B1000030D5
:1000C800B000B2176F280030B3000030B200003023
:1000D800B1000030B00037088039B8003808BD06D4
:1000E8003708B8003807B9003908C200B61F7D289C
:1000F8007E287F28421442080319832884289328DD
:10010800420A031D8828892891280030B70000304A
:10011800B6000030B5000030B400B6179B28003098
:10012800B7000030B6000030B5000030B400420817
:1001380003199F28A028A5284308031DA428A5283B
:10014800AE280030B3000030B2000030B1000030FB
:10015800B000A12B3008B8003808F30036080A169A
:100168008A11DA250A128A11740883120313C90046
:100178007308C8004808B800B901BA01BB013B08B8
:10018800C1003A08C0003908BF003808BE00490855
:10019800B800B901BA01BB013B08C7003A08C6005C
:1001A8003908C5003808C4003108B8003808F30019
:1001B80035080A168A11DA250A128A117408831278
:1001C8000313C9007308C8004808B800B901BA0188
:1001D800BB013808BE07390803110318013E03198B
:1001E800F628BF073A0803110318013E0319FD2832
:1001F800C0073B0803110318013E03190429C1076E
:100208004908B800B901BA01BB013808C407390860
:1002180003110318013E03191229C5073A080311EF
:100228000318013E03191929C6073B0803110318CF
:10023800013E03192029C7073208B8003808F3001F
:1002480034080A168A11DA250A128A1174088312E8
:100258000313C9007308C8004808B800B901BA01F7
:10026800BB013808BE07390803110318013E0319FA
:100278003E29BF073A0803110318013E031945290F
:10028800C0073B0803110318013E03194C29C10795
:100298004908B800B901BA01BB013808C4073908D0
:1002A80003110318013E03195A29C5073A08031117
:1002B8000318013E03196129C6073B0803110318F7
:1002C800013E03196829C7070830B8000310BE0D9E
:1002D800BF0DC00DC10DB80B6A293108B800380828
:1002E800F30034080A168A11DA250A128A117408EA
:1002F80083120313C9007308C8004808B8004908E6
:10030800B900BA01BB013808BE0739080311031840
:10031800013E03199029BF073A0803110318013E4B
:1003280003199729C0073B0803110318013E031955
:100338009E29C1073008B8003808F30035080A16A6
:100348008A11DA250A128A11740883120313C90064
:100358007308C8004808B8004908B900BA01BB01C9
:100368003808BE07390803110318013E0319BD29CF
:10037800BF073A0803110318013E0319C429C0072F
:100388003B0803110318013E0319CB29C1070830A4
:10039800B8000310BE0DBF0DC00DC10DB80BCD299F
:1003A8003008B8003808F30034080A168A11DA252C
:1003B8000A128A11740883120313C9007308C8004B
:1003C8004808B8004908B900BA01BB013808BE0797
:1003D800390803110318013E0319F329BF073A0826
:1003E80003110318013E0319FA29C0073B0803113A
:1003F8000318013E0319012AC1073108B80038085B
:10040800F30036080A168A11DA250A128A117408C6
:1004180083120313C9007308C8004808B8004908C4
:10042800B900BA01BB013808C40739080311031819
:10043800013E0319202AC5073A0803110318013E93
:100448000319272AC6073B0803110318013E03199D
:100458002E2AC7073208B8003808F30035080A16EC
:100468008A11DA250A128A11740883120313C90043
:100478007308C8004808B8004908B900BA01BB01A8
:100488003808C407390803110318013E03194D2A17
:10049800C5073A0803110318013E0319542AC60771
:1004A8003B0803110318013E03195B2AC7073208EA
:1004B800B8003808F30036080A168A11DA250A1235
:1004C8008A11740883120313C9007308C800480806
:1004D800B8004908B900BA01BB0108300310B80DCB
:1004E800B90DBA0DBB0DFF3E031D722A3808C407AB
:1004F800390803110318013E0319832AC5073A086E
:1005080003110318013E03198A2AC6073B08031181
:100518000318013E0319912AC7073E08B8003F088F
:10052800B9004008BA004108BB0018300310BB0CE2
:10053800BA0CB90CB80CFF3E031D9A2A3808C40738
:10054800390803110318013E0319AB2AC5073A08F5
:1005580003110318013E0319B22AC6073B08031109
:100568000318013E0319B92AC7070830B800031059
:10057800BE0DBF0DC00DC10DB80BBB2A4308420705
:10058800B800B901B90D3808823EC8003908031807
:10059800013EFF3EC900ED2A0130B8000310C40D2A
:1005A800C50DC60DC70DB80BD22AC11FDC2ADD2A1E
:1005B800DE2A44140130B8000310BE0DBF0DC00D73
:1005C800C10DB80BE02AFF30C8070318C90AFF306D
:1005D800C907C61FF02AF12AD02AC201C11FF52A6D
:1005E800F62A122BFF303E05B800FF303F05B90050
:1005F800FF304005BA007F304105BB003B083A0494
:10060800390438040319092B0A2B0D2BC201C20A1D
:10061800122B441C102B112B122B0A2B42080319E6
:10062800162B172B482B0130C40700300318013054
:10063800C507003003180130C60700300318013021
:10064800C707471C282B292B482B4408B800450806
:10065800B9004608BA004708BB000130BC003B0D92
:10066800BB0CBA0CB90CB80CBC0B332B3B08C7003D
:100678003A08C6003908C5003808C4000130C80760
:100688000318C90A0030C9074908803AFF008030BA
:100698007F02031D512BFF304802031C542B552B9E
:1006A800602B7F3083120313C7008030C6000030F0
:1006B800C5000030C400952B831203134908803A03
:1006C800FF0080307F02031D6B2B013048020318A6
:1006D8006E2B6F2B7B2B003083120313C700003067
:1006E800C6000030C5000030C400BD01952B831240
:1006F80003134808B8003808C300FF30C405FF30AA
:10070800C5057F30C6050030C705431C8C2B8D2BD3
:100718008E2BC6174308B8000310380CB9003908E7
:10072800C7003D08B8003808C7044708B3004608A2
:10073800B2004508B1004408B00008008312031352
:1007480023088039A8002808F3002308A8002807F0
:10075800A9002908F500A21FB22BB32BB42B7514DE
:1007680075080319B82BB92BC92B750A031DBD2BA6
:10077800BE2BC62B0030A3000030A2000030A10021
:100788000030A000A217A301D12B0030A300003035
:10079800A2000030A1000030A00027088039A8007E
:1007A8002808F400740873060319DB2BDC2BDD2BF7
:1007B80073172708A8002807A9002908F400A61F0E
:1007C800E62BE72BE82B741474080319EC2BED2B9C
:1007D800FD2B740A031DF12BF22BFA2B0030A70016
:1007E8000030A6000030A5000030A400A617A7011D
:1007F800052C0030A7000030A6000030A50000300E
:10080800A4007508740203180A2C0B2C4F2C731FB4
:100818000E2C0F2C132C8030A8002808F30675081E
:10082800A8002808F6007408A8002808F50076082B
:10083800A8002808F4002008A8002808F6002408C2
:10084800A8002808A0007608A8002808A400210805
:10085800A8002808F6002508A8002808A10076089E
:10086800A8002808A5002208A8002808F6002608DD
:10087800A8002808A2007608A8002808A6002308CF
:10088800A8002808F6002708A8002808A30076086A
:10089800A8002808A700F6017408A800A9012908DB
:1008A800AB0075082802AA00031CAB032B08803A8A
:1008B800FF0080307F02031D632C1A302A02031CBC
:1008C800662C672CA82C8312031323082204210406
:1008D8002004031D702C722C0130732C0030A800EA
:1008E8002808F6000030A3000030A2000030A10064
:1008F8000030A0007408A8002808F500AE2C761C6B
:10090800862C872C922C760883120313A8000310D8
:10091800280C0138A9002908F600942C0310F60CBD
:1009280083120313201C992C9A2C9B2CF617013048
:10093800A800230DA30CA20CA10CA00CA80B9D2CA5
:100948000130A8002808F50774087502031CAD2CAF
:10095800AE2C832C731BB12CB22C012D7508031DF2
:10096800B62CB72CC22C003083120313A30000301E
:10097800A2000030A1000030A000312E8312031322
:100988002408A007250803110318013E0319CD2CDC
:10099800A107260803110318013E0319D42CA20746
:1009A800270803110318013E0319DB2CA307231C96
:1009B800DE2CDF2CB72D761CE22CE32CEC2C7608F1
:1009C800A8000310280C0138A9002908F600EE2C0D
:1009D8000310F60C201CF12CF22CF32CF617013026
:1009E800A800230DA30CA20CA10CA00CA80BF52C9D
:1009F8000130A8002808F507B72D83120313230830
:100A0800803AFF002708803A7F02031D152D26082B
:100A18002202031D152D25082102031D152D24086A
:100A280020020318182D192D712DFF30A800FF3052
:100A3800A900FF30AA00FF30AB002408AC0025084D
:100A4800AD002608AE002708AF002008AC02210838
:100A5800031C210F302D312DAD022208031C220F5B
:100A6800362D372DAE022308031C230F3C2D3D2DB8
:100A7800AF022C08A8072D0803182D0F442D452D6B
:100A8800A9072E0803182E0F4A2D4B2DAA072F0849
:100A980003182F0AAB072B08A3002A08A20029086D
:100AA800A1002808A0008030A8002808F306F6094D
:100AB800F60A7608031D612D622D7F2D0130A007EF
:100AC800003003180130A107003003180130A207D5
:100AD800003003180130A3077F2D2408A002250841
:100AE800031C250FA1022608031C260FA2022708B3
:100AF800031C270FA3022308220421042004031D3A
:100B0800862D872DB32D7608031D8B2D8C2DB32DA7
:100B18000030A3000030A2000030A1000030A00087
:100B2800312E0130A8000310A00DA10DA20DA30DB8
:100B3800A80B972DF61FA12DA22DA32D2014761CEE
:100B4800A62DA72DAA2D0314F60DAC2D0310F60D16
:100B580075080319B02DB12DB32D0130F502A21F70
:100B6800B62DB72D952DF401F61FBB2DBC2DCA2D22
:100B780076087F390319C12DC22DC52DF401F40A59
:100B8800CA2D201CC82DC92DCA2DC22D74080319C1
:100B9800CE2DCF2D032E0130A007003003180130D1
:100BA800A107003003180130A207003003180130F4
:100BB800A307231CE02DE12D032E2008A8002108FF
:100BC800A9002208AA002308AB000130AC002B0DB5
:100BD800AB0CAA0CA90CA80CAC0BEB2D2B08A30092
:100BE8002A08A2002908A1002808A000750A0319EC
:100BF800FE2DFF2D032E0130A8002808F507750AE1
:100C08000319072E082E0D2E7508031D0C2E0D2E08
:100C18001B2E0030A3000030A2000030A1000030DD
:100C2800A0007508031D192E1A2E1B2EF301751C22
:100C38001E2E1F2E212EA217252E7F30A800280831
:100C4800A2057508A8000310280CA9002908A3000C
:100C5800F31F2F2E302E312EA31708000A168A11E3
:100C680031250A128A110A128A1593200A128A114A
:100C78000A168A113E250A128A116C300A168A1140
:100C8800A2270A128A110A128A1560210A128A11E9
:100C980083160313B700370883120313E4000A12FC
:100CA8008A154F220A128A110A168A119B260A12DD
:100CB8008A110A168A1114270A128A110A128A1529
:100CC800F7200A128A11831203135A08B30059082D
:100CD800B2005808B1005708B000BF30A300003078
:100CE800A2000030A1000030A0006B08A7006A082D
:100CF800A6006908A5006808A4000A128A11A223A0
:100D08000A128A11831203132308B7002208B600B7
:100D18002108B5002008B4000A128A15D4220A1244
:100D28008A110318982E992EA32EC8308316031300
:100D3800B700370883120313E600E501E32E3F30BE
:100D480083120313A3000030A2000030A10000307A
:100D5800A0006B08A7006A08A6006908A500680833
:100D6800A4000A128A11A2230A128A1183120313F9
:100D78002308B3002208B2002108B1002008B000FF
:100D88005A08B7005908B6005808B5005708B40003
:100D98000A128A15D4220A128A110318D42ED52EC3
:100DA800DF2EC83083160313B700370883120313E6
:100DB800E500E601E32E83120313E601E501660868
:100DC8000A168A115E250A128A118312031365080E
:100DD8000A168A114E250A128A1102307806031D56
:100DE800F62EF72EFC2E0A168A1103260A128A11ED
:100DF8007A1CFF2E002F472E0A168A11D6260A12B1
:100E08008A11FE3083160313B7003708FA05472EF8
:100E18000A128A110C2883120313BD0006303D06FE
:100E2800031D172F182F1C2F0130BC003C08F80792
:100E380004303D06031D212F222F242F0130F802F4
:100E480002303D06031D292F2A2F4F2F0330780625
:100E5800031D2F2F302F4F2F3D30A300CC30A20081
:100E6800CC30A100CD30A0006B08A7006A08A6000E
:100E78006908A5006808A4000A128A11A2230A12A8
:100E88008A11831203132308EB002208EA002108C1
:100E9800E9002008E80008303D06031D542F552FAF
:100EA8007A2F03307806031D5A2F5B2F7A2F3D3097
:100EB800B300CC30B200CC30B100CD30B0006B08FC
:100EC800B7006A08B6006908B5006808B4000A16D1
:100ED8008A118E250A128A11831203133308EB0034
:100EE8003208EA003108E9003008E80004307802E6
:100EF800031C7F2F802F822FF801F80A7808031D22
:100F0800862F872F8B2F0330BC003C08F800423017
:100F1800B3000C30B2000030B1000030B0006B08F4
:100F2800B7006A08B6006908B5006808B4000A1274
:100F38008A15D4220A128A110318A32FA42FAE2FC0
:100F4800423083120313EB000C30EA000030E90052
:100F58000030E800831203136B08B3006A08B2007C
:100F68006908B1006808B0004130B7004030B600E9
:100F78000030B5000030B4000A128A15D4220A12D3
:100F88008A110318C82FC92FD32F41308312031396
:100F9800EB004030EA000030E9000030E8000800CB
:100FA80083120313A001A101731CDB2FDC2FE42F94
:100FB800750883120313A0070318A10A7608A1076E
:100FC80001300310F50DF60DFF3E031DE52F01302E
:100FD8000310F40CF30CFF3E031DEC2F730874048C
:100FE800031DF72FF82FD82F831203132108F400BD
:060FF8002008F3000800D0
:1010000008308A000408840A82070034013404345A
:1010100007342A34023405340834003403340634E7
:10102000093423349034C034603430349034303454
:101030006034C03490343034083404340234013421
:10104000FE34FD34FB34543465346D347034203454
:101050002034203420343A342034203420342034D6
:10106000203420342034483475346D346934643489
:101070006934743479343A342034203420342034C0
:10108000203420342534003420342034573465345F
:101090006C3463346F346D346534203454346F34BD
:1010A00020342034203420342034203420342034A0
:1010B00043346F3461346334683420343134003461
:1010C0005334653474342034543465346D3470349E
:1010D00065347234613474347534723465343A343E
:1010E0000034533479347334743465346D342034BB
:1010F0005334743461347234743465346434003479
:101100007E088A007F0882000A128A1580200A124F
:101110008A158000840A04087D0603190034FF0A3A
:101120000319FE0A8428831203130908023989006F
:10113000090804398900343083120313A100F13007
:10114000A000A00BA128A10BA1288312031309085A
:1011500002388900F30138300A168A1132260A1241
:101160008A150D3083120313A100FB30A000A00BE1
:10117000B728A10BB728F30138300A168A11322696
:101180000A128A15033083120313A1009730A000BE
:10119000A00BC828A10BC828F30138300A168A1101
:1011A00032260A128A15F3010F300A168A113226E6
:1011B0000A128A15F30101300A168A1132260A1220
:1011C0008A15F3010E300A168A1132260A128A1580
:1011D000F30180300A168A1132260A128A15F301A9
:1011E0000C300A168A1132260A128A150800831654
:1011F00003138615831203138619FF2800290F296C
:101200005F080319042905290F29DF015E08031966
:101210000A290B290D29DE010F29DE01DE0A861DB0
:101220001229132930295F08031D1729182930298D
:101230001A3083120313A500F730A400A40B1E2953
:10124000A50B1E29232983120313861D282929296A
:1012500030295F08031D2D292E293029DF01DF0ADF
:101260005D08031D3429352948295E0803193929E9
:101270003A2948291930A4002408A00000300A1691
:101280008A116E250A128A1583120313DD01DD0A05
:101290005D0803194C294D295F295E08031D51295A
:1012A00052295F291930A4002408A00001300A1631
:1012B0008A116E250A128A1583120313DD010800B4
:1012C000F830F30073088316031386050F30F3001C
:1012D00073088804F9010730F30073088312860449
:1012E00079081B3E84000A128A1500200A128A150A
:1012F000F300730886050930F300F30B7D2980297C
:1013000083120313E7016708173E84000A128A1547
:1013100000200A128A150805031D8F299029B42977
:10132000FA145C08803AFF0080307F02031D9A297E
:101330000B305B02031C9D299E29B4297908F30018
:1013400002300310F30DFF3E031DA1298312031386
:1013500067087307F4007408EF00FD30F3007308AA
:10136000FA05DB01DC017A140130F3007308831203
:101370000313E70704306702031CBF29C029832930
:101380000130F3007308F90703307902031CC929FF
:10139000CA296B296F08013E84000A128A150020B1
:1013A0000A128A150800031083120313370D380D33
:1013B000B9003908BF003F08031DDF29E029E929EA
:1013C0000030B8000030B7000030B6000030B50083
:1013D0004E2A3508B9003608BA003708BB0038086D
:1013E000BC001F300310BC0CBB0CBA0CB90CFF3E88
:1013F000031DF2293908BD003D08BE00B717FF30B4
:10140000B505FF30B605FF30B7050030B80596309A
:10141000BF02BF1F0C2A0D2A272A3F08803A973E99
:101420000318132A142A152AE02901300310B80CD6
:10143000B70CB60CB50CFF3E031D162A0130B900DF
:101440003908BF07031D252A262A152A3E2A2030DF
:101450003F02031C2C2A2D2A392AE0290130B90029
:101460000310B50DB60DB70DB80DB90B302A01300C
:10147000BF023F08031D3D2A3E2A2E2A3E080319BB
:10148000422A432A4E2AB509B609B709B809B50A4E
:101490000319B60A0319B70A0319B80A0800831614
:1014A00003132D08803AFF0080307F02031D5A2A63
:1014B00065302C02031C5D2A5E2AD32A831603138F
:1014C000270883120313B30083160313260883121D
:1014D0000313B20083160313250883120313B1000C
:1014E00083160313240883120313B0004230B7009D
:1014F000C830B6000030B5000030B4000A128A15BA
:10150000D4220A128A15031C862A872A922A0030BE
:1015100083160313A7000030A6000030A50000309A
:10152000A400D12A3D3083120313A300CC30A200C3
:10153000CC30A100CD30A0008316031327088312FE
:101540000313A70083160313260883120313A600B0
:1015500083160313250883120313A50083160313B0
:10156000240883120313A4000A128A11A2230A1268
:101570008A1583120313230883160313A70083120B
:101580000313220883160313A600831203132108F2
:1015900083160313A5008312031320088316031375
:1015A000A400AC01AD010800003083120313300524
:1015B000B80000303105B90080303205BA007F3004
:1015C0003305BB003B083A0439043804031DE92AFB
:1015D000EA2AF22A0030B3000030B2000030B10035
:1015E0000030B00000303405B80000303505B900D7
:1015F00080303605BA007F303705BB003B083A041F
:1016000039043804031D052B062B0E2B0030B700C0
:101610000030B6000030B5000030B400B31F112B0D
:10162000122B362B0030B8000030B9000030BA0061
:101630008030BB003008B8023108031C310F212B69
:10164000222BB9023208031C320F272B282BBA0297
:101650003308031C330F2D2B2E2BBB023B08B3008A
:101660003A08B2003908B1003808B000B71F392B6A
:101670003A2B5E2B0030B8000030B9000030BA00C1
:101680008030BB003408B8023508031C350F492BE5
:101690004A2BB9023608031C360F4F2B502BBA02C7
:1016A0003708031C370F552B562BBB023B08B700DE
:1016B0003A08B6003908B5003808B4008030B306DF
:1016C0008030B70637083302031D702B360832020C
:1016D000031D702B35083102031D702B34083002B6
:1016E0000318732B742B762B0310772B031408002D
:1016F00083120313AA002A0803197F2B802B942B33
:10170000A51F832B842B942B2209AC002309AD0049
:101710002409AE002509AF00AC0A0319AD0A03196C
:10172000AE0A0319AF0A9C2B2508AF002408AE00AF
:101730002308AD002208AC00250824042304220459
:10174000031DA32BA42BAD2B0030A5000030A4005B
:101750000030A3000030A200332C9630A6002608EB
:10176000AB00BF2B0130A6002608AB0701300310E9
:10177000AF0CAE0CAD0CAC0CFF3E031DB72BFE3016
:101780002F05031DC42BC52BB22BE12B0130A60066
:101790002608AB070130AC07003003180130AD0755
:1017A000003003180130AE07003003180130AF07D6
:1017B00001300310AF0CAE0CAD0CAC0CFF3E031DA2
:1017C000D92BFF302F05031DE62BE72BC62BF32B60
:1017D0000130AB020130A6000310AC0DAD0DAE0D13
:1017E000AF0DA60BEC2BAE1BF62BF72BFD2B02300F
:1017F0002B020318FC2BFD2BE82B2B18002C012CA3
:10180000092CFF30AC05FF30AD057F30AE05FF3051
:10181000AF050310AB0C2B08A600A701A801A90176
:1018200018300310A60DA70DA80DA90DFF3E031D2E
:10183000112C2608AC042708AD042808AE0429089A
:10184000AF042A080319252C262C2B2CA51F292C84
:101850002A2C2B2CAF172F08A5002E08A4002D082A
:10186000A3002C08A2000800831203132708803964
:10187000F3007308AC002708F3007307F400740842
:10188000B300A61F442C452C462C331433080319EF
:101890004A2C4B2C5B2C330A031D4F2C502C582CFC
:1018A0000030A7000030A6000030A5000030A400E2
:1018B000A617A701632C0030A7000030A600003057
:1018C000A5000030A40023088039F3007308AC069B
:1018D0002308F3007307F4007408B400A21F712CEE
:1018E000722C732C341434080319772C782C882C20
:1018F000340A031D7C2C7D2C852C0030A300003085
:10190000A2000030A1000030A000A217A301902C7B
:101910000030A3000030A2000030A1000030A00081
:101920002308220421042004031D972C982CB12C99
:101930000030A7000030A6000030A5000030A40051
:101940008030A6047F30A7042C08F3007308A70496
:101950002708A3002608A2002508A1002408A0004B
:10196000102E3308031DB52CB62CBF2C0030A3005D
:101970000030A2000030A1000030A000102E33087B
:10198000F300F4017408F60034087302F500031C38
:10199000F60375087F3EAD0076080318013E003E51
:1019A000AE002708AB002608AA002508A9002408D5
:1019B000A8000030A7000030A6000030A5000030CD
:1019C000A4000030B2000030B1000030B0000030A0
:1019D000AF00B401352D34080319EF2CF02C102D75
:1019E0000130F3000310A80DA90DAA0DAB0DF30BE8
:1019F000F22C0130F3000310A40DA50DA60DA70DC8
:101A0000F30BFB2CB21F052D062D072D24140130DE
:101A1000F3000310AF0DB00DB10DB20DF30B092D96
:101A200023082B02031D1E2D22082A02031D1E2D32
:101A300021082902031D1E2D20082802031C212D28
:101A4000222D312D32172008A8022108031C210F56
:101A5000A9022208031C220FAA022308031C230F39
:101A6000AB020130F3007308B4071A303402031CD0
:101A70003A2D3B2DEB2C2B082A04290428040319AA
:101A8000422D432D622D2F14622D0130F3000310DF
:101A9000A40DA50DA60DA70DF30B472DB21F512DBB
:101AA000522D532D24140130F3000310AF0DB00D4F
:101AB000B10DB20DF30B552DFF30AD070318AE0A73
:101AC000FF30AE07A61F652D662D452DB401B21F50
:101AD0006A2D6B2D872DFF302F05F300FF30300569
:101AE000F400FF303105F5007F303205F60076084E
:101AF00075047404730403197E2D7F2D822DB401A7
:101B0000B40A872D241C852D862D872D7F2D340822
:101B100003198B2D8C2DBD2D0130A4070030031827
:101B20000130A507003003180130A6070030031864
:101B30000130A707271C9D2D9E2DBD2D2408F300E5
:101B40002508F4002608F5002708F6000130F70004
:101B5000760DF60CF50CF40CF30CF70BA82D7608AB
:101B6000A7007508A6007408A5007308A40001303A
:101B7000AD070318AE0A0030AE072E08803AFF000A
:101B800080307F02031DC62DFF302D02031CC92D9E
:101B9000CA2DD82DFF3083120313AD000030AE00E4
:101BA0000030A7000030A6000030A5000030A400DF
:101BB000831203132E08803AFF0080307F02031D3A
:101BC000E32D01302D020318E62DE72DF42D8312AD
:101BD0000313AD01AE010030A7000030A6000030B5
:101BE000A5000030A400AC01831203132D08F300FC
:101BF0007308B300331CFD2DFE2D002EA617042EF6
:101C00007F30F3007308A6053308F3000310730C4C
:101C1000F4007408A7002C08F3007308A704A82C8C
:101C2000080083120313D200F30152080A168A1126
:101C300032260A128A15831203134D08B3004C088A
:101C4000B2004B08B1004A08B0000030B7000030C5
:101C5000B6000030B5000030B4000A128A15D42254
:101C60000A128A150318352E362E5F2EF301F30A59
:101C70002D300A168A1132260A128A15BF308312B5
:101C80000313B3008030B2000030B1000030B00068
:101C90004D08B7004C08B6004B08B5004A08B40020
:101CA0000A128A1141200A128A158312031333087B
:101CB000CD003208CC003108CB003008CA008312B6
:101CC00003134D08A7004C08A6004B08A5004A08BE
:101CD000A4004230A300C830A2000030A1000030B0
:101CE000A0000A128A1534240A128A1583120313DB
:101CF0002308B8002208B7002108B6002008B50064
:101D00000A128A15D3210A128A1583120313350881
:101D1000CE004E08D500550803198F2E902E992E0F
:101D2000F301F30A5508303E0A168A1132260A12C8
:101D30008A156430F5000030F6008312031355084D
:101D4000CE00CF014E08F3004F08F4000A128A11AA
:101D5000D4270A128A15730883120313A200740889
:101D6000A3000030A31BFF30A400A50001300A121D
:101D70008A1578230A128A15831203132508B300E3
:101D80002408B2002308B1002208B0004D08B700B3
:101D90004C08B6004B08B5004A08B4000A168A1170
:101DA0008E250A128A15831203133308CD003208D8
:101DB000CC003108CB003008CA004D08A7004C0801
:101DC000A6004B08A5004A08A4004130A30020301B
:101DD000A2000030A1000030A0000A128A153424AD
:101DE0000A128A15831203132308B8002208B700C9
:101DF0002108B6002008B5000A128A15D3210A125C
:101E00008A15831203133508CE004E08D6005608F3
:101E100003190B2F0C2F152FF301F30A5608303E30
:101E20000A168A1132260A128A150A30F500003085
:101E3000F600831203135608CE00CF014E08F300BC
:101E40004F08F4000A128A11D4270A128A1573085F
:101E500083120313A2007408A3000030A31BFF30F9
:101E6000A400A50001300A128A1578230A128A15E7
:101E7000831203132508B3002408B2002308B1001D
:101E80002208B0004D08B7004C08B6004B08B5005A
:101E90004A08B4000A168A118E250A128A1583127E
:101EA00003133308CD003208CC003108CB003008D2
:101EB000CA004D08A7004C08A6004B08A5004A0818
:101EC000A4003F30A3008030A2000030A100003009
:101ED000A0000A128A1534240A128A1583120313E9
:101EE0002308B8002208B7002108B6002008B50072
:101EF0000A128A15D3210A128A1583120313350890
:101F0000CE004E08D400F301F30A5408303E0A16FE
:101F10008A1132260A128A15831203135408CE003E
:101F2000CF01D001D1015108A5005008A4004F08ED
:101F3000A3004E08A20001300A128A1578230A1263
:101F40008A15831203132508B3002408B20023085E
:101F5000B1002208B0004D08B7004C08B6004B088D
:101F6000B5004A08B4000A168A118E250A128A158D
:101F7000831203133308CD003208CC003108CB00A4
:101F80003008CA004D08A7004C08A6004B08A50061
:101F90004A08A4003D30A300CC30A200CC30A10000
:101FA000CD30A0000A128A1534240A128A15831231
:101FB00003132308B8002208B7002108B600200840
:101FC000B5000A128A15D3210A128A158312031347
:101FD0003508CE004E08D300F301F30A2E300A165E
:101FE0008A1132260A128A15F301F30A83120313A7
:101FF0005308303E0A168A1132260A128A15080042
:102A2A0064008001840A0406031900340406162D82
:102A3A0000340034B03441346C3423340C346334FD
:102A4A003E343F341E345B3400340034483442345C
:102A5A000034003400343F3483160313870189019C
:102A6A00A0308B00063081000630831203138100E8
:102A7A0008008316031305150130831203139F0000
:102A8A008030831603139F000D30F300F30B4B2D98
:102A9A000800F40074088312031363020318562D06
:102AAA00572D592D07155D2DFB30F3007308870547
:102ABA000800F40074088312031363020318662DD6
:102ACA00672D692D87166D2DDF30F3007308870592
:102ADA00080083120313A2000F30A10021088316F5
:102AEA000313880583120313A301872D22080A16EC
:102AFA008A1158270A168A11013083120313A1007A
:102B0A002108A30720082302031C8C2D8D2D7B2D61
:102B1A000800803083120313B3063708A30036086F
:102B2A00A2003508A1003408A0003308A700320823
:102B3A00A6003108A5003008A4000A128A11A223AF
:102B4A000A168A11831203132308B3002208B2005B
:102B5A002108B1002008B0000800F700C730F500CE
:102B6A007508831203139F0577080739F5000230A9
:102B7A000310F50DFF3E031DBD2D0310750DF60064
:102B8A0076089F040630F500F50BC92D0000831264
:102B9A0003131F151F19D22DD32DCF2D1E08F40094
:102BAA00831603131E08F300080083120313A400FC
:102BBA00A001A1017308F500F6017508A2007608C4
:102BCA00A300241CE92DEA2DF02D2208A0070318E2
:102BDA00A10A2308A10701300310A20DA30DFF3E8D
:102BEA00031DF12D0310A40C2408031DFD2DFE2D39
:102BFA00E62D2108F4002008F300080083160313C9
:102C0A00270883120313CD008316031326088312A1
:102C1A000313CC0083160313250883120313CB0076
:102C2A0083160313240883120313CA00CA300A1234
:102C3A008A1511260A168A11831203135A08CD001F
:102C4A005908CC005808CB005708CA008A300A1223
:102C5A008A1511260A168A110800F600831603132C
:102C6A00880189018312031389147608880073087E
:102C7A000319402E412E432E0915472EFB30F4002E
:102C8A00740889050830F500C930F400F40B4B2E9E
:102C9A00F50B4B2E502EFD30F400740883120313EB
:102CAA0089050830F500C930F400F40B5A2EF50BEB
:102CBA005A2E5F2E83120313891408000B1D662EE9
:102CCA00672E942EFA1C6A2E6B2E732E01308312F5
:102CDA000313DB070318DC0A0030DC078312031333
:102CEA00630A031D792E7A2E7C2EE301802E013091
:102CFA00F0007008E307FB30F00070088B0506301F
:102D0A008100013083160313AE070318AF0A00309F
:102D1A00AF070130AC070318AD0A0030AD077208DF
:102D2A008A00710E8300FE0E7E0E09003E30831269
:102D3A000313B300FA30B2005E30B1003530B00090
:102D4A0002300A168A11B2250A168A1173088312EA
:102D5A000313A2007408A3000030A31BFF30A400D1
:102D6A00A50001300A128A1578230A168A118312DD
:102D7A0003132508B7002408B6002308B500220863
:102D8A00B4000A128A1141200A168A118312031307
:102D9A003308DA003208D9003108D8003008D700E1
:102DAA0008008312031364080A128A110F270A16ED
:102DBA008A1178088312031362060319E52EE62E98
:102DCA00FF2EF30101300A168A1132260A168A11D9
:102DDA007808A03E8400831300080A168A11A227E5
:102DEA000A168A11780883160313B6003608831266
:102DFA000313E20003307806031D042F052F132F57
:102E0A006B08CD006A08CC006908CB006808CA00C4
:102E1A00C6300A128A1511260A168A110800831664
:102E2A000313061587018312031306191D2F1E2F7C
:102E3A002E2F60080319222F232F2E2FE0017A1D2F
:102E4A00272F282F2D2FFB30F3007308FA052E2F7A
:102E5A007A15061D312F322F4D2F6008031D362F8C
:102E6A00372F4D2F1A30F400F830F300F30B3B2FB5
:102E7A00F40B3B2F000083120313061D452F462F28
:102E8A004D2F6008031D4A2F4B2F4D2FE001E00AFA
:102E9A007A1D502F512F532F8714572FFD30F300CF
:102EAA00730887050800F5007508031D5D2F5E2F5E
:102EBA007D2FF6017608123E84000A128A15002038
:102ECA000A168A118312031388001A30F400F830A4
:102EDA00F300F30B6E2FF40B6E2F00000130F3009A
:102EEA007308F60705307602031C7C2F7D2F5F2FAF
:102EFA007503031D812F822FA12FF70177080D3E3D
:102F0A0084000A128A1500200A168A1183120313F2
:102F1A0088001A30F400F830F300F30B922FF40B08
:102F2A00922F00000130F3007308F707053077028B
:102F3A00031CA02FA12F832F080083120313A000C4
:102F4A00A101F22F103021020318AC2FAD2FC32F8D
:102F5A00F301F30A2108200784000A128A150020C7
:102F6A000A168A110A168A1132260A168A1101309D
:102F7A00F700770883120313A107F22F10302106F6
:102F8A00031DC82FC92FE22FF301C0300A168A1178
:102F9A0032260A168A11F301F30A8312031321084F
:102FAA00200784000A128A1500200A168A110A16B6
:102FBA008A1132260A168A11BC2FF301F30A210854
:102FCA00200784000A128A1500200A168A110A1696
:102FDA008A1132260A168A11BC2F2108200784007A
:102FEA000A128A1500200A168A11003A031DFE2FBA
:062FFA00FF2FA72F0800C5
:02400E00F23F7F
:00000001FF
